{
  "contractName": "AccessControl",
  "abi": [
    {
      "inputs": [
        {
          "internalType": "address",
          "name": "_patient",
          "type": "address"
        },
        {
          "internalType": "address",
          "name": "_provider",
          "type": "address"
        }
      ],
      "name": "grantReadAccess",
      "outputs": [],
      "stateMutability": "nonpayable",
      "type": "function"
    },
    {
      "inputs": [
        {
          "internalType": "address",
          "name": "_patient",
          "type": "address"
        },
        {
          "internalType": "address",
          "name": "_provider",
          "type": "address"
        }
      ],
      "name": "revokeReadAccess",
      "outputs": [],
      "stateMutability": "nonpayable",
      "type": "function"
    },
    {
      "inputs": [
        {
          "internalType": "address",
          "name": "_patient",
          "type": "address"
        },
        {
          "internalType": "address",
          "name": "_provider",
          "type": "address"
        }
      ],
      "name": "grantUpdateAccess",
      "outputs": [],
      "stateMutability": "nonpayable",
      "type": "function"
    },
    {
      "inputs": [
        {
          "internalType": "address",
          "name": "_patient",
          "type": "address"
        },
        {
          "internalType": "address",
          "name": "_provider",
          "type": "address"
        }
      ],
      "name": "revokeUpdateAccess",
      "outputs": [],
      "stateMutability": "nonpayable",
      "type": "function"
    },
    {
      "inputs": [
        {
          "internalType": "address",
          "name": "_patient",
          "type": "address"
        },
        {
          "internalType": "address",
          "name": "_provider",
          "type": "address"
        }
      ],
      "name": "hasReadPermission",
      "outputs": [
        {
          "internalType": "bool",
          "name": "",
          "type": "bool"
        }
      ],
      "stateMutability": "view",
      "type": "function",
      "constant": true
    },
    {
      "inputs": [
        {
          "internalType": "address",
          "name": "_patient",
          "type": "address"
        }
      ],
      "name": "hasAddPermission",
      "outputs": [
        {
          "internalType": "bool",
          "name": "",
          "type": "bool"
        }
      ],
      "stateMutability": "view",
      "type": "function",
      "constant": true
    }
  ],
  "bytecode": "0x608060405234801561001057600080fd5b5061084b806100206000396000f3fe608060405234801561001057600080fd5b50600436106100625760003560e01c8063272acd7f1461006757806356096536146100975780636448965a146100b357806366ed55a5146100e35780636aea790d146100ff578063ca80024d1461011b575b600080fd5b610081600480360381019061007c91906106cf565b610137565b60405161008e9190610717565b60405180910390f35b6100b160048036038101906100ac9190610732565b6101ca565b005b6100cd60048036038101906100c89190610732565b6102d2565b6040516100da9190610717565b60405180910390f35b6100fd60048036038101906100f89190610732565b610365565b005b61011960048036038101906101149190610732565b610464565b005b61013560048036038101906101309190610732565b610564565b005b6000600160008373ffffffffffffffffffffffffffffffffffffffff1673ffffffffffffffffffffffffffffffffffffffff16815260200190815260200160002060003373ffffffffffffffffffffffffffffffffffffffff1673ffffffffffffffffffffffffffffffffffffffff16815260200190815260200160002060009054906101000a900460ff169050919050565b818073ffffffffffffffffffffffffffffffffffffffff163373ffffffffffffffffffffffffffffffffffffffff1614610239576040517f08c379a0000000000000000000000000000000000000000000000000000000008152600401610230906107f5565b60405180910390fd5b60018060008573ffffffffffffffffffffffffffffffffffffffff1673ffffffffffffffffffffffffffffffffffffffff16815260200190815260200160002060008473ffffffffffffffffffffffffffffffffffffffff1673ffffffffffffffffffffffffffffffffffffffff16815260200190815260200160002060006101000a81548160ff021916908315150217905550505050565b60008060008473ffffffffffffffffffffffffffffffffffffffff1673ffffffffffffffffffffffffffffffffffffffff16815260200190815260200160002060008373ffffffffffffffffffffffffffffffffffffffff1673ffffffffffffffffffffffffffffffffffffffff16815260200190815260200160002060009054906101000a900460ff16905092915050565b818073ffffffffffffffffffffffffffffffffffffffff163373ffffffffffffffffffffffffffffffffffffffff16146103d4576040517f08c379a00000000000000000000000000000000000000000000000000000000081526004016103cb906107f5565b60405180910390fd5b6000808473ffffffffffffffffffffffffffffffffffffffff1673ffffffffffffffffffffffffffffffffffffffff16815260200190815260200160002060008373ffffffffffffffffffffffffffffffffffffffff1673ffffffffffffffffffffffffffffffffffffffff16815260200190815260200160002060006101000a81549060ff0219169055505050565b818073ffffffffffffffffffffffffffffffffffffffff163373ffffffffffffffffffffffffffffffffffffffff16146104d3576040517f08c379a00000000000000000000000000000000000000000000000000000000081526004016104ca906107f5565b60405180910390fd5b600160008473ffffffffffffffffffffffffffffffffffffffff1673ffffffffffffffffffffffffffffffffffffffff16815260200190815260200160002060008373ffffffffffffffffffffffffffffffffffffffff1673ffffffffffffffffffffffffffffffffffffffff16815260200190815260200160002060006101000a81549060ff0219169055505050565b818073ffffffffffffffffffffffffffffffffffffffff163373ffffffffffffffffffffffffffffffffffffffff16146105d3576040517f08c379a00000000000000000000000000000000000000000000000000000000081526004016105ca906107f5565b60405180910390fd5b60016000808573ffffffffffffffffffffffffffffffffffffffff1673ffffffffffffffffffffffffffffffffffffffff16815260200190815260200160002060008473ffffffffffffffffffffffffffffffffffffffff1673ffffffffffffffffffffffffffffffffffffffff16815260200190815260200160002060006101000a81548160ff021916908315150217905550505050565b600080fd5b600073ffffffffffffffffffffffffffffffffffffffff82169050919050565b600061069c82610671565b9050919050565b6106ac81610691565b81146106b757600080fd5b50565b6000813590506106c9816106a3565b92915050565b6000602082840312156106e5576106e461066c565b5b60006106f3848285016106ba565b91505092915050565b60008115159050919050565b610711816106fc565b82525050565b600060208201905061072c6000830184610708565b92915050565b600080604083850312156107495761074861066c565b5b6000610757858286016106ba565b9250506020610768858286016106ba565b9150509250929050565b600082825260208201905092915050565b7f4f6e6c79207468652070617469656e742063616e20706572666f726d2074686960008201527f7320616374696f6e000000000000000000000000000000000000000000000000602082015250565b60006107df602883610772565b91506107ea82610783565b604082019050919050565b6000602082019050818103600083015261080e816107d2565b905091905056fea264697066735822122024424115e62d9b8c6c12eda4f690e59a05ceb1b0c6a7eb0593ecda06f16d245c64736f6c63430008130033",
  "immutableReferences": {},
  "source": "// SPDX-License-Identifier: MIT\npragma solidity 0.8.19;\n\ncontract AccessControl {\n    mapping(address => mapping(address => bool)) private readPermissions;\n    mapping(address => mapping(address => bool)) private writePermissions;\n\n    modifier onlyPatient(address _patient) {\n        require(msg.sender == _patient, \"Only the patient can perform this action\");\n        _;\n    }\n\n    modifier readOnly(address _patient) {\n        require(msg.sender == _patient || readPermissions[_patient][msg.sender], \"No read permission\");\n        _;\n    }\n\n    modifier write(address _provider, address _patient) {\n        require(writePermissions[_patient][_provider], \"Only authorized healthcare providers can perform this action\");\n        _;\n    }\n\n    modifier canRead(address _patient) {\n        require(msg.sender == _patient || readPermissions[_patient][msg.sender], \"No read permission\");\n        _;\n    }\n\n    modifier canAdd(address _patient) {\n        require(writePermissions[_patient][msg.sender], \"No add permission\");\n        _;\n    }\n\n    \n\n    function grantReadAccess(address _patient, address _provider) public onlyPatient(_patient) {\n        readPermissions[_patient][ _provider]= true;\n    }\n\n    function revokeReadAccess(address _patient, address _provider) public onlyPatient(_patient) {\n        delete readPermissions[_patient] [_provider];\n    }\n\n    function grantUpdateAccess(address _patient, address _provider) public onlyPatient(_patient) {\n        writePermissions[_patient] [_provider]=true;\n    }\n\n    function revokeUpdateAccess(address _patient, address _provider) public onlyPatient(_patient){\n        delete writePermissions[_patient] [_provider];\n    }\n\n    function hasReadPermission(address _patient, address _provider) public view returns (bool) {\n        return readPermissions[_patient][_provider];\n    }\n\n    function hasAddPermission(address _patient) public view returns (bool) {\n        return writePermissions[_patient][msg.sender];\n    }\n\n\n\n\n\n}\n",
  "sourcePath": "/Users/maauri/Projects/MediChain/contracts/AccessControl.sol",
  "compiler": {
    "name": "solc",
    "version": "0.8.19+commit.7dd6d404.Emscripten.clang"
  },
  "schemaVersion": "3.4.16",
  "updatedAt": "2024-07-12T18:14:56.009Z",
  "networkType": "ethereum",
  "devdoc": {
    "kind": "dev",
    "methods": {},
    "version": 1
  },
  "userdoc": {
    "kind": "user",
    "methods": {},
    "version": 1
  }
}