{
  "contractName": "AccessControl",
  "abi": [
    {
      "inputs": [
        {
          "internalType": "address",
          "name": "_patient",
          "type": "address"
        },
        {
          "internalType": "address",
          "name": "_provider",
          "type": "address"
        }
      ],
      "name": "grantReadAccess",
      "outputs": [],
      "stateMutability": "nonpayable",
      "type": "function"
    },
    {
      "inputs": [
        {
          "internalType": "address",
          "name": "_patient",
          "type": "address"
        },
        {
          "internalType": "address",
          "name": "_provider",
          "type": "address"
        }
      ],
      "name": "revokeReadAccess",
      "outputs": [],
      "stateMutability": "nonpayable",
      "type": "function"
    },
    {
      "inputs": [
        {
          "internalType": "address",
          "name": "_patient",
          "type": "address"
        },
        {
          "internalType": "address",
          "name": "_provider",
          "type": "address"
        }
      ],
      "name": "grantUpdateAccess",
      "outputs": [],
      "stateMutability": "nonpayable",
      "type": "function"
    },
    {
      "inputs": [
        {
          "internalType": "address",
          "name": "_patient",
          "type": "address"
        },
        {
          "internalType": "address",
          "name": "_provider",
          "type": "address"
        }
      ],
      "name": "revokeUpdateAccess",
      "outputs": [],
      "stateMutability": "nonpayable",
      "type": "function"
    },
    {
      "inputs": [
        {
          "internalType": "address",
          "name": "_patient",
          "type": "address"
        },
        {
          "internalType": "address",
          "name": "_provider",
          "type": "address"
        }
      ],
      "name": "hasReadPermission",
      "outputs": [
        {
          "internalType": "bool",
          "name": "",
          "type": "bool"
        }
      ],
      "stateMutability": "view",
      "type": "function",
      "constant": true
    },
    {
      "inputs": [
        {
          "internalType": "address",
          "name": "_patient",
          "type": "address"
        }
      ],
      "name": "hasAddPermission",
      "outputs": [
        {
          "internalType": "bool",
          "name": "",
          "type": "bool"
        }
      ],
      "stateMutability": "view",
      "type": "function",
      "constant": true
    }
  ],
  "bytecode": "0x608060405234801561000f575f80fd5b506107308061001d5f395ff3fe608060405234801561000f575f80fd5b5060043610610060575f3560e01c8063272acd7f1461006457806356096536146100945780636448965a146100b057806366ed55a5146100e05780636aea790d146100fc578063ca80024d14610118575b5f80fd5b61007e600480360381019061007991906105c0565b610134565b60405161008b9190610605565b60405180910390f35b6100ae60048036038101906100a9919061061e565b6101c0565b005b6100ca60048036038101906100c5919061061e565b61023e565b6040516100d79190610605565b60405180910390f35b6100fa60048036038101906100f5919061061e565b6102cb565b005b6101166004803603810190610111919061061e565b610349565b005b610132600480360381019061012d919061061e565b6103c7565b005b5f805f8373ffffffffffffffffffffffffffffffffffffffff1673ffffffffffffffffffffffffffffffffffffffff1681526020019081526020015f205f3373ffffffffffffffffffffffffffffffffffffffff1673ffffffffffffffffffffffffffffffffffffffff1681526020019081526020015f205f9054906101000a900460ff169050919050565b818073ffffffffffffffffffffffffffffffffffffffff163373ffffffffffffffffffffffffffffffffffffffff161461022f576040517f08c379a0000000000000000000000000000000000000000000000000000000008152600401610226906106dc565b60405180910390fd5b6102398383610445565b505050565b5f805f8473ffffffffffffffffffffffffffffffffffffffff1673ffffffffffffffffffffffffffffffffffffffff1681526020019081526020015f205f8373ffffffffffffffffffffffffffffffffffffffff1673ffffffffffffffffffffffffffffffffffffffff1681526020019081526020015f205f9054906101000a900460ff16905092915050565b818073ffffffffffffffffffffffffffffffffffffffff163373ffffffffffffffffffffffffffffffffffffffff161461033a576040517f08c379a0000000000000000000000000000000000000000000000000000000008152600401610331906106dc565b60405180910390fd5b61034483836104d8565b505050565b818073ffffffffffffffffffffffffffffffffffffffff163373ffffffffffffffffffffffffffffffffffffffff16146103b8576040517f08c379a00000000000000000000000000000000000000000000000000000000081526004016103af906106dc565b60405180910390fd5b6103c283836104d8565b505050565b818073ffffffffffffffffffffffffffffffffffffffff163373ffffffffffffffffffffffffffffffffffffffff1614610436576040517f08c379a000000000000000000000000000000000000000000000000000000000815260040161042d906106dc565b60405180910390fd5b6104408383610445565b505050565b60015f808473ffffffffffffffffffffffffffffffffffffffff1673ffffffffffffffffffffffffffffffffffffffff1681526020019081526020015f205f8373ffffffffffffffffffffffffffffffffffffffff1673ffffffffffffffffffffffffffffffffffffffff1681526020019081526020015f205f6101000a81548160ff0219169083151502179055505050565b5f808373ffffffffffffffffffffffffffffffffffffffff1673ffffffffffffffffffffffffffffffffffffffff1681526020019081526020015f205f8273ffffffffffffffffffffffffffffffffffffffff1673ffffffffffffffffffffffffffffffffffffffff1681526020019081526020015f205f6101000a81549060ff02191690555050565b5f80fd5b5f73ffffffffffffffffffffffffffffffffffffffff82169050919050565b5f61058f82610566565b9050919050565b61059f81610585565b81146105a9575f80fd5b50565b5f813590506105ba81610596565b92915050565b5f602082840312156105d5576105d4610562565b5b5f6105e2848285016105ac565b91505092915050565b5f8115159050919050565b6105ff816105eb565b82525050565b5f6020820190506106185f8301846105f6565b92915050565b5f806040838503121561063457610633610562565b5b5f610641858286016105ac565b9250506020610652858286016105ac565b9150509250929050565b5f82825260208201905092915050565b7f4f6e6c79207468652070617469656e742063616e20706572666f726d207468695f8201527f7320616374696f6e000000000000000000000000000000000000000000000000602082015250565b5f6106c660288361065c565b91506106d18261066c565b604082019050919050565b5f6020820190508181035f8301526106f3816106ba565b905091905056fea26469706673582212205db7a2f2c840191921553974d310b38117b35d71cb7ffaa9fabd727e9f36986e64736f6c63430008150033",
  "immutableReferences": {},
  "source": "// SPDX-License-Identifier: MIT\npragma solidity ^0.8.0;\n\ncontract AccessControl {\n    mapping(address => mapping(address => bool)) private providerPermissions;\n\n    modifier onlyPatient(address _patient) {\n        require(msg.sender == _patient, \"Only the patient can perform this action\");\n        _;\n    }\n\n    modifier onlyProviderOrPatient(address _patient) {\n        require(msg.sender == _patient || providerPermissions[_patient][msg.sender], \"No read permission\");\n        _;\n    }\n\n    modifier onlyProvider(address _provider, address _patient) {\n        require(providerPermissions[_patient][_provider], \"Only authorized healthcare providers can perform this action\");\n        _;\n    }\n\n    modifier canRead(address _patient) {\n        require(msg.sender == _patient || providerPermissions[_patient][msg.sender], \"No read permission\");\n        _;\n    }\n\n    modifier canAdd(address _patient) {\n        require(providerPermissions[_patient][msg.sender], \"No add permission\");\n        _;\n    }\n\n    function grantPermission(address _patient, address _provider) internal {\n        providerPermissions[_patient][_provider] = true;\n    }\n\n    function revokePermission(address _patient, address _provider) internal {\n        delete providerPermissions[_patient][_provider];\n    }\n\n    function grantReadAccess(address _patient, address _provider) public onlyPatient(_patient) {\n        grantPermission(_patient, _provider);\n    }\n\n    function revokeReadAccess(address _patient, address _provider) public onlyPatient(_patient) {\n        revokePermission(_patient, _provider);\n    }\n\n    function grantUpdateAccess(address _patient, address _provider) public onlyPatient(_patient) {\n    grantPermission(_patient, _provider);\n    }\n\n    function revokeUpdateAccess(address _patient, address _provider) public onlyPatient(_patient){\n        revokePermission(_patient, _provider);\n    }\n\n    function hasReadPermission(address _patient, address _provider) public view returns (bool) {\n    return providerPermissions[_patient][_provider];\n    }\n\n    function hasAddPermission(address _patient) public view returns (bool) {\n    return providerPermissions[_patient][msg.sender];\n    }\n\n\n\n\n\n}\n",
  "sourcePath": "/Users/maauri/Projects/MediChain/contracts/AccessControl.sol",
  "compiler": {
    "name": "solc",
    "version": "0.8.21+commit.d9974bed.Emscripten.clang"
  },
  "schemaVersion": "3.4.16",
  "updatedAt": "2024-06-16T23:05:40.954Z",
  "networkType": "ethereum",
  "devdoc": {
    "kind": "dev",
    "methods": {},
    "version": 1
  },
  "userdoc": {
    "kind": "user",
    "methods": {},
    "version": 1
  }
}