{
  "contractName": "Allergies",
  "abi": [
    {
      "anonymous": false,
      "inputs": [
        {
          "indexed": true,
          "internalType": "address",
          "name": "providerAddress",
          "type": "address"
        },
        {
          "indexed": true,
          "internalType": "address",
          "name": "patientAddress",
          "type": "address"
        },
        {
          "indexed": false,
          "internalType": "string",
          "name": "allergy",
          "type": "string"
        }
      ],
      "name": "AllergyAdded",
      "type": "event"
    },
    {
      "inputs": [
        {
          "internalType": "address",
          "name": "_patient",
          "type": "address"
        },
        {
          "internalType": "address",
          "name": "_provider",
          "type": "address"
        }
      ],
      "name": "grantReadAccess",
      "outputs": [],
      "stateMutability": "nonpayable",
      "type": "function"
    },
    {
      "inputs": [
        {
          "internalType": "address",
          "name": "_patient",
          "type": "address"
        },
        {
          "internalType": "address",
          "name": "_provider",
          "type": "address"
        }
      ],
      "name": "grantUpdateAccess",
      "outputs": [],
      "stateMutability": "nonpayable",
      "type": "function"
    },
    {
      "inputs": [
        {
          "internalType": "address",
          "name": "_patient",
          "type": "address"
        }
      ],
      "name": "hasAddPermission",
      "outputs": [
        {
          "internalType": "bool",
          "name": "",
          "type": "bool"
        }
      ],
      "stateMutability": "view",
      "type": "function",
      "constant": true
    },
    {
      "inputs": [
        {
          "internalType": "address",
          "name": "_patient",
          "type": "address"
        },
        {
          "internalType": "address",
          "name": "_provider",
          "type": "address"
        }
      ],
      "name": "hasReadPermission",
      "outputs": [
        {
          "internalType": "bool",
          "name": "",
          "type": "bool"
        }
      ],
      "stateMutability": "view",
      "type": "function",
      "constant": true
    },
    {
      "inputs": [
        {
          "internalType": "address",
          "name": "_patient",
          "type": "address"
        },
        {
          "internalType": "address",
          "name": "_provider",
          "type": "address"
        }
      ],
      "name": "revokeReadAccess",
      "outputs": [],
      "stateMutability": "nonpayable",
      "type": "function"
    },
    {
      "inputs": [
        {
          "internalType": "address",
          "name": "_patient",
          "type": "address"
        },
        {
          "internalType": "address",
          "name": "_provider",
          "type": "address"
        }
      ],
      "name": "revokeUpdateAccess",
      "outputs": [],
      "stateMutability": "nonpayable",
      "type": "function"
    },
    {
      "inputs": [
        {
          "internalType": "address",
          "name": "_patient",
          "type": "address"
        },
        {
          "internalType": "string",
          "name": "_allergy",
          "type": "string"
        }
      ],
      "name": "addAllergy",
      "outputs": [],
      "stateMutability": "nonpayable",
      "type": "function"
    },
    {
      "inputs": [
        {
          "internalType": "address",
          "name": "_patientAddress",
          "type": "address"
        }
      ],
      "name": "getAllergies",
      "outputs": [
        {
          "components": [
            {
              "internalType": "string",
              "name": "allergy",
              "type": "string"
            }
          ],
          "internalType": "struct Allergies.Allergy[]",
          "name": "",
          "type": "tuple[]"
        }
      ],
      "stateMutability": "view",
      "type": "function",
      "constant": true
    }
  ],
  "bytecode": "0x608060405234801561001057600080fd5b50611337806100206000396000f3fe608060405234801561001057600080fd5b50600436106100885760003560e01c806366ed55a51161005b57806366ed55a5146101255780636aea790d1461014157806390666f041461015d578063ca80024d1461018d57610088565b806318c212841461008d578063272acd7f146100a957806356096536146100d95780636448965a146100f5575b600080fd5b6100a760048036038101906100a29190610b91565b6101a9565b005b6100c360048036038101906100be9190610bed565b610369565b6040516100d09190610c35565b60405180910390f35b6100f360048036038101906100ee9190610c50565b6103fb565b005b61010f600480360381019061010a9190610c50565b610479565b60405161011c9190610c35565b60405180910390f35b61013f600480360381019061013a9190610c50565b61050c565b005b61015b60048036038101906101569190610c50565b61058a565b005b61017760048036038101906101729190610bed565b610608565b6040516101849190610dfb565b60405180910390f35b6101a760048036038101906101a29190610c50565b610834565b005b33826000808273ffffffffffffffffffffffffffffffffffffffff1673ffffffffffffffffffffffffffffffffffffffff16815260200190815260200160002060008373ffffffffffffffffffffffffffffffffffffffff1673ffffffffffffffffffffffffffffffffffffffff16815260200190815260200160002060009054906101000a900460ff16610273576040517f08c379a000000000000000000000000000000000000000000000000000000000815260040161026a90610ea0565b60405180910390fd5b600160008573ffffffffffffffffffffffffffffffffffffffff1673ffffffffffffffffffffffffffffffffffffffff1681526020019081526020016000206040518060200160405280858152509080600181540180825580915050600190039060005260206000200160009091909190915060008201518160000190816102fb91906110d6565b5050508373ffffffffffffffffffffffffffffffffffffffff163373ffffffffffffffffffffffffffffffffffffffff167fc82bb76343c55aef24da1a7c5bbb52dd2768486cd557e4d87eb8a3c1b85ef9d68560405161035b91906111e1565b60405180910390a350505050565b60008060008373ffffffffffffffffffffffffffffffffffffffff1673ffffffffffffffffffffffffffffffffffffffff16815260200190815260200160002060003373ffffffffffffffffffffffffffffffffffffffff1673ffffffffffffffffffffffffffffffffffffffff16815260200190815260200160002060009054906101000a900460ff169050919050565b818073ffffffffffffffffffffffffffffffffffffffff163373ffffffffffffffffffffffffffffffffffffffff161461046a576040517f08c379a000000000000000000000000000000000000000000000000000000000815260040161046190611275565b60405180910390fd5b61047483836108b2565b505050565b60008060008473ffffffffffffffffffffffffffffffffffffffff1673ffffffffffffffffffffffffffffffffffffffff16815260200190815260200160002060008373ffffffffffffffffffffffffffffffffffffffff1673ffffffffffffffffffffffffffffffffffffffff16815260200190815260200160002060009054906101000a900460ff16905092915050565b818073ffffffffffffffffffffffffffffffffffffffff163373ffffffffffffffffffffffffffffffffffffffff161461057b576040517f08c379a000000000000000000000000000000000000000000000000000000000815260040161057290611275565b60405180910390fd5b610585838361094a565b505050565b818073ffffffffffffffffffffffffffffffffffffffff163373ffffffffffffffffffffffffffffffffffffffff16146105f9576040517f08c379a00000000000000000000000000000000000000000000000000000000081526004016105f090611275565b60405180910390fd5b610603838361094a565b505050565b6060818073ffffffffffffffffffffffffffffffffffffffff163373ffffffffffffffffffffffffffffffffffffffff1614806106ca57506000808273ffffffffffffffffffffffffffffffffffffffff1673ffffffffffffffffffffffffffffffffffffffff16815260200190815260200160002060003373ffffffffffffffffffffffffffffffffffffffff1673ffffffffffffffffffffffffffffffffffffffff16815260200190815260200160002060009054906101000a900460ff165b610709576040517f08c379a0000000000000000000000000000000000000000000000000000000008152600401610700906112e1565b60405180910390fd5b600160008473ffffffffffffffffffffffffffffffffffffffff1673ffffffffffffffffffffffffffffffffffffffff168152602001908152602001600020805480602002602001604051908101604052809291908181526020016000905b828210156108285783829060005260206000200160405180602001604052908160008201805461079790610eef565b80601f01602080910402602001604051908101604052809291908181526020018280546107c390610eef565b80156108105780601f106107e557610100808354040283529160200191610810565b820191906000526020600020905b8154815290600101906020018083116107f357829003601f168201915b50505050508152505081526020019060010190610768565b50505050915050919050565b818073ffffffffffffffffffffffffffffffffffffffff163373ffffffffffffffffffffffffffffffffffffffff16146108a3576040517f08c379a000000000000000000000000000000000000000000000000000000000815260040161089a90611275565b60405180910390fd5b6108ad83836108b2565b505050565b60016000808473ffffffffffffffffffffffffffffffffffffffff1673ffffffffffffffffffffffffffffffffffffffff16815260200190815260200160002060008373ffffffffffffffffffffffffffffffffffffffff1673ffffffffffffffffffffffffffffffffffffffff16815260200190815260200160002060006101000a81548160ff0219169083151502179055505050565b6000808373ffffffffffffffffffffffffffffffffffffffff1673ffffffffffffffffffffffffffffffffffffffff16815260200190815260200160002060008273ffffffffffffffffffffffffffffffffffffffff1673ffffffffffffffffffffffffffffffffffffffff16815260200190815260200160002060006101000a81549060ff02191690555050565b6000604051905090565b600080fd5b600080fd5b600073ffffffffffffffffffffffffffffffffffffffff82169050919050565b6000610a18826109ed565b9050919050565b610a2881610a0d565b8114610a3357600080fd5b50565b600081359050610a4581610a1f565b92915050565b600080fd5b600080fd5b6000601f19601f8301169050919050565b7f4e487b7100000000000000000000000000000000000000000000000000000000600052604160045260246000fd5b610a9e82610a55565b810181811067ffffffffffffffff82111715610abd57610abc610a66565b5b80604052505050565b6000610ad06109d9565b9050610adc8282610a95565b919050565b600067ffffffffffffffff821115610afc57610afb610a66565b5b610b0582610a55565b9050602081019050919050565b82818337600083830152505050565b6000610b34610b2f84610ae1565b610ac6565b905082815260208101848484011115610b5057610b4f610a50565b5b610b5b848285610b12565b509392505050565b600082601f830112610b7857610b77610a4b565b5b8135610b88848260208601610b21565b91505092915050565b60008060408385031215610ba857610ba76109e3565b5b6000610bb685828601610a36565b925050602083013567ffffffffffffffff811115610bd757610bd66109e8565b5b610be385828601610b63565b9150509250929050565b600060208284031215610c0357610c026109e3565b5b6000610c1184828501610a36565b91505092915050565b60008115159050919050565b610c2f81610c1a565b82525050565b6000602082019050610c4a6000830184610c26565b92915050565b60008060408385031215610c6757610c666109e3565b5b6000610c7585828601610a36565b9250506020610c8685828601610a36565b9150509250929050565b600081519050919050565b600082825260208201905092915050565b6000819050602082019050919050565b600081519050919050565b600082825260208201905092915050565b60005b83811015610cf6578082015181840152602081019050610cdb565b60008484015250505050565b6000610d0d82610cbc565b610d178185610cc7565b9350610d27818560208601610cd8565b610d3081610a55565b840191505092915050565b60006020830160008301518482036000860152610d588282610d02565b9150508091505092915050565b6000610d718383610d3b565b905092915050565b6000602082019050919050565b6000610d9182610c90565b610d9b8185610c9b565b935083602082028501610dad85610cac565b8060005b85811015610de95784840389528151610dca8582610d65565b9450610dd583610d79565b925060208a01995050600181019050610db1565b50829750879550505050505092915050565b60006020820190508181036000830152610e158184610d86565b905092915050565b600082825260208201905092915050565b7f4f6e6c7920617574686f72697a6564206865616c7468636172652070726f766960008201527f646572732063616e20706572666f726d207468697320616374696f6e00000000602082015250565b6000610e8a603c83610e1d565b9150610e9582610e2e565b604082019050919050565b60006020820190508181036000830152610eb981610e7d565b9050919050565b7f4e487b7100000000000000000000000000000000000000000000000000000000600052602260045260246000fd5b60006002820490506001821680610f0757607f821691505b602082108103610f1a57610f19610ec0565b5b50919050565b60008190508160005260206000209050919050565b60006020601f8301049050919050565b600082821b905092915050565b600060088302610f827fffffffffffffffffffffffffffffffffffffffffffffffffffffffffffffffff82610f45565b610f8c8683610f45565b95508019841693508086168417925050509392505050565b6000819050919050565b6000819050919050565b6000610fd3610fce610fc984610fa4565b610fae565b610fa4565b9050919050565b6000819050919050565b610fed83610fb8565b611001610ff982610fda565b848454610f52565b825550505050565b600090565b611016611009565b611021818484610fe4565b505050565b5b818110156110455761103a60008261100e565b600181019050611027565b5050565b601f82111561108a5761105b81610f20565b61106484610f35565b81016020851015611073578190505b61108761107f85610f35565b830182611026565b50505b505050565b600082821c905092915050565b60006110ad6000198460080261108f565b1980831691505092915050565b60006110c6838361109c565b9150826002028217905092915050565b6110df82610cbc565b67ffffffffffffffff8111156110f8576110f7610a66565b5b6111028254610eef565b61110d828285611049565b600060209050601f831160018114611140576000841561112e578287015190505b61113885826110ba565b8655506111a0565b601f19841661114e86610f20565b60005b8281101561117657848901518255600182019150602085019450602081019050611151565b86831015611193578489015161118f601f89168261109c565b8355505b6001600288020188555050505b505050505050565b60006111b382610cbc565b6111bd8185610e1d565b93506111cd818560208601610cd8565b6111d681610a55565b840191505092915050565b600060208201905081810360008301526111fb81846111a8565b905092915050565b7f4f6e6c79207468652070617469656e742063616e20706572666f726d2074686960008201527f7320616374696f6e000000000000000000000000000000000000000000000000602082015250565b600061125f602883610e1d565b915061126a82611203565b604082019050919050565b6000602082019050818103600083015261128e81611252565b9050919050565b7f4e6f2072656164207065726d697373696f6e0000000000000000000000000000600082015250565b60006112cb601283610e1d565b91506112d682611295565b602082019050919050565b600060208201905081810360008301526112fa816112be565b905091905056fea2646970667358221220a2050cfbece76cc5e5e156bc135fe85b2b35a15cefbf4ebf6652e371fc56f3a864736f6c63430008130033",
  "immutableReferences": {},
  "source": "// SPDX-License-Identifier: MIT\npragma solidity 0.8.19;\nimport \"./AccessControl.sol\";\n\ncontract Allergies is AccessControl{\n    struct Allergy{\n        string allergy;\n    }\n\n    mapping(address => Allergy[]) private allergies;\n\n    event AllergyAdded(address indexed providerAddress, address indexed patientAddress, string allergy);\n\n    function addAllergy(address _patient,string memory _allergy) public onlyProvider(msg.sender, _patient){\n        allergies[_patient].push(Allergy(_allergy));\n        emit AllergyAdded(msg.sender, _patient, _allergy);\n    }\n\n    function getAllergies(address _patientAddress) public view onlyProviderOrPatient(_patientAddress) returns (Allergy[] memory){\n        return allergies[_patientAddress];\n    }\n}",
  "sourcePath": "/Users/ishanpathak/Desktop/Summer Projects/MediChain/contracts/Allergies.sol",
  "compiler": {
    "name": "solc",
    "version": "0.8.19+commit.7dd6d404.Emscripten.clang"
  },
  "schemaVersion": "3.4.16",
  "updatedAt": "2024-06-22T23:20:54.041Z",
  "networkType": "ethereum",
  "devdoc": {
    "kind": "dev",
    "methods": {},
    "version": 1
  },
  "userdoc": {
    "kind": "user",
    "methods": {},
    "version": 1
  }
}