{
  "contractName": "Allergies",
  "abi": [
    {
      "anonymous": false,
      "inputs": [
        {
          "indexed": true,
          "internalType": "address",
          "name": "providerAddress",
          "type": "address"
        },
        {
          "indexed": true,
          "internalType": "address",
          "name": "patientAddress",
          "type": "address"
        },
        {
          "indexed": false,
          "internalType": "string",
          "name": "allergy",
          "type": "string"
        }
      ],
      "name": "AllergyAdded",
      "type": "event"
    },
    {
      "inputs": [
        {
          "internalType": "address",
          "name": "_patient",
          "type": "address"
        },
        {
          "internalType": "address",
          "name": "_provider",
          "type": "address"
        }
      ],
      "name": "grantReadAccess",
      "outputs": [],
      "stateMutability": "nonpayable",
      "type": "function"
    },
    {
      "inputs": [
        {
          "internalType": "address",
          "name": "_patient",
          "type": "address"
        },
        {
          "internalType": "address",
          "name": "_provider",
          "type": "address"
        }
      ],
      "name": "grantUpdateAccess",
      "outputs": [],
      "stateMutability": "nonpayable",
      "type": "function"
    },
    {
      "inputs": [
        {
          "internalType": "address",
          "name": "_patient",
          "type": "address"
        }
      ],
      "name": "hasAddPermission",
      "outputs": [
        {
          "internalType": "bool",
          "name": "",
          "type": "bool"
        }
      ],
      "stateMutability": "view",
      "type": "function",
      "constant": true
    },
    {
      "inputs": [
        {
          "internalType": "address",
          "name": "_patient",
          "type": "address"
        },
        {
          "internalType": "address",
          "name": "_provider",
          "type": "address"
        }
      ],
      "name": "hasReadPermission",
      "outputs": [
        {
          "internalType": "bool",
          "name": "",
          "type": "bool"
        }
      ],
      "stateMutability": "view",
      "type": "function",
      "constant": true
    },
    {
      "inputs": [
        {
          "internalType": "address",
          "name": "_patient",
          "type": "address"
        },
        {
          "internalType": "address",
          "name": "_provider",
          "type": "address"
        }
      ],
      "name": "revokeReadAccess",
      "outputs": [],
      "stateMutability": "nonpayable",
      "type": "function"
    },
    {
      "inputs": [
        {
          "internalType": "address",
          "name": "_patient",
          "type": "address"
        },
        {
          "internalType": "address",
          "name": "_provider",
          "type": "address"
        }
      ],
      "name": "revokeUpdateAccess",
      "outputs": [],
      "stateMutability": "nonpayable",
      "type": "function"
    },
    {
      "inputs": [
        {
          "internalType": "address",
          "name": "_patient",
          "type": "address"
        },
        {
          "internalType": "string",
          "name": "_allergy",
          "type": "string"
        }
      ],
      "name": "addAllergy",
      "outputs": [],
      "stateMutability": "nonpayable",
      "type": "function"
    },
    {
      "inputs": [
        {
          "internalType": "address",
          "name": "_patientAddress",
          "type": "address"
        }
      ],
      "name": "getAllergies",
      "outputs": [
        {
          "components": [
            {
              "internalType": "string",
              "name": "allergy",
              "type": "string"
            }
          ],
          "internalType": "struct Allergies.Allergy[]",
          "name": "",
          "type": "tuple[]"
        }
      ],
      "stateMutability": "view",
      "type": "function",
      "constant": true
    }
  ],
  "bytecode": "0x608060405234801561001057600080fd5b50611429806100206000396000f3fe608060405234801561001057600080fd5b50600436106100885760003560e01c806366ed55a51161005b57806366ed55a5146101255780636aea790d1461014157806390666f041461015d578063ca80024d1461018d57610088565b806318c212841461008d578063272acd7f146100a957806356096536146100d95780636448965a146100f5575b600080fd5b6100a760048036038101906100a29190610c83565b6101a9565b005b6100c360048036038101906100be9190610cdf565b61036a565b6040516100d09190610d27565b60405180910390f35b6100f360048036038101906100ee9190610d42565b6103fd565b005b61010f600480360381019061010a9190610d42565b610505565b60405161011c9190610d27565b60405180910390f35b61013f600480360381019061013a9190610d42565b610598565b005b61015b60048036038101906101569190610d42565b610697565b005b61017760048036038101906101729190610cdf565b610797565b6040516101849190610eed565b60405180910390f35b6101a760048036038101906101a29190610d42565b6109c3565b005b3382600160008273ffffffffffffffffffffffffffffffffffffffff1673ffffffffffffffffffffffffffffffffffffffff16815260200190815260200160002060008373ffffffffffffffffffffffffffffffffffffffff1673ffffffffffffffffffffffffffffffffffffffff16815260200190815260200160002060009054906101000a900460ff16610274576040517f08c379a000000000000000000000000000000000000000000000000000000000815260040161026b90610f92565b60405180910390fd5b600260008573ffffffffffffffffffffffffffffffffffffffff1673ffffffffffffffffffffffffffffffffffffffff1681526020019081526020016000206040518060200160405280858152509080600181540180825580915050600190039060005260206000200160009091909190915060008201518160000190816102fc91906111c8565b5050508373ffffffffffffffffffffffffffffffffffffffff163373ffffffffffffffffffffffffffffffffffffffff167fc82bb76343c55aef24da1a7c5bbb52dd2768486cd557e4d87eb8a3c1b85ef9d68560405161035c91906112d3565b60405180910390a350505050565b6000600160008373ffffffffffffffffffffffffffffffffffffffff1673ffffffffffffffffffffffffffffffffffffffff16815260200190815260200160002060003373ffffffffffffffffffffffffffffffffffffffff1673ffffffffffffffffffffffffffffffffffffffff16815260200190815260200160002060009054906101000a900460ff169050919050565b818073ffffffffffffffffffffffffffffffffffffffff163373ffffffffffffffffffffffffffffffffffffffff161461046c576040517f08c379a000000000000000000000000000000000000000000000000000000000815260040161046390611367565b60405180910390fd5b60018060008573ffffffffffffffffffffffffffffffffffffffff1673ffffffffffffffffffffffffffffffffffffffff16815260200190815260200160002060008473ffffffffffffffffffffffffffffffffffffffff1673ffffffffffffffffffffffffffffffffffffffff16815260200190815260200160002060006101000a81548160ff021916908315150217905550505050565b60008060008473ffffffffffffffffffffffffffffffffffffffff1673ffffffffffffffffffffffffffffffffffffffff16815260200190815260200160002060008373ffffffffffffffffffffffffffffffffffffffff1673ffffffffffffffffffffffffffffffffffffffff16815260200190815260200160002060009054906101000a900460ff16905092915050565b818073ffffffffffffffffffffffffffffffffffffffff163373ffffffffffffffffffffffffffffffffffffffff1614610607576040517f08c379a00000000000000000000000000000000000000000000000000000000081526004016105fe90611367565b60405180910390fd5b6000808473ffffffffffffffffffffffffffffffffffffffff1673ffffffffffffffffffffffffffffffffffffffff16815260200190815260200160002060008373ffffffffffffffffffffffffffffffffffffffff1673ffffffffffffffffffffffffffffffffffffffff16815260200190815260200160002060006101000a81549060ff0219169055505050565b818073ffffffffffffffffffffffffffffffffffffffff163373ffffffffffffffffffffffffffffffffffffffff1614610706576040517f08c379a00000000000000000000000000000000000000000000000000000000081526004016106fd90611367565b60405180910390fd5b600160008473ffffffffffffffffffffffffffffffffffffffff1673ffffffffffffffffffffffffffffffffffffffff16815260200190815260200160002060008373ffffffffffffffffffffffffffffffffffffffff1673ffffffffffffffffffffffffffffffffffffffff16815260200190815260200160002060006101000a81549060ff0219169055505050565b6060818073ffffffffffffffffffffffffffffffffffffffff163373ffffffffffffffffffffffffffffffffffffffff16148061085957506000808273ffffffffffffffffffffffffffffffffffffffff1673ffffffffffffffffffffffffffffffffffffffff16815260200190815260200160002060003373ffffffffffffffffffffffffffffffffffffffff1673ffffffffffffffffffffffffffffffffffffffff16815260200190815260200160002060009054906101000a900460ff165b610898576040517f08c379a000000000000000000000000000000000000000000000000000000000815260040161088f906113d3565b60405180910390fd5b600260008473ffffffffffffffffffffffffffffffffffffffff1673ffffffffffffffffffffffffffffffffffffffff168152602001908152602001600020805480602002602001604051908101604052809291908181526020016000905b828210156109b75783829060005260206000200160405180602001604052908160008201805461092690610fe1565b80601f016020809104026020016040519081016040528092919081815260200182805461095290610fe1565b801561099f5780601f106109745761010080835404028352916020019161099f565b820191906000526020600020905b81548152906001019060200180831161098257829003601f168201915b505050505081525050815260200190600101906108f7565b50505050915050919050565b818073ffffffffffffffffffffffffffffffffffffffff163373ffffffffffffffffffffffffffffffffffffffff1614610a32576040517f08c379a0000000000000000000000000000000000000000000000000000000008152600401610a2990611367565b60405180910390fd5b60016000808573ffffffffffffffffffffffffffffffffffffffff1673ffffffffffffffffffffffffffffffffffffffff16815260200190815260200160002060008473ffffffffffffffffffffffffffffffffffffffff1673ffffffffffffffffffffffffffffffffffffffff16815260200190815260200160002060006101000a81548160ff021916908315150217905550505050565b6000604051905090565b600080fd5b600080fd5b600073ffffffffffffffffffffffffffffffffffffffff82169050919050565b6000610b0a82610adf565b9050919050565b610b1a81610aff565b8114610b2557600080fd5b50565b600081359050610b3781610b11565b92915050565b600080fd5b600080fd5b6000601f19601f8301169050919050565b7f4e487b7100000000000000000000000000000000000000000000000000000000600052604160045260246000fd5b610b9082610b47565b810181811067ffffffffffffffff82111715610baf57610bae610b58565b5b80604052505050565b6000610bc2610acb565b9050610bce8282610b87565b919050565b600067ffffffffffffffff821115610bee57610bed610b58565b5b610bf782610b47565b9050602081019050919050565b82818337600083830152505050565b6000610c26610c2184610bd3565b610bb8565b905082815260208101848484011115610c4257610c41610b42565b5b610c4d848285610c04565b509392505050565b600082601f830112610c6a57610c69610b3d565b5b8135610c7a848260208601610c13565b91505092915050565b60008060408385031215610c9a57610c99610ad5565b5b6000610ca885828601610b28565b925050602083013567ffffffffffffffff811115610cc957610cc8610ada565b5b610cd585828601610c55565b9150509250929050565b600060208284031215610cf557610cf4610ad5565b5b6000610d0384828501610b28565b91505092915050565b60008115159050919050565b610d2181610d0c565b82525050565b6000602082019050610d3c6000830184610d18565b92915050565b60008060408385031215610d5957610d58610ad5565b5b6000610d6785828601610b28565b9250506020610d7885828601610b28565b9150509250929050565b600081519050919050565b600082825260208201905092915050565b6000819050602082019050919050565b600081519050919050565b600082825260208201905092915050565b60005b83811015610de8578082015181840152602081019050610dcd565b60008484015250505050565b6000610dff82610dae565b610e098185610db9565b9350610e19818560208601610dca565b610e2281610b47565b840191505092915050565b60006020830160008301518482036000860152610e4a8282610df4565b9150508091505092915050565b6000610e638383610e2d565b905092915050565b6000602082019050919050565b6000610e8382610d82565b610e8d8185610d8d565b935083602082028501610e9f85610d9e565b8060005b85811015610edb5784840389528151610ebc8582610e57565b9450610ec783610e6b565b925060208a01995050600181019050610ea3565b50829750879550505050505092915050565b60006020820190508181036000830152610f078184610e78565b905092915050565b600082825260208201905092915050565b7f4f6e6c7920617574686f72697a6564206865616c7468636172652070726f766960008201527f646572732063616e20706572666f726d207468697320616374696f6e00000000602082015250565b6000610f7c603c83610f0f565b9150610f8782610f20565b604082019050919050565b60006020820190508181036000830152610fab81610f6f565b9050919050565b7f4e487b7100000000000000000000000000000000000000000000000000000000600052602260045260246000fd5b60006002820490506001821680610ff957607f821691505b60208210810361100c5761100b610fb2565b5b50919050565b60008190508160005260206000209050919050565b60006020601f8301049050919050565b600082821b905092915050565b6000600883026110747fffffffffffffffffffffffffffffffffffffffffffffffffffffffffffffffff82611037565b61107e8683611037565b95508019841693508086168417925050509392505050565b6000819050919050565b6000819050919050565b60006110c56110c06110bb84611096565b6110a0565b611096565b9050919050565b6000819050919050565b6110df836110aa565b6110f36110eb826110cc565b848454611044565b825550505050565b600090565b6111086110fb565b6111138184846110d6565b505050565b5b818110156111375761112c600082611100565b600181019050611119565b5050565b601f82111561117c5761114d81611012565b61115684611027565b81016020851015611165578190505b61117961117185611027565b830182611118565b50505b505050565b600082821c905092915050565b600061119f60001984600802611181565b1980831691505092915050565b60006111b8838361118e565b9150826002028217905092915050565b6111d182610dae565b67ffffffffffffffff8111156111ea576111e9610b58565b5b6111f48254610fe1565b6111ff82828561113b565b600060209050601f8311600181146112325760008415611220578287015190505b61122a85826111ac565b865550611292565b601f19841661124086611012565b60005b8281101561126857848901518255600182019150602085019450602081019050611243565b868310156112855784890151611281601f89168261118e565b8355505b6001600288020188555050505b505050505050565b60006112a582610dae565b6112af8185610f0f565b93506112bf818560208601610dca565b6112c881610b47565b840191505092915050565b600060208201905081810360008301526112ed818461129a565b905092915050565b7f4f6e6c79207468652070617469656e742063616e20706572666f726d2074686960008201527f7320616374696f6e000000000000000000000000000000000000000000000000602082015250565b6000611351602883610f0f565b915061135c826112f5565b604082019050919050565b6000602082019050818103600083015261138081611344565b9050919050565b7f4e6f2072656164207065726d697373696f6e0000000000000000000000000000600082015250565b60006113bd601283610f0f565b91506113c882611387565b602082019050919050565b600060208201905081810360008301526113ec816113b0565b905091905056fea26469706673582212203e8abad580efc8bdc18662521ee7d7f22800408716e428ffc9da8a660ac8e91564736f6c63430008130033",
  "immutableReferences": {},
  "source": "// SPDX-License-Identifier: MIT\npragma solidity 0.8.19;\nimport \"./AccessControl.sol\";\n\ncontract Allergies is AccessControl{\n    struct Allergy{\n        string allergy;\n    }\n\n    mapping(address => Allergy[]) private allergies;\n\n    event AllergyAdded(address indexed providerAddress, address indexed patientAddress, string allergy);\n\n    function addAllergy(address _patient,string memory _allergy) public write(msg.sender, _patient){\n        allergies[_patient].push(Allergy(_allergy));\n        emit AllergyAdded(msg.sender, _patient, _allergy);\n    }\n\n    function getAllergies(address _patientAddress) public view readOnly(_patientAddress) returns (Allergy[] memory){\n        return allergies[_patientAddress];\n    }\n}",
  "sourcePath": "/Users/maauri/Projects/MediChain/contracts/Allergies.sol",
  "compiler": {
    "name": "solc",
    "version": "0.8.19+commit.7dd6d404.Emscripten.clang"
  },
  "schemaVersion": "3.4.16",
  "updatedAt": "2024-07-12T18:14:56.024Z",
  "networkType": "ethereum",
  "devdoc": {
    "kind": "dev",
    "methods": {},
    "version": 1
  },
  "userdoc": {
    "kind": "user",
    "methods": {},
    "version": 1
  }
}