{
  "contractName": "Demographics",
  "abi": [
    {
      "anonymous": false,
      "inputs": [
        {
          "indexed": true,
          "internalType": "address",
          "name": "providerAddress",
          "type": "address"
        },
        {
          "indexed": true,
          "internalType": "address",
          "name": "patientAddress",
          "type": "address"
        }
      ],
      "name": "DemographicsUpdated",
      "type": "event"
    },
    {
      "inputs": [
        {
          "internalType": "address",
          "name": "_patient",
          "type": "address"
        },
        {
          "internalType": "address",
          "name": "_provider",
          "type": "address"
        }
      ],
      "name": "grantReadAccess",
      "outputs": [],
      "stateMutability": "nonpayable",
      "type": "function"
    },
    {
      "inputs": [
        {
          "internalType": "address",
          "name": "_patient",
          "type": "address"
        },
        {
          "internalType": "address",
          "name": "_provider",
          "type": "address"
        }
      ],
      "name": "grantUpdateAccess",
      "outputs": [],
      "stateMutability": "nonpayable",
      "type": "function"
    },
    {
      "inputs": [
        {
          "internalType": "address",
          "name": "_patient",
          "type": "address"
        }
      ],
      "name": "hasAddPermission",
      "outputs": [
        {
          "internalType": "bool",
          "name": "",
          "type": "bool"
        }
      ],
      "stateMutability": "view",
      "type": "function",
      "constant": true
    },
    {
      "inputs": [
        {
          "internalType": "address",
          "name": "_patient",
          "type": "address"
        },
        {
          "internalType": "address",
          "name": "_provider",
          "type": "address"
        }
      ],
      "name": "hasReadPermission",
      "outputs": [
        {
          "internalType": "bool",
          "name": "",
          "type": "bool"
        }
      ],
      "stateMutability": "view",
      "type": "function",
      "constant": true
    },
    {
      "inputs": [
        {
          "internalType": "address",
          "name": "_patient",
          "type": "address"
        },
        {
          "internalType": "address",
          "name": "_provider",
          "type": "address"
        }
      ],
      "name": "revokeReadAccess",
      "outputs": [],
      "stateMutability": "nonpayable",
      "type": "function"
    },
    {
      "inputs": [
        {
          "internalType": "address",
          "name": "_patient",
          "type": "address"
        },
        {
          "internalType": "address",
          "name": "_provider",
          "type": "address"
        }
      ],
      "name": "revokeUpdateAccess",
      "outputs": [],
      "stateMutability": "nonpayable",
      "type": "function"
    },
    {
      "inputs": [
        {
          "internalType": "address",
          "name": "_patient",
          "type": "address"
        },
        {
          "internalType": "string",
          "name": "_name",
          "type": "string"
        },
        {
          "internalType": "string",
          "name": "_dateOfBirth",
          "type": "string"
        },
        {
          "internalType": "string",
          "name": "_gender",
          "type": "string"
        },
        {
          "internalType": "string",
          "name": "_homeAddress",
          "type": "string"
        }
      ],
      "name": "setDemographics",
      "outputs": [],
      "stateMutability": "nonpayable",
      "type": "function"
    },
    {
      "inputs": [
        {
          "internalType": "address",
          "name": "_patientAddress",
          "type": "address"
        }
      ],
      "name": "getDemographics",
      "outputs": [
        {
          "internalType": "string",
          "name": "",
          "type": "string"
        },
        {
          "internalType": "string",
          "name": "",
          "type": "string"
        },
        {
          "internalType": "string",
          "name": "",
          "type": "string"
        },
        {
          "internalType": "string",
          "name": "",
          "type": "string"
        }
      ],
      "stateMutability": "view",
      "type": "function",
      "constant": true
    }
  ],
  "bytecode": "0x608060405234801561000f575f80fd5b506113f38061001d5f395ff3fe608060405234801561000f575f80fd5b5060043610610086575f3560e01c806366ed55a51161005957806366ed55a5146101225780636aea790d1461013e578063baf516c11461015a578063ca80024d1461018d57610086565b8063272acd7f1461008a57806356096536146100ba57806361854043146100d65780636448965a146100f2575b5f80fd5b6100a4600480360381019061009f9190610bcf565b6101a9565b6040516100b19190610c14565b60405180910390f35b6100d460048036038101906100cf9190610c2d565b610235565b005b6100f060048036038101906100eb9190610da7565b6102b3565b005b61010c60048036038101906101079190610c2d565b610492565b6040516101199190610c14565b60405180910390f35b61013c60048036038101906101379190610c2d565b61051f565b005b61015860048036038101906101539190610c2d565b61059d565b005b610174600480360381019061016f9190610bcf565b61061b565b6040516101849493929190610f08565b60405180910390f35b6101a760048036038101906101a29190610c2d565b6109c9565b005b5f805f8373ffffffffffffffffffffffffffffffffffffffff1673ffffffffffffffffffffffffffffffffffffffff1681526020019081526020015f205f3373ffffffffffffffffffffffffffffffffffffffff1673ffffffffffffffffffffffffffffffffffffffff1681526020019081526020015f205f9054906101000a900460ff169050919050565b818073ffffffffffffffffffffffffffffffffffffffff163373ffffffffffffffffffffffffffffffffffffffff16146102a4576040517f08c379a000000000000000000000000000000000000000000000000000000000815260040161029b90610fd7565b60405180910390fd5b6102ae8383610a47565b505050565b33855f808273ffffffffffffffffffffffffffffffffffffffff1673ffffffffffffffffffffffffffffffffffffffff1681526020019081526020015f205f8373ffffffffffffffffffffffffffffffffffffffff1673ffffffffffffffffffffffffffffffffffffffff1681526020019081526020015f205f9054906101000a900460ff16610378576040517f08c379a000000000000000000000000000000000000000000000000000000000815260040161036f90611065565b60405180910390fd5b60405180608001604052808781526020018681526020018581526020018481525060015f8973ffffffffffffffffffffffffffffffffffffffff1673ffffffffffffffffffffffffffffffffffffffff1681526020019081526020015f205f820151815f0190816103e99190611286565b5060208201518160010190816103ff9190611286565b5060408201518160020190816104159190611286565b50606082015181600301908161042b9190611286565b509050508673ffffffffffffffffffffffffffffffffffffffff163373ffffffffffffffffffffffffffffffffffffffff167fd0a6de516a837d6c4f057290f7b0319c1c284edb39332b7c88738fbf3220256e60405160405180910390a350505050505050565b5f805f8473ffffffffffffffffffffffffffffffffffffffff1673ffffffffffffffffffffffffffffffffffffffff1681526020019081526020015f205f8373ffffffffffffffffffffffffffffffffffffffff1673ffffffffffffffffffffffffffffffffffffffff1681526020019081526020015f205f9054906101000a900460ff16905092915050565b818073ffffffffffffffffffffffffffffffffffffffff163373ffffffffffffffffffffffffffffffffffffffff161461058e576040517f08c379a000000000000000000000000000000000000000000000000000000000815260040161058590610fd7565b60405180910390fd5b6105988383610ada565b505050565b818073ffffffffffffffffffffffffffffffffffffffff163373ffffffffffffffffffffffffffffffffffffffff161461060c576040517f08c379a000000000000000000000000000000000000000000000000000000000815260040161060390610fd7565b60405180910390fd5b6106168383610ada565b505050565b606080606080848073ffffffffffffffffffffffffffffffffffffffff163373ffffffffffffffffffffffffffffffffffffffff1614806106dc57505f808273ffffffffffffffffffffffffffffffffffffffff1673ffffffffffffffffffffffffffffffffffffffff1681526020019081526020015f205f3373ffffffffffffffffffffffffffffffffffffffff1673ffffffffffffffffffffffffffffffffffffffff1681526020019081526020015f205f9054906101000a900460ff165b61071b576040517f08c379a00000000000000000000000000000000000000000000000000000000081526004016107129061139f565b60405180910390fd5b5f60015f8873ffffffffffffffffffffffffffffffffffffffff1673ffffffffffffffffffffffffffffffffffffffff1681526020019081526020015f206040518060800160405290815f82018054610773906110b0565b80601f016020809104026020016040519081016040528092919081815260200182805461079f906110b0565b80156107ea5780601f106107c1576101008083540402835291602001916107ea565b820191905f5260205f20905b8154815290600101906020018083116107cd57829003601f168201915b50505050508152602001600182018054610803906110b0565b80601f016020809104026020016040519081016040528092919081815260200182805461082f906110b0565b801561087a5780601f106108515761010080835404028352916020019161087a565b820191905f5260205f20905b81548152906001019060200180831161085d57829003601f168201915b50505050508152602001600282018054610893906110b0565b80601f01602080910402602001604051908101604052809291908181526020018280546108bf906110b0565b801561090a5780601f106108e15761010080835404028352916020019161090a565b820191905f5260205f20905b8154815290600101906020018083116108ed57829003601f168201915b50505050508152602001600382018054610923906110b0565b80601f016020809104026020016040519081016040528092919081815260200182805461094f906110b0565b801561099a5780601f106109715761010080835404028352916020019161099a565b820191905f5260205f20905b81548152906001019060200180831161097d57829003601f168201915b5050505050815250509050805f0151816020015182604001518360600151955095509550955050509193509193565b818073ffffffffffffffffffffffffffffffffffffffff163373ffffffffffffffffffffffffffffffffffffffff1614610a38576040517f08c379a0000000000000000000000000000000000000000000000000000000008152600401610a2f90610fd7565b60405180910390fd5b610a428383610a47565b505050565b60015f808473ffffffffffffffffffffffffffffffffffffffff1673ffffffffffffffffffffffffffffffffffffffff1681526020019081526020015f205f8373ffffffffffffffffffffffffffffffffffffffff1673ffffffffffffffffffffffffffffffffffffffff1681526020019081526020015f205f6101000a81548160ff0219169083151502179055505050565b5f808373ffffffffffffffffffffffffffffffffffffffff1673ffffffffffffffffffffffffffffffffffffffff1681526020019081526020015f205f8273ffffffffffffffffffffffffffffffffffffffff1673ffffffffffffffffffffffffffffffffffffffff1681526020019081526020015f205f6101000a81549060ff02191690555050565b5f604051905090565b5f80fd5b5f80fd5b5f73ffffffffffffffffffffffffffffffffffffffff82169050919050565b5f610b9e82610b75565b9050919050565b610bae81610b94565b8114610bb8575f80fd5b50565b5f81359050610bc981610ba5565b92915050565b5f60208284031215610be457610be3610b6d565b5b5f610bf184828501610bbb565b91505092915050565b5f8115159050919050565b610c0e81610bfa565b82525050565b5f602082019050610c275f830184610c05565b92915050565b5f8060408385031215610c4357610c42610b6d565b5b5f610c5085828601610bbb565b9250506020610c6185828601610bbb565b9150509250929050565b5f80fd5b5f80fd5b5f601f19601f8301169050919050565b7f4e487b71000000000000000000000000000000000000000000000000000000005f52604160045260245ffd5b610cb982610c73565b810181811067ffffffffffffffff82111715610cd857610cd7610c83565b5b80604052505050565b5f610cea610b64565b9050610cf68282610cb0565b919050565b5f67ffffffffffffffff821115610d1557610d14610c83565b5b610d1e82610c73565b9050602081019050919050565b828183375f83830152505050565b5f610d4b610d4684610cfb565b610ce1565b905082815260208101848484011115610d6757610d66610c6f565b5b610d72848285610d2b565b509392505050565b5f82601f830112610d8e57610d8d610c6b565b5b8135610d9e848260208601610d39565b91505092915050565b5f805f805f60a08688031215610dc057610dbf610b6d565b5b5f610dcd88828901610bbb565b955050602086013567ffffffffffffffff811115610dee57610ded610b71565b5b610dfa88828901610d7a565b945050604086013567ffffffffffffffff811115610e1b57610e1a610b71565b5b610e2788828901610d7a565b935050606086013567ffffffffffffffff811115610e4857610e47610b71565b5b610e5488828901610d7a565b925050608086013567ffffffffffffffff811115610e7557610e74610b71565b5b610e8188828901610d7a565b9150509295509295909350565b5f81519050919050565b5f82825260208201905092915050565b5f5b83811015610ec5578082015181840152602081019050610eaa565b5f8484015250505050565b5f610eda82610e8e565b610ee48185610e98565b9350610ef4818560208601610ea8565b610efd81610c73565b840191505092915050565b5f6080820190508181035f830152610f208187610ed0565b90508181036020830152610f348186610ed0565b90508181036040830152610f488185610ed0565b90508181036060830152610f5c8184610ed0565b905095945050505050565b7f4f6e6c79207468652070617469656e742063616e20706572666f726d207468695f8201527f7320616374696f6e000000000000000000000000000000000000000000000000602082015250565b5f610fc1602883610e98565b9150610fcc82610f67565b604082019050919050565b5f6020820190508181035f830152610fee81610fb5565b9050919050565b7f4f6e6c7920617574686f72697a6564206865616c7468636172652070726f76695f8201527f646572732063616e20706572666f726d207468697320616374696f6e00000000602082015250565b5f61104f603c83610e98565b915061105a82610ff5565b604082019050919050565b5f6020820190508181035f83015261107c81611043565b9050919050565b7f4e487b71000000000000000000000000000000000000000000000000000000005f52602260045260245ffd5b5f60028204905060018216806110c757607f821691505b6020821081036110da576110d9611083565b5b50919050565b5f819050815f5260205f209050919050565b5f6020601f8301049050919050565b5f82821b905092915050565b5f6008830261113c7fffffffffffffffffffffffffffffffffffffffffffffffffffffffffffffffff82611101565b6111468683611101565b95508019841693508086168417925050509392505050565b5f819050919050565b5f819050919050565b5f61118a6111856111808461115e565b611167565b61115e565b9050919050565b5f819050919050565b6111a383611170565b6111b76111af82611191565b84845461110d565b825550505050565b5f90565b6111cb6111bf565b6111d681848461119a565b505050565b5b818110156111f9576111ee5f826111c3565b6001810190506111dc565b5050565b601f82111561123e5761120f816110e0565b611218846110f2565b81016020851015611227578190505b61123b611233856110f2565b8301826111db565b50505b505050565b5f82821c905092915050565b5f61125e5f1984600802611243565b1980831691505092915050565b5f611276838361124f565b9150826002028217905092915050565b61128f82610e8e565b67ffffffffffffffff8111156112a8576112a7610c83565b5b6112b282546110b0565b6112bd8282856111fd565b5f60209050601f8311600181146112ee575f84156112dc578287015190505b6112e6858261126b565b86555061134d565b601f1984166112fc866110e0565b5f5b82811015611323578489015182556001820191506020850194506020810190506112fe565b86831015611340578489015161133c601f89168261124f565b8355505b6001600288020188555050505b505050505050565b7f4e6f2072656164207065726d697373696f6e00000000000000000000000000005f82015250565b5f611389601283610e98565b915061139482611355565b602082019050919050565b5f6020820190508181035f8301526113b68161137d565b905091905056fea2646970667358221220e77516b0d4d8ea9085ad29b294d5905768a1e8e71027a4acfb9e76ece3b4106a64736f6c63430008150033",
  "immutableReferences": {},
  "source": "// SPDX-License-Identifier: MIT\npragma solidity ^0.8.0;\nimport \"./AccessControl.sol\";\n\ncontract Demographics is AccessControl{\n    struct Demographic{\n        string name;\n        string dateOfBirth;\n        string gender;\n        string homeAddress;\n    }\n\n    mapping(address => Demographic) private demographics;\n    \n\n    event DemographicsUpdated(address indexed providerAddress, address indexed patientAddress);\n\n    function setDemographics(address _patient, string memory _name, string memory _dateOfBirth, string memory _gender, string memory _homeAddress) public onlyProvider(msg.sender, _patient){\n        demographics[_patient] = Demographic(_name, _dateOfBirth, _gender, _homeAddress);\n        emit DemographicsUpdated(msg.sender,_patient);\n    }\n\n    function getDemographics(address _patientAddress) public view onlyProviderOrPatient(_patientAddress) returns (string memory, string memory, string memory, string memory){\n        Demographic memory demo = demographics[_patientAddress];\n        return (demo.name, demo.dateOfBirth, demo.gender, demo.homeAddress);\n    }\n    }\n\n\n",
  "sourcePath": "/Users/maauri/Projects/MediChain/contracts/Demographics.sol",
  "compiler": {
    "name": "solc",
    "version": "0.8.21+commit.d9974bed.Emscripten.clang"
  },
  "schemaVersion": "3.4.16",
  "updatedAt": "2024-06-06T01:22:17.615Z",
  "networkType": "ethereum",
  "devdoc": {
    "kind": "dev",
    "methods": {},
    "version": 1
  },
  "userdoc": {
    "kind": "user",
    "methods": {},
    "version": 1
  }
}