{
  "contractName": "Demographics",
  "abi": [
    {
      "anonymous": false,
      "inputs": [
        {
          "indexed": true,
          "internalType": "address",
          "name": "providerAddress",
          "type": "address"
        },
        {
          "indexed": true,
          "internalType": "address",
          "name": "patientAddress",
          "type": "address"
        }
      ],
      "name": "DemographicsUpdated",
      "type": "event"
    },
    {
      "inputs": [
        {
          "internalType": "address",
          "name": "_patient",
          "type": "address"
        },
        {
          "internalType": "address",
          "name": "_provider",
          "type": "address"
        }
      ],
      "name": "grantReadAccess",
      "outputs": [],
      "stateMutability": "nonpayable",
      "type": "function"
    },
    {
      "inputs": [
        {
          "internalType": "address",
          "name": "_patient",
          "type": "address"
        },
        {
          "internalType": "address",
          "name": "_provider",
          "type": "address"
        }
      ],
      "name": "grantUpdateAccess",
      "outputs": [],
      "stateMutability": "nonpayable",
      "type": "function"
    },
    {
      "inputs": [
        {
          "internalType": "address",
          "name": "_patient",
          "type": "address"
        }
      ],
      "name": "hasAddPermission",
      "outputs": [
        {
          "internalType": "bool",
          "name": "",
          "type": "bool"
        }
      ],
      "stateMutability": "view",
      "type": "function",
      "constant": true
    },
    {
      "inputs": [
        {
          "internalType": "address",
          "name": "_patient",
          "type": "address"
        },
        {
          "internalType": "address",
          "name": "_provider",
          "type": "address"
        }
      ],
      "name": "hasReadPermission",
      "outputs": [
        {
          "internalType": "bool",
          "name": "",
          "type": "bool"
        }
      ],
      "stateMutability": "view",
      "type": "function",
      "constant": true
    },
    {
      "inputs": [
        {
          "internalType": "address",
          "name": "_patient",
          "type": "address"
        },
        {
          "internalType": "address",
          "name": "_provider",
          "type": "address"
        }
      ],
      "name": "revokeReadAccess",
      "outputs": [],
      "stateMutability": "nonpayable",
      "type": "function"
    },
    {
      "inputs": [
        {
          "internalType": "address",
          "name": "_patient",
          "type": "address"
        },
        {
          "internalType": "address",
          "name": "_provider",
          "type": "address"
        }
      ],
      "name": "revokeUpdateAccess",
      "outputs": [],
      "stateMutability": "nonpayable",
      "type": "function"
    },
    {
      "inputs": [
        {
          "internalType": "address",
          "name": "_patient",
          "type": "address"
        },
        {
          "internalType": "string",
          "name": "_name",
          "type": "string"
        },
        {
          "internalType": "string",
          "name": "_dateOfBirth",
          "type": "string"
        },
        {
          "internalType": "string",
          "name": "_gender",
          "type": "string"
        },
        {
          "internalType": "string",
          "name": "_homeAddress",
          "type": "string"
        }
      ],
      "name": "setDemographics",
      "outputs": [],
      "stateMutability": "nonpayable",
      "type": "function"
    },
    {
      "inputs": [
        {
          "internalType": "address",
          "name": "_patientAddress",
          "type": "address"
        }
      ],
      "name": "getDemographics",
      "outputs": [
        {
          "internalType": "string",
          "name": "",
          "type": "string"
        },
        {
          "internalType": "string",
          "name": "",
          "type": "string"
        },
        {
          "internalType": "string",
          "name": "",
          "type": "string"
        },
        {
          "internalType": "string",
          "name": "",
          "type": "string"
        }
      ],
      "stateMutability": "view",
      "type": "function",
      "constant": true
    }
  ],
  "bytecode": "0x608060405234801561001057600080fd5b5061146c806100206000396000f3fe608060405234801561001057600080fd5b50600436106100885760003560e01c806366ed55a51161005b57806366ed55a5146101255780636aea790d14610141578063baf516c11461015d578063ca80024d1461019057610088565b8063272acd7f1461008d57806356096536146100bd57806361854043146100d95780636448965a146100f5575b600080fd5b6100a760048036038101906100a29190610c0a565b6101ac565b6040516100b49190610c52565b60405180910390f35b6100d760048036038101906100d29190610c6d565b61023e565b005b6100f360048036038101906100ee9190610df3565b6102bc565b005b61010f600480360381019061010a9190610c6d565b6104a4565b60405161011c9190610c52565b60405180910390f35b61013f600480360381019061013a9190610c6d565b610537565b005b61015b60048036038101906101569190610c6d565b6105b5565b005b61017760048036038101906101729190610c0a565b610633565b6040516101879493929190610f5d565b60405180910390f35b6101aa60048036038101906101a59190610c6d565b6109f3565b005b60008060008373ffffffffffffffffffffffffffffffffffffffff1673ffffffffffffffffffffffffffffffffffffffff16815260200190815260200160002060003373ffffffffffffffffffffffffffffffffffffffff1673ffffffffffffffffffffffffffffffffffffffff16815260200190815260200160002060009054906101000a900460ff169050919050565b818073ffffffffffffffffffffffffffffffffffffffff163373ffffffffffffffffffffffffffffffffffffffff16146102ad576040517f08c379a00000000000000000000000000000000000000000000000000000000081526004016102a490611030565b60405180910390fd5b6102b78383610a71565b505050565b33856000808273ffffffffffffffffffffffffffffffffffffffff1673ffffffffffffffffffffffffffffffffffffffff16815260200190815260200160002060008373ffffffffffffffffffffffffffffffffffffffff1673ffffffffffffffffffffffffffffffffffffffff16815260200190815260200160002060009054906101000a900460ff16610386576040517f08c379a000000000000000000000000000000000000000000000000000000000815260040161037d906110c2565b60405180910390fd5b604051806080016040528087815260200186815260200185815260200184815250600160008973ffffffffffffffffffffffffffffffffffffffff1673ffffffffffffffffffffffffffffffffffffffff16815260200190815260200160002060008201518160000190816103fb91906112f8565b50602082015181600101908161041191906112f8565b50604082015181600201908161042791906112f8565b50606082015181600301908161043d91906112f8565b509050508673ffffffffffffffffffffffffffffffffffffffff163373ffffffffffffffffffffffffffffffffffffffff167fd0a6de516a837d6c4f057290f7b0319c1c284edb39332b7c88738fbf3220256e60405160405180910390a350505050505050565b60008060008473ffffffffffffffffffffffffffffffffffffffff1673ffffffffffffffffffffffffffffffffffffffff16815260200190815260200160002060008373ffffffffffffffffffffffffffffffffffffffff1673ffffffffffffffffffffffffffffffffffffffff16815260200190815260200160002060009054906101000a900460ff16905092915050565b818073ffffffffffffffffffffffffffffffffffffffff163373ffffffffffffffffffffffffffffffffffffffff16146105a6576040517f08c379a000000000000000000000000000000000000000000000000000000000815260040161059d90611030565b60405180910390fd5b6105b08383610b09565b505050565b818073ffffffffffffffffffffffffffffffffffffffff163373ffffffffffffffffffffffffffffffffffffffff1614610624576040517f08c379a000000000000000000000000000000000000000000000000000000000815260040161061b90611030565b60405180910390fd5b61062e8383610b09565b505050565b606080606080848073ffffffffffffffffffffffffffffffffffffffff163373ffffffffffffffffffffffffffffffffffffffff1614806106f957506000808273ffffffffffffffffffffffffffffffffffffffff1673ffffffffffffffffffffffffffffffffffffffff16815260200190815260200160002060003373ffffffffffffffffffffffffffffffffffffffff1673ffffffffffffffffffffffffffffffffffffffff16815260200190815260200160002060009054906101000a900460ff165b610738576040517f08c379a000000000000000000000000000000000000000000000000000000000815260040161072f90611416565b60405180910390fd5b6000600160008873ffffffffffffffffffffffffffffffffffffffff1673ffffffffffffffffffffffffffffffffffffffff16815260200190815260200160002060405180608001604052908160008201805461079490611111565b80601f01602080910402602001604051908101604052809291908181526020018280546107c090611111565b801561080d5780601f106107e25761010080835404028352916020019161080d565b820191906000526020600020905b8154815290600101906020018083116107f057829003601f168201915b5050505050815260200160018201805461082690611111565b80601f016020809104026020016040519081016040528092919081815260200182805461085290611111565b801561089f5780601f106108745761010080835404028352916020019161089f565b820191906000526020600020905b81548152906001019060200180831161088257829003601f168201915b505050505081526020016002820180546108b890611111565b80601f01602080910402602001604051908101604052809291908181526020018280546108e490611111565b80156109315780601f1061090657610100808354040283529160200191610931565b820191906000526020600020905b81548152906001019060200180831161091457829003601f168201915b5050505050815260200160038201805461094a90611111565b80601f016020809104026020016040519081016040528092919081815260200182805461097690611111565b80156109c35780601f10610998576101008083540402835291602001916109c3565b820191906000526020600020905b8154815290600101906020018083116109a657829003601f168201915b50505050508152505090508060000151816020015182604001518360600151955095509550955050509193509193565b818073ffffffffffffffffffffffffffffffffffffffff163373ffffffffffffffffffffffffffffffffffffffff1614610a62576040517f08c379a0000000000000000000000000000000000000000000000000000000008152600401610a5990611030565b60405180910390fd5b610a6c8383610a71565b505050565b60016000808473ffffffffffffffffffffffffffffffffffffffff1673ffffffffffffffffffffffffffffffffffffffff16815260200190815260200160002060008373ffffffffffffffffffffffffffffffffffffffff1673ffffffffffffffffffffffffffffffffffffffff16815260200190815260200160002060006101000a81548160ff0219169083151502179055505050565b6000808373ffffffffffffffffffffffffffffffffffffffff1673ffffffffffffffffffffffffffffffffffffffff16815260200190815260200160002060008273ffffffffffffffffffffffffffffffffffffffff1673ffffffffffffffffffffffffffffffffffffffff16815260200190815260200160002060006101000a81549060ff02191690555050565b6000604051905090565b600080fd5b600080fd5b600073ffffffffffffffffffffffffffffffffffffffff82169050919050565b6000610bd782610bac565b9050919050565b610be781610bcc565b8114610bf257600080fd5b50565b600081359050610c0481610bde565b92915050565b600060208284031215610c2057610c1f610ba2565b5b6000610c2e84828501610bf5565b91505092915050565b60008115159050919050565b610c4c81610c37565b82525050565b6000602082019050610c676000830184610c43565b92915050565b60008060408385031215610c8457610c83610ba2565b5b6000610c9285828601610bf5565b9250506020610ca385828601610bf5565b9150509250929050565b600080fd5b600080fd5b6000601f19601f8301169050919050565b7f4e487b7100000000000000000000000000000000000000000000000000000000600052604160045260246000fd5b610d0082610cb7565b810181811067ffffffffffffffff82111715610d1f57610d1e610cc8565b5b80604052505050565b6000610d32610b98565b9050610d3e8282610cf7565b919050565b600067ffffffffffffffff821115610d5e57610d5d610cc8565b5b610d6782610cb7565b9050602081019050919050565b82818337600083830152505050565b6000610d96610d9184610d43565b610d28565b905082815260208101848484011115610db257610db1610cb2565b5b610dbd848285610d74565b509392505050565b600082601f830112610dda57610dd9610cad565b5b8135610dea848260208601610d83565b91505092915050565b600080600080600060a08688031215610e0f57610e0e610ba2565b5b6000610e1d88828901610bf5565b955050602086013567ffffffffffffffff811115610e3e57610e3d610ba7565b5b610e4a88828901610dc5565b945050604086013567ffffffffffffffff811115610e6b57610e6a610ba7565b5b610e7788828901610dc5565b935050606086013567ffffffffffffffff811115610e9857610e97610ba7565b5b610ea488828901610dc5565b925050608086013567ffffffffffffffff811115610ec557610ec4610ba7565b5b610ed188828901610dc5565b9150509295509295909350565b600081519050919050565b600082825260208201905092915050565b60005b83811015610f18578082015181840152602081019050610efd565b60008484015250505050565b6000610f2f82610ede565b610f398185610ee9565b9350610f49818560208601610efa565b610f5281610cb7565b840191505092915050565b60006080820190508181036000830152610f778187610f24565b90508181036020830152610f8b8186610f24565b90508181036040830152610f9f8185610f24565b90508181036060830152610fb38184610f24565b905095945050505050565b7f4f6e6c79207468652070617469656e742063616e20706572666f726d2074686960008201527f7320616374696f6e000000000000000000000000000000000000000000000000602082015250565b600061101a602883610ee9565b915061102582610fbe565b604082019050919050565b600060208201905081810360008301526110498161100d565b9050919050565b7f4f6e6c7920617574686f72697a6564206865616c7468636172652070726f766960008201527f646572732063616e20706572666f726d207468697320616374696f6e00000000602082015250565b60006110ac603c83610ee9565b91506110b782611050565b604082019050919050565b600060208201905081810360008301526110db8161109f565b9050919050565b7f4e487b7100000000000000000000000000000000000000000000000000000000600052602260045260246000fd5b6000600282049050600182168061112957607f821691505b60208210810361113c5761113b6110e2565b5b50919050565b60008190508160005260206000209050919050565b60006020601f8301049050919050565b600082821b905092915050565b6000600883026111a47fffffffffffffffffffffffffffffffffffffffffffffffffffffffffffffffff82611167565b6111ae8683611167565b95508019841693508086168417925050509392505050565b6000819050919050565b6000819050919050565b60006111f56111f06111eb846111c6565b6111d0565b6111c6565b9050919050565b6000819050919050565b61120f836111da565b61122361121b826111fc565b848454611174565b825550505050565b600090565b61123861122b565b611243818484611206565b505050565b5b818110156112675761125c600082611230565b600181019050611249565b5050565b601f8211156112ac5761127d81611142565b61128684611157565b81016020851015611295578190505b6112a96112a185611157565b830182611248565b50505b505050565b600082821c905092915050565b60006112cf600019846008026112b1565b1980831691505092915050565b60006112e883836112be565b9150826002028217905092915050565b61130182610ede565b67ffffffffffffffff81111561131a57611319610cc8565b5b6113248254611111565b61132f82828561126b565b600060209050601f8311600181146113625760008415611350578287015190505b61135a85826112dc565b8655506113c2565b601f19841661137086611142565b60005b8281101561139857848901518255600182019150602085019450602081019050611373565b868310156113b557848901516113b1601f8916826112be565b8355505b6001600288020188555050505b505050505050565b7f4e6f2072656164207065726d697373696f6e0000000000000000000000000000600082015250565b6000611400601283610ee9565b915061140b826113ca565b602082019050919050565b6000602082019050818103600083015261142f816113f3565b905091905056fea26469706673582212202a5220f993651956721eddff9977e89a248ffff3ea83204158fa7bb9e572843064736f6c63430008130033",
  "immutableReferences": {},
  "source": "// SPDX-License-Identifier: MIT\npragma solidity 0.8.19;\nimport \"./AccessControl.sol\";\n\ncontract Demographics is AccessControl{\n    struct Demographic{\n        string name;\n        string dateOfBirth;\n        string gender;\n        string homeAddress;\n    }\n\n    mapping(address => Demographic) private demographics;\n    \n\n    event DemographicsUpdated(address indexed providerAddress, address indexed patientAddress);\n\n    function setDemographics(address _patient, string memory _name, string memory _dateOfBirth, string memory _gender, string memory _homeAddress) public onlyProvider(msg.sender, _patient){\n        demographics[_patient] = Demographic(_name, _dateOfBirth, _gender, _homeAddress);\n        emit DemographicsUpdated(msg.sender,_patient);\n    }\n\n    function getDemographics(address _patientAddress) public view onlyProviderOrPatient(_patientAddress) returns (string memory, string memory, string memory, string memory){\n        Demographic memory demo = demographics[_patientAddress];\n        return (demo.name, demo.dateOfBirth, demo.gender, demo.homeAddress);\n    }\n    }\n\n\n",
  "sourcePath": "/Users/ishanpathak/Desktop/Summer Projects/MediChain/contracts/Demographics.sol",
  "compiler": {
    "name": "solc",
    "version": "0.8.19+commit.7dd6d404.Emscripten.clang"
  },
  "schemaVersion": "3.4.16",
  "updatedAt": "2024-06-22T23:20:54.034Z",
  "networkType": "ethereum",
  "devdoc": {
    "kind": "dev",
    "methods": {},
    "version": 1
  },
  "userdoc": {
    "kind": "user",
    "methods": {},
    "version": 1
  }
}