{
  "contractName": "Immunizations",
  "abi": [
    {
      "anonymous": false,
      "inputs": [
        {
          "indexed": true,
          "internalType": "address",
          "name": "providerAddress",
          "type": "address"
        },
        {
          "indexed": true,
          "internalType": "address",
          "name": "patientAddress",
          "type": "address"
        },
        {
          "indexed": false,
          "internalType": "string",
          "name": "vaccine",
          "type": "string"
        }
      ],
      "name": "ImmunizationAdded",
      "type": "event"
    },
    {
      "inputs": [
        {
          "internalType": "address",
          "name": "_patient",
          "type": "address"
        },
        {
          "internalType": "address",
          "name": "_provider",
          "type": "address"
        }
      ],
      "name": "grantReadAccess",
      "outputs": [],
      "stateMutability": "nonpayable",
      "type": "function"
    },
    {
      "inputs": [
        {
          "internalType": "address",
          "name": "_patient",
          "type": "address"
        },
        {
          "internalType": "address",
          "name": "_provider",
          "type": "address"
        }
      ],
      "name": "grantUpdateAccess",
      "outputs": [],
      "stateMutability": "nonpayable",
      "type": "function"
    },
    {
      "inputs": [
        {
          "internalType": "address",
          "name": "_patient",
          "type": "address"
        }
      ],
      "name": "hasAddPermission",
      "outputs": [
        {
          "internalType": "bool",
          "name": "",
          "type": "bool"
        }
      ],
      "stateMutability": "view",
      "type": "function",
      "constant": true
    },
    {
      "inputs": [
        {
          "internalType": "address",
          "name": "_patient",
          "type": "address"
        },
        {
          "internalType": "address",
          "name": "_provider",
          "type": "address"
        }
      ],
      "name": "hasReadPermission",
      "outputs": [
        {
          "internalType": "bool",
          "name": "",
          "type": "bool"
        }
      ],
      "stateMutability": "view",
      "type": "function",
      "constant": true
    },
    {
      "inputs": [
        {
          "internalType": "address",
          "name": "_patient",
          "type": "address"
        },
        {
          "internalType": "address",
          "name": "_provider",
          "type": "address"
        }
      ],
      "name": "revokeReadAccess",
      "outputs": [],
      "stateMutability": "nonpayable",
      "type": "function"
    },
    {
      "inputs": [
        {
          "internalType": "address",
          "name": "_patient",
          "type": "address"
        },
        {
          "internalType": "address",
          "name": "_provider",
          "type": "address"
        }
      ],
      "name": "revokeUpdateAccess",
      "outputs": [],
      "stateMutability": "nonpayable",
      "type": "function"
    },
    {
      "inputs": [
        {
          "internalType": "address",
          "name": "_patientAddress",
          "type": "address"
        },
        {
          "internalType": "string",
          "name": "_vaccine",
          "type": "string"
        },
        {
          "internalType": "string",
          "name": "_administeredDate",
          "type": "string"
        }
      ],
      "name": "addImmunization",
      "outputs": [],
      "stateMutability": "nonpayable",
      "type": "function"
    },
    {
      "inputs": [
        {
          "internalType": "address",
          "name": "_patientAddress",
          "type": "address"
        }
      ],
      "name": "getImmunization",
      "outputs": [
        {
          "components": [
            {
              "internalType": "string",
              "name": "vaccine",
              "type": "string"
            },
            {
              "internalType": "string",
              "name": "administeredDate",
              "type": "string"
            }
          ],
          "internalType": "struct Immunizations.Immunization[]",
          "name": "",
          "type": "tuple[]"
        }
      ],
      "stateMutability": "view",
      "type": "function",
      "constant": true
    }
  ],
  "bytecode": "0x608060405234801561000f575f80fd5b506113b18061001d5f395ff3fe608060405234801561000f575f80fd5b5060043610610086575f3560e01c80636aea790d116100595780636aea790d14610122578063ca80024d1461013e578063d45f75041461015a578063e074cd031461018a57610086565b8063272acd7f1461008a57806356096536146100ba5780636448965a146100d657806366ed55a514610106575b5f80fd5b6100a4600480360381019061009f9190610ac7565b6101a6565b6040516100b19190610b0c565b60405180910390f35b6100d460048036038101906100cf9190610b25565b610232565b005b6100f060048036038101906100eb9190610b25565b6102b0565b6040516100fd9190610b0c565b60405180910390f35b610120600480360381019061011b9190610b25565b61033d565b005b61013c60048036038101906101379190610b25565b6103bb565b005b61015860048036038101906101539190610b25565b610439565b005b610174600480360381019061016f9190610ac7565b6104b7565b6040516101819190610ce9565b60405180910390f35b6101a4600480360381019061019f9190610e35565b61076a565b005b5f805f8373ffffffffffffffffffffffffffffffffffffffff1673ffffffffffffffffffffffffffffffffffffffff1681526020019081526020015f205f3373ffffffffffffffffffffffffffffffffffffffff1673ffffffffffffffffffffffffffffffffffffffff1681526020019081526020015f205f9054906101000a900460ff169050919050565b818073ffffffffffffffffffffffffffffffffffffffff163373ffffffffffffffffffffffffffffffffffffffff16146102a1576040517f08c379a000000000000000000000000000000000000000000000000000000000815260040161029890610f3d565b60405180910390fd5b6102ab838361093f565b505050565b5f805f8473ffffffffffffffffffffffffffffffffffffffff1673ffffffffffffffffffffffffffffffffffffffff1681526020019081526020015f205f8373ffffffffffffffffffffffffffffffffffffffff1673ffffffffffffffffffffffffffffffffffffffff1681526020019081526020015f205f9054906101000a900460ff16905092915050565b818073ffffffffffffffffffffffffffffffffffffffff163373ffffffffffffffffffffffffffffffffffffffff16146103ac576040517f08c379a00000000000000000000000000000000000000000000000000000000081526004016103a390610f3d565b60405180910390fd5b6103b683836109d2565b505050565b818073ffffffffffffffffffffffffffffffffffffffff163373ffffffffffffffffffffffffffffffffffffffff161461042a576040517f08c379a000000000000000000000000000000000000000000000000000000000815260040161042190610f3d565b60405180910390fd5b61043483836109d2565b505050565b818073ffffffffffffffffffffffffffffffffffffffff163373ffffffffffffffffffffffffffffffffffffffff16146104a8576040517f08c379a000000000000000000000000000000000000000000000000000000000815260040161049f90610f3d565b60405180910390fd5b6104b2838361093f565b505050565b6060818073ffffffffffffffffffffffffffffffffffffffff163373ffffffffffffffffffffffffffffffffffffffff16148061057457505f808273ffffffffffffffffffffffffffffffffffffffff1673ffffffffffffffffffffffffffffffffffffffff1681526020019081526020015f205f3373ffffffffffffffffffffffffffffffffffffffff1673ffffffffffffffffffffffffffffffffffffffff1681526020019081526020015f205f9054906101000a900460ff165b6105b3576040517f08c379a00000000000000000000000000000000000000000000000000000000081526004016105aa90610fa5565b60405180910390fd5b60015f8473ffffffffffffffffffffffffffffffffffffffff1673ffffffffffffffffffffffffffffffffffffffff1681526020019081526020015f20805480602002602001604051908101604052809291908181526020015f905b8282101561075e578382905f5260205f2090600202016040518060400160405290815f8201805461063f90610ff0565b80601f016020809104026020016040519081016040528092919081815260200182805461066b90610ff0565b80156106b65780601f1061068d576101008083540402835291602001916106b6565b820191905f5260205f20905b81548152906001019060200180831161069957829003601f168201915b505050505081526020016001820180546106cf90610ff0565b80601f01602080910402602001604051908101604052809291908181526020018280546106fb90610ff0565b80156107465780601f1061071d57610100808354040283529160200191610746565b820191905f5260205f20905b81548152906001019060200180831161072957829003601f168201915b5050505050815250508152602001906001019061060f565b50505050915050919050565b33835f808273ffffffffffffffffffffffffffffffffffffffff1673ffffffffffffffffffffffffffffffffffffffff1681526020019081526020015f205f8373ffffffffffffffffffffffffffffffffffffffff1673ffffffffffffffffffffffffffffffffffffffff1681526020019081526020015f205f9054906101000a900460ff1661082f576040517f08c379a000000000000000000000000000000000000000000000000000000000815260040161082690611090565b60405180910390fd5b60015f8673ffffffffffffffffffffffffffffffffffffffff1673ffffffffffffffffffffffffffffffffffffffff1681526020019081526020015f20604051806040016040528086815260200185815250908060018154018082558091505060019003905f5260205f2090600202015f909190919091505f820151815f0190816108ba9190611254565b5060208201518160010190816108d09190611254565b5050508473ffffffffffffffffffffffffffffffffffffffff163373ffffffffffffffffffffffffffffffffffffffff167f9d1ce3dae4583f24642eb669b23a4d390ed94b41cd01dc8bbc5582d045e8c67286604051610930919061135b565b60405180910390a35050505050565b60015f808473ffffffffffffffffffffffffffffffffffffffff1673ffffffffffffffffffffffffffffffffffffffff1681526020019081526020015f205f8373ffffffffffffffffffffffffffffffffffffffff1673ffffffffffffffffffffffffffffffffffffffff1681526020019081526020015f205f6101000a81548160ff0219169083151502179055505050565b5f808373ffffffffffffffffffffffffffffffffffffffff1673ffffffffffffffffffffffffffffffffffffffff1681526020019081526020015f205f8273ffffffffffffffffffffffffffffffffffffffff1673ffffffffffffffffffffffffffffffffffffffff1681526020019081526020015f205f6101000a81549060ff02191690555050565b5f604051905090565b5f80fd5b5f80fd5b5f73ffffffffffffffffffffffffffffffffffffffff82169050919050565b5f610a9682610a6d565b9050919050565b610aa681610a8c565b8114610ab0575f80fd5b50565b5f81359050610ac181610a9d565b92915050565b5f60208284031215610adc57610adb610a65565b5b5f610ae984828501610ab3565b91505092915050565b5f8115159050919050565b610b0681610af2565b82525050565b5f602082019050610b1f5f830184610afd565b92915050565b5f8060408385031215610b3b57610b3a610a65565b5b5f610b4885828601610ab3565b9250506020610b5985828601610ab3565b9150509250929050565b5f81519050919050565b5f82825260208201905092915050565b5f819050602082019050919050565b5f81519050919050565b5f82825260208201905092915050565b5f5b83811015610bc3578082015181840152602081019050610ba8565b5f8484015250505050565b5f601f19601f8301169050919050565b5f610be882610b8c565b610bf28185610b96565b9350610c02818560208601610ba6565b610c0b81610bce565b840191505092915050565b5f604083015f8301518482035f860152610c308282610bde565b91505060208301518482036020860152610c4a8282610bde565b9150508091505092915050565b5f610c628383610c16565b905092915050565b5f602082019050919050565b5f610c8082610b63565b610c8a8185610b6d565b935083602082028501610c9c85610b7d565b805f5b85811015610cd75784840389528151610cb88582610c57565b9450610cc383610c6a565b925060208a01995050600181019050610c9f565b50829750879550505050505092915050565b5f6020820190508181035f830152610d018184610c76565b905092915050565b5f80fd5b5f80fd5b7f4e487b71000000000000000000000000000000000000000000000000000000005f52604160045260245ffd5b610d4782610bce565b810181811067ffffffffffffffff82111715610d6657610d65610d11565b5b80604052505050565b5f610d78610a5c565b9050610d848282610d3e565b919050565b5f67ffffffffffffffff821115610da357610da2610d11565b5b610dac82610bce565b9050602081019050919050565b828183375f83830152505050565b5f610dd9610dd484610d89565b610d6f565b905082815260208101848484011115610df557610df4610d0d565b5b610e00848285610db9565b509392505050565b5f82601f830112610e1c57610e1b610d09565b5b8135610e2c848260208601610dc7565b91505092915050565b5f805f60608486031215610e4c57610e4b610a65565b5b5f610e5986828701610ab3565b935050602084013567ffffffffffffffff811115610e7a57610e79610a69565b5b610e8686828701610e08565b925050604084013567ffffffffffffffff811115610ea757610ea6610a69565b5b610eb386828701610e08565b9150509250925092565b5f82825260208201905092915050565b7f4f6e6c79207468652070617469656e742063616e20706572666f726d207468695f8201527f7320616374696f6e000000000000000000000000000000000000000000000000602082015250565b5f610f27602883610ebd565b9150610f3282610ecd565b604082019050919050565b5f6020820190508181035f830152610f5481610f1b565b9050919050565b7f4e6f2072656164207065726d697373696f6e00000000000000000000000000005f82015250565b5f610f8f601283610ebd565b9150610f9a82610f5b565b602082019050919050565b5f6020820190508181035f830152610fbc81610f83565b9050919050565b7f4e487b71000000000000000000000000000000000000000000000000000000005f52602260045260245ffd5b5f600282049050600182168061100757607f821691505b60208210810361101a57611019610fc3565b5b50919050565b7f4f6e6c7920617574686f72697a6564206865616c7468636172652070726f76695f8201527f646572732063616e20706572666f726d207468697320616374696f6e00000000602082015250565b5f61107a603c83610ebd565b915061108582611020565b604082019050919050565b5f6020820190508181035f8301526110a78161106e565b9050919050565b5f819050815f5260205f209050919050565b5f6020601f8301049050919050565b5f82821b905092915050565b5f6008830261110a7fffffffffffffffffffffffffffffffffffffffffffffffffffffffffffffffff826110cf565b61111486836110cf565b95508019841693508086168417925050509392505050565b5f819050919050565b5f819050919050565b5f61115861115361114e8461112c565b611135565b61112c565b9050919050565b5f819050919050565b6111718361113e565b61118561117d8261115f565b8484546110db565b825550505050565b5f90565b61119961118d565b6111a4818484611168565b505050565b5b818110156111c7576111bc5f82611191565b6001810190506111aa565b5050565b601f82111561120c576111dd816110ae565b6111e6846110c0565b810160208510156111f5578190505b611209611201856110c0565b8301826111a9565b50505b505050565b5f82821c905092915050565b5f61122c5f1984600802611211565b1980831691505092915050565b5f611244838361121d565b9150826002028217905092915050565b61125d82610b8c565b67ffffffffffffffff81111561127657611275610d11565b5b6112808254610ff0565b61128b8282856111cb565b5f60209050601f8311600181146112bc575f84156112aa578287015190505b6112b48582611239565b86555061131b565b601f1984166112ca866110ae565b5f5b828110156112f1578489015182556001820191506020850194506020810190506112cc565b8683101561130e578489015161130a601f89168261121d565b8355505b6001600288020188555050505b505050505050565b5f61132d82610b8c565b6113378185610ebd565b9350611347818560208601610ba6565b61135081610bce565b840191505092915050565b5f6020820190508181035f8301526113738184611323565b90509291505056fea2646970667358221220231bb5819385946b9baf852c5518b9eec07f190d1824851689d667d66adeb87d64736f6c63430008150033",
  "immutableReferences": {},
  "source": "// SPDX-License-Identifier: MIT\npragma solidity ^0.8.0;\nimport \"./AccessControl.sol\";\n\ncontract Immunizations is AccessControl{\n    struct Immunization{\n        string vaccine;\n        string administeredDate;\n    }\n\n    mapping(address => Immunization[]) private immunization;\n    event ImmunizationAdded(address indexed providerAddress, address indexed patientAddress, string vaccine);\n\n    function addImmunization(address _patientAddress ,string memory _vaccine, string memory _administeredDate) public onlyProvider(msg.sender, _patientAddress){\n        immunization[_patientAddress].push(Immunization(_vaccine, _administeredDate));\n        emit ImmunizationAdded(msg.sender, _patientAddress, _vaccine);\n    }\n\n    function getImmunization(address _patientAddress) public view onlyProviderOrPatient(_patientAddress) returns (Immunization[] memory){\n        return immunization[_patientAddress];\n    }\n}",
  "sourcePath": "/Users/maauri/Projects/MediChain/contracts/Immunizations.sol",
  "compiler": {
    "name": "solc",
    "version": "0.8.21+commit.d9974bed.Emscripten.clang"
  },
  "schemaVersion": "3.4.16",
  "updatedAt": "2024-06-16T23:05:40.980Z",
  "networkType": "ethereum",
  "devdoc": {
    "kind": "dev",
    "methods": {},
    "version": 1
  },
  "userdoc": {
    "kind": "user",
    "methods": {},
    "version": 1
  }
}