{
  "contractName": "Immunizations",
  "abi": [
    {
      "anonymous": false,
      "inputs": [
        {
          "indexed": true,
          "internalType": "address",
          "name": "providerAddress",
          "type": "address"
        },
        {
          "indexed": true,
          "internalType": "address",
          "name": "patientAddress",
          "type": "address"
        },
        {
          "indexed": false,
          "internalType": "string",
          "name": "vaccine",
          "type": "string"
        }
      ],
      "name": "ImmunizationAdded",
      "type": "event"
    },
    {
      "inputs": [
        {
          "internalType": "address",
          "name": "_patient",
          "type": "address"
        },
        {
          "internalType": "address",
          "name": "_provider",
          "type": "address"
        }
      ],
      "name": "grantReadAccess",
      "outputs": [],
      "stateMutability": "nonpayable",
      "type": "function"
    },
    {
      "inputs": [
        {
          "internalType": "address",
          "name": "_patient",
          "type": "address"
        },
        {
          "internalType": "address",
          "name": "_provider",
          "type": "address"
        }
      ],
      "name": "grantUpdateAccess",
      "outputs": [],
      "stateMutability": "nonpayable",
      "type": "function"
    },
    {
      "inputs": [
        {
          "internalType": "address",
          "name": "_patient",
          "type": "address"
        }
      ],
      "name": "hasAddPermission",
      "outputs": [
        {
          "internalType": "bool",
          "name": "",
          "type": "bool"
        }
      ],
      "stateMutability": "view",
      "type": "function",
      "constant": true
    },
    {
      "inputs": [
        {
          "internalType": "address",
          "name": "_patient",
          "type": "address"
        },
        {
          "internalType": "address",
          "name": "_provider",
          "type": "address"
        }
      ],
      "name": "hasReadPermission",
      "outputs": [
        {
          "internalType": "bool",
          "name": "",
          "type": "bool"
        }
      ],
      "stateMutability": "view",
      "type": "function",
      "constant": true
    },
    {
      "inputs": [
        {
          "internalType": "address",
          "name": "_patient",
          "type": "address"
        },
        {
          "internalType": "address",
          "name": "_provider",
          "type": "address"
        }
      ],
      "name": "revokeReadAccess",
      "outputs": [],
      "stateMutability": "nonpayable",
      "type": "function"
    },
    {
      "inputs": [
        {
          "internalType": "address",
          "name": "_patient",
          "type": "address"
        },
        {
          "internalType": "address",
          "name": "_provider",
          "type": "address"
        }
      ],
      "name": "revokeUpdateAccess",
      "outputs": [],
      "stateMutability": "nonpayable",
      "type": "function"
    },
    {
      "inputs": [
        {
          "internalType": "address",
          "name": "_patientAddress",
          "type": "address"
        },
        {
          "internalType": "string",
          "name": "_vaccine",
          "type": "string"
        },
        {
          "internalType": "string",
          "name": "_administeredDate",
          "type": "string"
        }
      ],
      "name": "addImmunization",
      "outputs": [],
      "stateMutability": "nonpayable",
      "type": "function"
    },
    {
      "inputs": [
        {
          "internalType": "address",
          "name": "_patientAddress",
          "type": "address"
        }
      ],
      "name": "getImmunization",
      "outputs": [
        {
          "components": [
            {
              "internalType": "string",
              "name": "vaccine",
              "type": "string"
            },
            {
              "internalType": "string",
              "name": "administeredDate",
              "type": "string"
            }
          ],
          "internalType": "struct Immunizations.Immunization[]",
          "name": "",
          "type": "tuple[]"
        }
      ],
      "stateMutability": "view",
      "type": "function",
      "constant": true
    }
  ],
  "bytecode": "0x608060405234801561001057600080fd5b50611529806100206000396000f3fe608060405234801561001057600080fd5b50600436106100885760003560e01c80636aea790d1161005b5780636aea790d14610125578063ca80024d14610141578063d45f75041461015d578063e074cd031461018d57610088565b8063272acd7f1461008d57806356096536146100bd5780636448965a146100d957806366ed55a514610109575b600080fd5b6100a760048036038101906100a29190610bf4565b6101a9565b6040516100b49190610c3c565b60405180910390f35b6100d760048036038101906100d29190610c57565b61023c565b005b6100f360048036038101906100ee9190610c57565b610344565b6040516101009190610c3c565b60405180910390f35b610123600480360381019061011e9190610c57565b6103d7565b005b61013f600480360381019061013a9190610c57565b6104d6565b005b61015b60048036038101906101569190610c57565b6105d6565b005b61017760048036038101906101729190610bf4565b6106de565b6040516101849190610e2d565b60405180910390f35b6101a760048036038101906101a29190610f84565b6109a0565b005b6000600160008373ffffffffffffffffffffffffffffffffffffffff1673ffffffffffffffffffffffffffffffffffffffff16815260200190815260200160002060003373ffffffffffffffffffffffffffffffffffffffff1673ffffffffffffffffffffffffffffffffffffffff16815260200190815260200160002060009054906101000a900460ff169050919050565b818073ffffffffffffffffffffffffffffffffffffffff163373ffffffffffffffffffffffffffffffffffffffff16146102ab576040517f08c379a00000000000000000000000000000000000000000000000000000000081526004016102a290611092565b60405180910390fd5b60018060008573ffffffffffffffffffffffffffffffffffffffff1673ffffffffffffffffffffffffffffffffffffffff16815260200190815260200160002060008473ffffffffffffffffffffffffffffffffffffffff1673ffffffffffffffffffffffffffffffffffffffff16815260200190815260200160002060006101000a81548160ff021916908315150217905550505050565b60008060008473ffffffffffffffffffffffffffffffffffffffff1673ffffffffffffffffffffffffffffffffffffffff16815260200190815260200160002060008373ffffffffffffffffffffffffffffffffffffffff1673ffffffffffffffffffffffffffffffffffffffff16815260200190815260200160002060009054906101000a900460ff16905092915050565b818073ffffffffffffffffffffffffffffffffffffffff163373ffffffffffffffffffffffffffffffffffffffff1614610446576040517f08c379a000000000000000000000000000000000000000000000000000000000815260040161043d90611092565b60405180910390fd5b6000808473ffffffffffffffffffffffffffffffffffffffff1673ffffffffffffffffffffffffffffffffffffffff16815260200190815260200160002060008373ffffffffffffffffffffffffffffffffffffffff1673ffffffffffffffffffffffffffffffffffffffff16815260200190815260200160002060006101000a81549060ff0219169055505050565b818073ffffffffffffffffffffffffffffffffffffffff163373ffffffffffffffffffffffffffffffffffffffff1614610545576040517f08c379a000000000000000000000000000000000000000000000000000000000815260040161053c90611092565b60405180910390fd5b600160008473ffffffffffffffffffffffffffffffffffffffff1673ffffffffffffffffffffffffffffffffffffffff16815260200190815260200160002060008373ffffffffffffffffffffffffffffffffffffffff1673ffffffffffffffffffffffffffffffffffffffff16815260200190815260200160002060006101000a81549060ff0219169055505050565b818073ffffffffffffffffffffffffffffffffffffffff163373ffffffffffffffffffffffffffffffffffffffff1614610645576040517f08c379a000000000000000000000000000000000000000000000000000000000815260040161063c90611092565b60405180910390fd5b60016000808573ffffffffffffffffffffffffffffffffffffffff1673ffffffffffffffffffffffffffffffffffffffff16815260200190815260200160002060008473ffffffffffffffffffffffffffffffffffffffff1673ffffffffffffffffffffffffffffffffffffffff16815260200190815260200160002060006101000a81548160ff021916908315150217905550505050565b6060818073ffffffffffffffffffffffffffffffffffffffff163373ffffffffffffffffffffffffffffffffffffffff1614806107a057506000808273ffffffffffffffffffffffffffffffffffffffff1673ffffffffffffffffffffffffffffffffffffffff16815260200190815260200160002060003373ffffffffffffffffffffffffffffffffffffffff1673ffffffffffffffffffffffffffffffffffffffff16815260200190815260200160002060009054906101000a900460ff165b6107df576040517f08c379a00000000000000000000000000000000000000000000000000000000081526004016107d6906110fe565b60405180910390fd5b600260008473ffffffffffffffffffffffffffffffffffffffff1673ffffffffffffffffffffffffffffffffffffffff168152602001908152602001600020805480602002602001604051908101604052809291908181526020016000905b8282101561099457838290600052602060002090600202016040518060400160405290816000820180546108719061114d565b80601f016020809104026020016040519081016040528092919081815260200182805461089d9061114d565b80156108ea5780601f106108bf576101008083540402835291602001916108ea565b820191906000526020600020905b8154815290600101906020018083116108cd57829003601f168201915b505050505081526020016001820180546109039061114d565b80601f016020809104026020016040519081016040528092919081815260200182805461092f9061114d565b801561097c5780601f106109515761010080835404028352916020019161097c565b820191906000526020600020905b81548152906001019060200180831161095f57829003601f168201915b5050505050815250508152602001906001019061083e565b50505050915050919050565b3383600160008273ffffffffffffffffffffffffffffffffffffffff1673ffffffffffffffffffffffffffffffffffffffff16815260200190815260200160002060008373ffffffffffffffffffffffffffffffffffffffff1673ffffffffffffffffffffffffffffffffffffffff16815260200190815260200160002060009054906101000a900460ff16610a6b576040517f08c379a0000000000000000000000000000000000000000000000000000000008152600401610a62906111f0565b60405180910390fd5b600260008673ffffffffffffffffffffffffffffffffffffffff1673ffffffffffffffffffffffffffffffffffffffff16815260200190815260200160002060405180604001604052808681526020018581525090806001815401808255809150506001900390600052602060002090600202016000909190919091506000820151816000019081610afd91906113c6565b506020820151816001019081610b1391906113c6565b5050508473ffffffffffffffffffffffffffffffffffffffff163373ffffffffffffffffffffffffffffffffffffffff167f9d1ce3dae4583f24642eb669b23a4d390ed94b41cd01dc8bbc5582d045e8c67286604051610b7391906114d1565b60405180910390a35050505050565b6000604051905090565b600080fd5b600080fd5b600073ffffffffffffffffffffffffffffffffffffffff82169050919050565b6000610bc182610b96565b9050919050565b610bd181610bb6565b8114610bdc57600080fd5b50565b600081359050610bee81610bc8565b92915050565b600060208284031215610c0a57610c09610b8c565b5b6000610c1884828501610bdf565b91505092915050565b60008115159050919050565b610c3681610c21565b82525050565b6000602082019050610c516000830184610c2d565b92915050565b60008060408385031215610c6e57610c6d610b8c565b5b6000610c7c85828601610bdf565b9250506020610c8d85828601610bdf565b9150509250929050565b600081519050919050565b600082825260208201905092915050565b6000819050602082019050919050565b600081519050919050565b600082825260208201905092915050565b60005b83811015610cfd578082015181840152602081019050610ce2565b60008484015250505050565b6000601f19601f8301169050919050565b6000610d2582610cc3565b610d2f8185610cce565b9350610d3f818560208601610cdf565b610d4881610d09565b840191505092915050565b60006040830160008301518482036000860152610d708282610d1a565b91505060208301518482036020860152610d8a8282610d1a565b9150508091505092915050565b6000610da38383610d53565b905092915050565b6000602082019050919050565b6000610dc382610c97565b610dcd8185610ca2565b935083602082028501610ddf85610cb3565b8060005b85811015610e1b5784840389528151610dfc8582610d97565b9450610e0783610dab565b925060208a01995050600181019050610de3565b50829750879550505050505092915050565b60006020820190508181036000830152610e478184610db8565b905092915050565b600080fd5b600080fd5b7f4e487b7100000000000000000000000000000000000000000000000000000000600052604160045260246000fd5b610e9182610d09565b810181811067ffffffffffffffff82111715610eb057610eaf610e59565b5b80604052505050565b6000610ec3610b82565b9050610ecf8282610e88565b919050565b600067ffffffffffffffff821115610eef57610eee610e59565b5b610ef882610d09565b9050602081019050919050565b82818337600083830152505050565b6000610f27610f2284610ed4565b610eb9565b905082815260208101848484011115610f4357610f42610e54565b5b610f4e848285610f05565b509392505050565b600082601f830112610f6b57610f6a610e4f565b5b8135610f7b848260208601610f14565b91505092915050565b600080600060608486031215610f9d57610f9c610b8c565b5b6000610fab86828701610bdf565b935050602084013567ffffffffffffffff811115610fcc57610fcb610b91565b5b610fd886828701610f56565b925050604084013567ffffffffffffffff811115610ff957610ff8610b91565b5b61100586828701610f56565b9150509250925092565b600082825260208201905092915050565b7f4f6e6c79207468652070617469656e742063616e20706572666f726d2074686960008201527f7320616374696f6e000000000000000000000000000000000000000000000000602082015250565b600061107c60288361100f565b915061108782611020565b604082019050919050565b600060208201905081810360008301526110ab8161106f565b9050919050565b7f4e6f2072656164207065726d697373696f6e0000000000000000000000000000600082015250565b60006110e860128361100f565b91506110f3826110b2565b602082019050919050565b60006020820190508181036000830152611117816110db565b9050919050565b7f4e487b7100000000000000000000000000000000000000000000000000000000600052602260045260246000fd5b6000600282049050600182168061116557607f821691505b6020821081036111785761117761111e565b5b50919050565b7f4f6e6c7920617574686f72697a6564206865616c7468636172652070726f766960008201527f646572732063616e20706572666f726d207468697320616374696f6e00000000602082015250565b60006111da603c8361100f565b91506111e58261117e565b604082019050919050565b60006020820190508181036000830152611209816111cd565b9050919050565b60008190508160005260206000209050919050565b60006020601f8301049050919050565b600082821b905092915050565b6000600883026112727fffffffffffffffffffffffffffffffffffffffffffffffffffffffffffffffff82611235565b61127c8683611235565b95508019841693508086168417925050509392505050565b6000819050919050565b6000819050919050565b60006112c36112be6112b984611294565b61129e565b611294565b9050919050565b6000819050919050565b6112dd836112a8565b6112f16112e9826112ca565b848454611242565b825550505050565b600090565b6113066112f9565b6113118184846112d4565b505050565b5b818110156113355761132a6000826112fe565b600181019050611317565b5050565b601f82111561137a5761134b81611210565b61135484611225565b81016020851015611363578190505b61137761136f85611225565b830182611316565b50505b505050565b600082821c905092915050565b600061139d6000198460080261137f565b1980831691505092915050565b60006113b6838361138c565b9150826002028217905092915050565b6113cf82610cc3565b67ffffffffffffffff8111156113e8576113e7610e59565b5b6113f2825461114d565b6113fd828285611339565b600060209050601f831160018114611430576000841561141e578287015190505b61142885826113aa565b865550611490565b601f19841661143e86611210565b60005b8281101561146657848901518255600182019150602085019450602081019050611441565b86831015611483578489015161147f601f89168261138c565b8355505b6001600288020188555050505b505050505050565b60006114a382610cc3565b6114ad818561100f565b93506114bd818560208601610cdf565b6114c681610d09565b840191505092915050565b600060208201905081810360008301526114eb8184611498565b90509291505056fea2646970667358221220a7c7e4dda3d0b3811c73969d65f73518e0672e1c9432464a9122a48b214f064264736f6c63430008130033",
  "immutableReferences": {},
  "source": "// SPDX-License-Identifier: MIT\npragma solidity 0.8.19;\nimport \"./AccessControl.sol\";\n\ncontract Immunizations is AccessControl{\n    struct Immunization{\n        string vaccine;\n        string administeredDate;\n    }\n\n    mapping(address => Immunization[]) private immunization;\n    event ImmunizationAdded(address indexed providerAddress, address indexed patientAddress, string vaccine);\n\n    function addImmunization(address _patientAddress ,string memory _vaccine, string memory _administeredDate) public write(msg.sender, _patientAddress){\n        immunization[_patientAddress].push(Immunization(_vaccine, _administeredDate));\n        emit ImmunizationAdded(msg.sender, _patientAddress, _vaccine);\n    }\n\n    function getImmunization(address _patientAddress) public view readOnly(_patientAddress) returns (Immunization[] memory){\n        return immunization[_patientAddress];\n    }\n}",
  "sourcePath": "/Users/maauri/Projects/MediChain/contracts/Immunizations.sol",
  "compiler": {
    "name": "solc",
    "version": "0.8.19+commit.7dd6d404.Emscripten.clang"
  },
  "schemaVersion": "3.4.16",
  "updatedAt": "2024-07-12T18:14:56.031Z",
  "networkType": "ethereum",
  "devdoc": {
    "kind": "dev",
    "methods": {},
    "version": 1
  },
  "userdoc": {
    "kind": "user",
    "methods": {},
    "version": 1
  }
}