{
  "contractName": "Insurance",
  "abi": [
    {
      "anonymous": false,
      "inputs": [
        {
          "indexed": true,
          "internalType": "address",
          "name": "providerAdderess",
          "type": "address"
        },
        {
          "indexed": true,
          "internalType": "address",
          "name": "patientAddress",
          "type": "address"
        },
        {
          "indexed": false,
          "internalType": "string",
          "name": "provider",
          "type": "string"
        }
      ],
      "name": "InsuranceUpdated",
      "type": "event"
    },
    {
      "inputs": [
        {
          "internalType": "address",
          "name": "_patient",
          "type": "address"
        },
        {
          "internalType": "address",
          "name": "_provider",
          "type": "address"
        }
      ],
      "name": "grantReadAccess",
      "outputs": [],
      "stateMutability": "nonpayable",
      "type": "function"
    },
    {
      "inputs": [
        {
          "internalType": "address",
          "name": "_patient",
          "type": "address"
        },
        {
          "internalType": "address",
          "name": "_provider",
          "type": "address"
        }
      ],
      "name": "grantUpdateAccess",
      "outputs": [],
      "stateMutability": "nonpayable",
      "type": "function"
    },
    {
      "inputs": [
        {
          "internalType": "address",
          "name": "_patient",
          "type": "address"
        }
      ],
      "name": "hasAddPermission",
      "outputs": [
        {
          "internalType": "bool",
          "name": "",
          "type": "bool"
        }
      ],
      "stateMutability": "view",
      "type": "function",
      "constant": true
    },
    {
      "inputs": [
        {
          "internalType": "address",
          "name": "_patient",
          "type": "address"
        },
        {
          "internalType": "address",
          "name": "_provider",
          "type": "address"
        }
      ],
      "name": "hasReadPermission",
      "outputs": [
        {
          "internalType": "bool",
          "name": "",
          "type": "bool"
        }
      ],
      "stateMutability": "view",
      "type": "function",
      "constant": true
    },
    {
      "inputs": [
        {
          "internalType": "address",
          "name": "_patient",
          "type": "address"
        },
        {
          "internalType": "address",
          "name": "_provider",
          "type": "address"
        }
      ],
      "name": "revokeReadAccess",
      "outputs": [],
      "stateMutability": "nonpayable",
      "type": "function"
    },
    {
      "inputs": [
        {
          "internalType": "address",
          "name": "_patient",
          "type": "address"
        },
        {
          "internalType": "address",
          "name": "_provider",
          "type": "address"
        }
      ],
      "name": "revokeUpdateAccess",
      "outputs": [],
      "stateMutability": "nonpayable",
      "type": "function"
    },
    {
      "inputs": [
        {
          "internalType": "address",
          "name": "_patient",
          "type": "address"
        },
        {
          "internalType": "string",
          "name": "_provider",
          "type": "string"
        },
        {
          "internalType": "string",
          "name": "_policyNumber",
          "type": "string"
        },
        {
          "internalType": "string",
          "name": "_coverageDetails",
          "type": "string"
        },
        {
          "internalType": "uint256",
          "name": "_coverageLimit",
          "type": "uint256"
        },
        {
          "internalType": "string",
          "name": "_effectiveDateStart",
          "type": "string"
        },
        {
          "internalType": "string",
          "name": "_effectiveDateEnd",
          "type": "string"
        },
        {
          "internalType": "string",
          "name": "_contactInfo",
          "type": "string"
        }
      ],
      "name": "setInsurance",
      "outputs": [],
      "stateMutability": "nonpayable",
      "type": "function"
    },
    {
      "inputs": [
        {
          "internalType": "address",
          "name": "_patientAddress",
          "type": "address"
        }
      ],
      "name": "getInsurance",
      "outputs": [
        {
          "internalType": "string",
          "name": "",
          "type": "string"
        },
        {
          "internalType": "string",
          "name": "",
          "type": "string"
        },
        {
          "internalType": "string",
          "name": "",
          "type": "string"
        },
        {
          "internalType": "uint256",
          "name": "",
          "type": "uint256"
        },
        {
          "internalType": "string",
          "name": "",
          "type": "string"
        },
        {
          "internalType": "string",
          "name": "",
          "type": "string"
        },
        {
          "internalType": "string",
          "name": "",
          "type": "string"
        }
      ],
      "stateMutability": "view",
      "type": "function",
      "constant": true
    }
  ],
  "bytecode": "0x608060405234801561000f575f80fd5b506116978061001d5f395ff3fe608060405234801561000f575f80fd5b5060043610610086575f3560e01c806366ed55a51161005957806366ed55a51461013c5780636aea790d14610158578063ca80024d14610174578063d69c1cdb1461019057610086565b80631677c5001461008a578063272acd7f146100c057806356096536146100f05780636448965a1461010c575b5f80fd5b6100a4600480360381019061009f9190610d70565b6101ac565b6040516100b79796959493929190610e3d565b60405180910390f35b6100da60048036038101906100d59190610d70565b6106a2565b6040516100e79190610eee565b60405180910390f35b61010a60048036038101906101059190610f07565b61072e565b005b61012660048036038101906101219190610f07565b6107ac565b6040516101339190610eee565b60405180910390f35b61015660048036038101906101519190610f07565b610839565b005b610172600480360381019061016d9190610f07565b6108b7565b005b61018e60048036038101906101899190610f07565b610935565b005b6101aa60048036038101906101a5919061109b565b6109b3565b005b60608060605f6060806060878073ffffffffffffffffffffffffffffffffffffffff163373ffffffffffffffffffffffffffffffffffffffff16148061027257505f808273ffffffffffffffffffffffffffffffffffffffff1673ffffffffffffffffffffffffffffffffffffffff1681526020019081526020015f205f3373ffffffffffffffffffffffffffffffffffffffff1673ffffffffffffffffffffffffffffffffffffffff1681526020019081526020015f205f9054906101000a900460ff165b6102b1576040517f08c379a00000000000000000000000000000000000000000000000000000000081526004016102a89061123e565b60405180910390fd5b5f60015f8b73ffffffffffffffffffffffffffffffffffffffff1673ffffffffffffffffffffffffffffffffffffffff1681526020019081526020015f206040518060e00160405290815f8201805461030990611289565b80601f016020809104026020016040519081016040528092919081815260200182805461033590611289565b80156103805780601f1061035757610100808354040283529160200191610380565b820191905f5260205f20905b81548152906001019060200180831161036357829003601f168201915b5050505050815260200160018201805461039990611289565b80601f01602080910402602001604051908101604052809291908181526020018280546103c590611289565b80156104105780601f106103e757610100808354040283529160200191610410565b820191905f5260205f20905b8154815290600101906020018083116103f357829003601f168201915b5050505050815260200160028201805461042990611289565b80601f016020809104026020016040519081016040528092919081815260200182805461045590611289565b80156104a05780601f10610477576101008083540402835291602001916104a0565b820191905f5260205f20905b81548152906001019060200180831161048357829003601f168201915b50505050508152602001600382015481526020016004820180546104c390611289565b80601f01602080910402602001604051908101604052809291908181526020018280546104ef90611289565b801561053a5780601f106105115761010080835404028352916020019161053a565b820191905f5260205f20905b81548152906001019060200180831161051d57829003601f168201915b5050505050815260200160058201805461055390611289565b80601f016020809104026020016040519081016040528092919081815260200182805461057f90611289565b80156105ca5780601f106105a1576101008083540402835291602001916105ca565b820191905f5260205f20905b8154815290600101906020018083116105ad57829003601f168201915b505050505081526020016006820180546105e390611289565b80601f016020809104026020016040519081016040528092919081815260200182805461060f90611289565b801561065a5780601f106106315761010080835404028352916020019161065a565b820191905f5260205f20905b81548152906001019060200180831161063d57829003601f168201915b5050505050815250509050805f015181602001518260400151836060015184608001518560a001518660c0015198509850985098509850985098505050919395979092949650565b5f805f8373ffffffffffffffffffffffffffffffffffffffff1673ffffffffffffffffffffffffffffffffffffffff1681526020019081526020015f205f3373ffffffffffffffffffffffffffffffffffffffff1673ffffffffffffffffffffffffffffffffffffffff1681526020019081526020015f205f9054906101000a900460ff169050919050565b818073ffffffffffffffffffffffffffffffffffffffff163373ffffffffffffffffffffffffffffffffffffffff161461079d576040517f08c379a000000000000000000000000000000000000000000000000000000000815260040161079490611329565b60405180910390fd5b6107a78383610be8565b505050565b5f805f8473ffffffffffffffffffffffffffffffffffffffff1673ffffffffffffffffffffffffffffffffffffffff1681526020019081526020015f205f8373ffffffffffffffffffffffffffffffffffffffff1673ffffffffffffffffffffffffffffffffffffffff1681526020019081526020015f205f9054906101000a900460ff16905092915050565b818073ffffffffffffffffffffffffffffffffffffffff163373ffffffffffffffffffffffffffffffffffffffff16146108a8576040517f08c379a000000000000000000000000000000000000000000000000000000000815260040161089f90611329565b60405180910390fd5b6108b28383610c7b565b505050565b818073ffffffffffffffffffffffffffffffffffffffff163373ffffffffffffffffffffffffffffffffffffffff1614610926576040517f08c379a000000000000000000000000000000000000000000000000000000000815260040161091d90611329565b60405180910390fd5b6109308383610c7b565b505050565b818073ffffffffffffffffffffffffffffffffffffffff163373ffffffffffffffffffffffffffffffffffffffff16146109a4576040517f08c379a000000000000000000000000000000000000000000000000000000000815260040161099b90611329565b60405180910390fd5b6109ae8383610be8565b505050565b33885f808273ffffffffffffffffffffffffffffffffffffffff1673ffffffffffffffffffffffffffffffffffffffff1681526020019081526020015f205f8373ffffffffffffffffffffffffffffffffffffffff1673ffffffffffffffffffffffffffffffffffffffff1681526020019081526020015f205f9054906101000a900460ff16610a78576040517f08c379a0000000000000000000000000000000000000000000000000000000008152600401610a6f906113b7565b60405180910390fd5b6040518060e001604052808a81526020018981526020018881526020018781526020018681526020018581526020018481525060015f8c73ffffffffffffffffffffffffffffffffffffffff1673ffffffffffffffffffffffffffffffffffffffff1681526020019081526020015f205f820151815f019081610afb9190611572565b506020820151816001019081610b119190611572565b506040820151816002019081610b279190611572565b50606082015181600301556080820151816004019081610b479190611572565b5060a0820151816005019081610b5d9190611572565b5060c0820151816006019081610b739190611572565b509050508973ffffffffffffffffffffffffffffffffffffffff163373ffffffffffffffffffffffffffffffffffffffff167f4b9b3b641d1518f8ec8bf5f184c7df7aabf386e00fddb80c79db5deeae71e8008b604051610bd49190611641565b60405180910390a350505050505050505050565b60015f808473ffffffffffffffffffffffffffffffffffffffff1673ffffffffffffffffffffffffffffffffffffffff1681526020019081526020015f205f8373ffffffffffffffffffffffffffffffffffffffff1673ffffffffffffffffffffffffffffffffffffffff1681526020019081526020015f205f6101000a81548160ff0219169083151502179055505050565b5f808373ffffffffffffffffffffffffffffffffffffffff1673ffffffffffffffffffffffffffffffffffffffff1681526020019081526020015f205f8273ffffffffffffffffffffffffffffffffffffffff1673ffffffffffffffffffffffffffffffffffffffff1681526020019081526020015f205f6101000a81549060ff02191690555050565b5f604051905090565b5f80fd5b5f80fd5b5f73ffffffffffffffffffffffffffffffffffffffff82169050919050565b5f610d3f82610d16565b9050919050565b610d4f81610d35565b8114610d59575f80fd5b50565b5f81359050610d6a81610d46565b92915050565b5f60208284031215610d8557610d84610d0e565b5b5f610d9284828501610d5c565b91505092915050565b5f81519050919050565b5f82825260208201905092915050565b5f5b83811015610dd2578082015181840152602081019050610db7565b5f8484015250505050565b5f601f19601f8301169050919050565b5f610df782610d9b565b610e018185610da5565b9350610e11818560208601610db5565b610e1a81610ddd565b840191505092915050565b5f819050919050565b610e3781610e25565b82525050565b5f60e0820190508181035f830152610e55818a610ded565b90508181036020830152610e698189610ded565b90508181036040830152610e7d8188610ded565b9050610e8c6060830187610e2e565b8181036080830152610e9e8186610ded565b905081810360a0830152610eb28185610ded565b905081810360c0830152610ec68184610ded565b905098975050505050505050565b5f8115159050919050565b610ee881610ed4565b82525050565b5f602082019050610f015f830184610edf565b92915050565b5f8060408385031215610f1d57610f1c610d0e565b5b5f610f2a85828601610d5c565b9250506020610f3b85828601610d5c565b9150509250929050565b5f80fd5b5f80fd5b7f4e487b71000000000000000000000000000000000000000000000000000000005f52604160045260245ffd5b610f8382610ddd565b810181811067ffffffffffffffff82111715610fa257610fa1610f4d565b5b80604052505050565b5f610fb4610d05565b9050610fc08282610f7a565b919050565b5f67ffffffffffffffff821115610fdf57610fde610f4d565b5b610fe882610ddd565b9050602081019050919050565b828183375f83830152505050565b5f61101561101084610fc5565b610fab565b90508281526020810184848401111561103157611030610f49565b5b61103c848285610ff5565b509392505050565b5f82601f83011261105857611057610f45565b5b8135611068848260208601611003565b91505092915050565b61107a81610e25565b8114611084575f80fd5b50565b5f8135905061109581611071565b92915050565b5f805f805f805f80610100898b0312156110b8576110b7610d0e565b5b5f6110c58b828c01610d5c565b985050602089013567ffffffffffffffff8111156110e6576110e5610d12565b5b6110f28b828c01611044565b975050604089013567ffffffffffffffff81111561111357611112610d12565b5b61111f8b828c01611044565b965050606089013567ffffffffffffffff8111156111405761113f610d12565b5b61114c8b828c01611044565b955050608061115d8b828c01611087565b94505060a089013567ffffffffffffffff81111561117e5761117d610d12565b5b61118a8b828c01611044565b93505060c089013567ffffffffffffffff8111156111ab576111aa610d12565b5b6111b78b828c01611044565b92505060e089013567ffffffffffffffff8111156111d8576111d7610d12565b5b6111e48b828c01611044565b9150509295985092959890939650565b7f4e6f2072656164207065726d697373696f6e00000000000000000000000000005f82015250565b5f611228601283610da5565b9150611233826111f4565b602082019050919050565b5f6020820190508181035f8301526112558161121c565b9050919050565b7f4e487b71000000000000000000000000000000000000000000000000000000005f52602260045260245ffd5b5f60028204905060018216806112a057607f821691505b6020821081036112b3576112b261125c565b5b50919050565b7f4f6e6c79207468652070617469656e742063616e20706572666f726d207468695f8201527f7320616374696f6e000000000000000000000000000000000000000000000000602082015250565b5f611313602883610da5565b915061131e826112b9565b604082019050919050565b5f6020820190508181035f83015261134081611307565b9050919050565b7f4f6e6c7920617574686f72697a6564206865616c7468636172652070726f76695f8201527f646572732063616e20706572666f726d207468697320616374696f6e00000000602082015250565b5f6113a1603c83610da5565b91506113ac82611347565b604082019050919050565b5f6020820190508181035f8301526113ce81611395565b9050919050565b5f819050815f5260205f209050919050565b5f6020601f8301049050919050565b5f82821b905092915050565b5f600883026114317fffffffffffffffffffffffffffffffffffffffffffffffffffffffffffffffff826113f6565b61143b86836113f6565b95508019841693508086168417925050509392505050565b5f819050919050565b5f61147661147161146c84610e25565b611453565b610e25565b9050919050565b5f819050919050565b61148f8361145c565b6114a361149b8261147d565b848454611402565b825550505050565b5f90565b6114b76114ab565b6114c2818484611486565b505050565b5b818110156114e5576114da5f826114af565b6001810190506114c8565b5050565b601f82111561152a576114fb816113d5565b611504846113e7565b81016020851015611513578190505b61152761151f856113e7565b8301826114c7565b50505b505050565b5f82821c905092915050565b5f61154a5f198460080261152f565b1980831691505092915050565b5f611562838361153b565b9150826002028217905092915050565b61157b82610d9b565b67ffffffffffffffff81111561159457611593610f4d565b5b61159e8254611289565b6115a98282856114e9565b5f60209050601f8311600181146115da575f84156115c8578287015190505b6115d28582611557565b865550611639565b601f1984166115e8866113d5565b5f5b8281101561160f578489015182556001820191506020850194506020810190506115ea565b8683101561162c5784890151611628601f89168261153b565b8355505b6001600288020188555050505b505050505050565b5f6020820190508181035f8301526116598184610ded565b90509291505056fea2646970667358221220df2594308a30840b255303852420f3cdd13faa610c1b7f08fc94d35a95615f0964736f6c63430008150033",
  "immutableReferences": {},
  "source": "// SPDX-License-Identifier: MIT\npragma solidity ^0.8.0;\nimport \"./AccessControl.sol\";\n\ncontract Insurance is AccessControl{\n    struct InsuranceDetails{\n        string provider;\n        string policyNumber;\n        string coverageDetails;\n        uint256 coverageLimit;\n        string effectiveDateStart;\n        string effectiveDateEnd;\n        string contactInfo;\n    }\n\n    mapping(address => InsuranceDetails) private insurance;\n\n    event InsuranceUpdated(address indexed providerAdderess, address indexed patientAddress, string provider);\n\n    function setInsurance(\n        address _patient,\n        string memory _provider,\n        string memory _policyNumber,\n        string memory _coverageDetails,\n        uint256 _coverageLimit,\n        string memory _effectiveDateStart,\n        string memory _effectiveDateEnd,\n        string memory _contactInfo\n    ) public onlyProvider(msg.sender, _patient){\n        insurance[_patient] = InsuranceDetails(\n            _provider,\n            _policyNumber,\n            _coverageDetails,\n            _coverageLimit,\n            _effectiveDateStart,\n            _effectiveDateEnd,\n            _contactInfo\n        );\n        emit InsuranceUpdated(msg.sender, _patient, _provider);\n\n    }\n\n    function getInsurance(address _patientAddress) public view onlyProviderOrPatient(_patientAddress) returns(\n        string memory,\n        string memory,\n        string memory,\n        uint256,\n        string memory,\n        string memory,\n        string memory\n    ){\n        InsuranceDetails memory ins = insurance[_patientAddress];\n        return(\n            ins.provider,\n            ins.policyNumber,\n            ins.coverageDetails,\n            ins.coverageLimit,\n            ins.effectiveDateStart,\n            ins.effectiveDateEnd,\n            ins.contactInfo\n        );\n    }\n\n\n\n}",
  "sourcePath": "/Users/maauri/Projects/MediChain/contracts/Insurance.sol",
  "compiler": {
    "name": "solc",
    "version": "0.8.21+commit.d9974bed.Emscripten.clang"
  },
  "schemaVersion": "3.4.16",
  "updatedAt": "2024-06-06T01:22:17.646Z",
  "networkType": "ethereum",
  "devdoc": {
    "kind": "dev",
    "methods": {},
    "version": 1
  },
  "userdoc": {
    "kind": "user",
    "methods": {},
    "version": 1
  }
}