{
  "contractName": "Insurance",
  "abi": [
    {
      "anonymous": false,
      "inputs": [
        {
          "indexed": true,
          "internalType": "address",
          "name": "providerAdderess",
          "type": "address"
        },
        {
          "indexed": true,
          "internalType": "address",
          "name": "patientAddress",
          "type": "address"
        },
        {
          "indexed": false,
          "internalType": "string",
          "name": "provider",
          "type": "string"
        }
      ],
      "name": "InsuranceUpdated",
      "type": "event"
    },
    {
      "inputs": [
        {
          "internalType": "address",
          "name": "_patient",
          "type": "address"
        },
        {
          "internalType": "address",
          "name": "_provider",
          "type": "address"
        }
      ],
      "name": "grantReadAccess",
      "outputs": [],
      "stateMutability": "nonpayable",
      "type": "function"
    },
    {
      "inputs": [
        {
          "internalType": "address",
          "name": "_patient",
          "type": "address"
        },
        {
          "internalType": "address",
          "name": "_provider",
          "type": "address"
        }
      ],
      "name": "grantUpdateAccess",
      "outputs": [],
      "stateMutability": "nonpayable",
      "type": "function"
    },
    {
      "inputs": [
        {
          "internalType": "address",
          "name": "_patient",
          "type": "address"
        }
      ],
      "name": "hasAddPermission",
      "outputs": [
        {
          "internalType": "bool",
          "name": "",
          "type": "bool"
        }
      ],
      "stateMutability": "view",
      "type": "function",
      "constant": true
    },
    {
      "inputs": [
        {
          "internalType": "address",
          "name": "_patient",
          "type": "address"
        },
        {
          "internalType": "address",
          "name": "_provider",
          "type": "address"
        }
      ],
      "name": "hasReadPermission",
      "outputs": [
        {
          "internalType": "bool",
          "name": "",
          "type": "bool"
        }
      ],
      "stateMutability": "view",
      "type": "function",
      "constant": true
    },
    {
      "inputs": [
        {
          "internalType": "address",
          "name": "_patient",
          "type": "address"
        },
        {
          "internalType": "address",
          "name": "_provider",
          "type": "address"
        }
      ],
      "name": "revokeReadAccess",
      "outputs": [],
      "stateMutability": "nonpayable",
      "type": "function"
    },
    {
      "inputs": [
        {
          "internalType": "address",
          "name": "_patient",
          "type": "address"
        },
        {
          "internalType": "address",
          "name": "_provider",
          "type": "address"
        }
      ],
      "name": "revokeUpdateAccess",
      "outputs": [],
      "stateMutability": "nonpayable",
      "type": "function"
    },
    {
      "inputs": [
        {
          "internalType": "address",
          "name": "_patient",
          "type": "address"
        },
        {
          "internalType": "string",
          "name": "_provider",
          "type": "string"
        },
        {
          "internalType": "string",
          "name": "_policyNumber",
          "type": "string"
        },
        {
          "internalType": "string",
          "name": "_coverageDetails",
          "type": "string"
        },
        {
          "internalType": "uint256",
          "name": "_coverageLimit",
          "type": "uint256"
        },
        {
          "internalType": "string",
          "name": "_effectiveDateStart",
          "type": "string"
        },
        {
          "internalType": "string",
          "name": "_effectiveDateEnd",
          "type": "string"
        },
        {
          "internalType": "string",
          "name": "_contactInfo",
          "type": "string"
        }
      ],
      "name": "setInsurance",
      "outputs": [],
      "stateMutability": "nonpayable",
      "type": "function"
    },
    {
      "inputs": [
        {
          "internalType": "address",
          "name": "_patientAddress",
          "type": "address"
        }
      ],
      "name": "getInsurance",
      "outputs": [
        {
          "internalType": "string",
          "name": "",
          "type": "string"
        },
        {
          "internalType": "string",
          "name": "",
          "type": "string"
        },
        {
          "internalType": "string",
          "name": "",
          "type": "string"
        },
        {
          "internalType": "uint256",
          "name": "",
          "type": "uint256"
        },
        {
          "internalType": "string",
          "name": "",
          "type": "string"
        },
        {
          "internalType": "string",
          "name": "",
          "type": "string"
        },
        {
          "internalType": "string",
          "name": "",
          "type": "string"
        }
      ],
      "stateMutability": "view",
      "type": "function",
      "constant": true
    }
  ],
  "bytecode": "0x608060405234801561001057600080fd5b5061171a806100206000396000f3fe608060405234801561001057600080fd5b50600436106100885760003560e01c806366ed55a51161005b57806366ed55a51461013f5780636aea790d1461015b578063ca80024d14610177578063d69c1cdb1461019357610088565b80631677c5001461008d578063272acd7f146100c357806356096536146100f35780636448965a1461010f575b600080fd5b6100a760048036038101906100a29190610db0565b6101af565b6040516100ba9796959493929190610e86565b60405180910390f35b6100dd60048036038101906100d89190610db0565b6106bc565b6040516100ea9190610f3a565b60405180910390f35b61010d60048036038101906101089190610f55565b61074e565b005b61012960048036038101906101249190610f55565b6107cc565b6040516101369190610f3a565b60405180910390f35b61015960048036038101906101549190610f55565b61085f565b005b61017560048036038101906101709190610f55565b6108dd565b005b610191600480360381019061018c9190610f55565b61095b565b005b6101ad60048036038101906101a891906110f6565b6109d9565b005b606080606060006060806060878073ffffffffffffffffffffffffffffffffffffffff163373ffffffffffffffffffffffffffffffffffffffff16148061027b57506000808273ffffffffffffffffffffffffffffffffffffffff1673ffffffffffffffffffffffffffffffffffffffff16815260200190815260200160002060003373ffffffffffffffffffffffffffffffffffffffff1673ffffffffffffffffffffffffffffffffffffffff16815260200190815260200160002060009054906101000a900460ff165b6102ba576040517f08c379a00000000000000000000000000000000000000000000000000000000081526004016102b1906112a0565b60405180910390fd5b6000600160008b73ffffffffffffffffffffffffffffffffffffffff1673ffffffffffffffffffffffffffffffffffffffff1681526020019081526020016000206040518060e0016040529081600082018054610316906112ef565b80601f0160208091040260200160405190810160405280929190818152602001828054610342906112ef565b801561038f5780601f106103645761010080835404028352916020019161038f565b820191906000526020600020905b81548152906001019060200180831161037257829003601f168201915b505050505081526020016001820180546103a8906112ef565b80601f01602080910402602001604051908101604052809291908181526020018280546103d4906112ef565b80156104215780601f106103f657610100808354040283529160200191610421565b820191906000526020600020905b81548152906001019060200180831161040457829003601f168201915b5050505050815260200160028201805461043a906112ef565b80601f0160208091040260200160405190810160405280929190818152602001828054610466906112ef565b80156104b35780601f10610488576101008083540402835291602001916104b3565b820191906000526020600020905b81548152906001019060200180831161049657829003601f168201915b50505050508152602001600382015481526020016004820180546104d6906112ef565b80601f0160208091040260200160405190810160405280929190818152602001828054610502906112ef565b801561054f5780601f106105245761010080835404028352916020019161054f565b820191906000526020600020905b81548152906001019060200180831161053257829003601f168201915b50505050508152602001600582018054610568906112ef565b80601f0160208091040260200160405190810160405280929190818152602001828054610594906112ef565b80156105e15780601f106105b6576101008083540402835291602001916105e1565b820191906000526020600020905b8154815290600101906020018083116105c457829003601f168201915b505050505081526020016006820180546105fa906112ef565b80601f0160208091040260200160405190810160405280929190818152602001828054610626906112ef565b80156106735780601f1061064857610100808354040283529160200191610673565b820191906000526020600020905b81548152906001019060200180831161065657829003601f168201915b5050505050815250509050806000015181602001518260400151836060015184608001518560a001518660c0015198509850985098509850985098505050919395979092949650565b60008060008373ffffffffffffffffffffffffffffffffffffffff1673ffffffffffffffffffffffffffffffffffffffff16815260200190815260200160002060003373ffffffffffffffffffffffffffffffffffffffff1673ffffffffffffffffffffffffffffffffffffffff16815260200190815260200160002060009054906101000a900460ff169050919050565b818073ffffffffffffffffffffffffffffffffffffffff163373ffffffffffffffffffffffffffffffffffffffff16146107bd576040517f08c379a00000000000000000000000000000000000000000000000000000000081526004016107b490611392565b60405180910390fd5b6107c78383610c17565b505050565b60008060008473ffffffffffffffffffffffffffffffffffffffff1673ffffffffffffffffffffffffffffffffffffffff16815260200190815260200160002060008373ffffffffffffffffffffffffffffffffffffffff1673ffffffffffffffffffffffffffffffffffffffff16815260200190815260200160002060009054906101000a900460ff16905092915050565b818073ffffffffffffffffffffffffffffffffffffffff163373ffffffffffffffffffffffffffffffffffffffff16146108ce576040517f08c379a00000000000000000000000000000000000000000000000000000000081526004016108c590611392565b60405180910390fd5b6108d88383610caf565b505050565b818073ffffffffffffffffffffffffffffffffffffffff163373ffffffffffffffffffffffffffffffffffffffff161461094c576040517f08c379a000000000000000000000000000000000000000000000000000000000815260040161094390611392565b60405180910390fd5b6109568383610caf565b505050565b818073ffffffffffffffffffffffffffffffffffffffff163373ffffffffffffffffffffffffffffffffffffffff16146109ca576040517f08c379a00000000000000000000000000000000000000000000000000000000081526004016109c190611392565b60405180910390fd5b6109d48383610c17565b505050565b33886000808273ffffffffffffffffffffffffffffffffffffffff1673ffffffffffffffffffffffffffffffffffffffff16815260200190815260200160002060008373ffffffffffffffffffffffffffffffffffffffff1673ffffffffffffffffffffffffffffffffffffffff16815260200190815260200160002060009054906101000a900460ff16610aa3576040517f08c379a0000000000000000000000000000000000000000000000000000000008152600401610a9a90611424565b60405180910390fd5b6040518060e001604052808a815260200189815260200188815260200187815260200186815260200185815260200184815250600160008c73ffffffffffffffffffffffffffffffffffffffff1673ffffffffffffffffffffffffffffffffffffffff1681526020019081526020016000206000820151816000019081610b2a91906115f0565b506020820151816001019081610b4091906115f0565b506040820151816002019081610b5691906115f0565b50606082015181600301556080820151816004019081610b7691906115f0565b5060a0820151816005019081610b8c91906115f0565b5060c0820151816006019081610ba291906115f0565b509050508973ffffffffffffffffffffffffffffffffffffffff163373ffffffffffffffffffffffffffffffffffffffff167f4b9b3b641d1518f8ec8bf5f184c7df7aabf386e00fddb80c79db5deeae71e8008b604051610c0391906116c2565b60405180910390a350505050505050505050565b60016000808473ffffffffffffffffffffffffffffffffffffffff1673ffffffffffffffffffffffffffffffffffffffff16815260200190815260200160002060008373ffffffffffffffffffffffffffffffffffffffff1673ffffffffffffffffffffffffffffffffffffffff16815260200190815260200160002060006101000a81548160ff0219169083151502179055505050565b6000808373ffffffffffffffffffffffffffffffffffffffff1673ffffffffffffffffffffffffffffffffffffffff16815260200190815260200160002060008273ffffffffffffffffffffffffffffffffffffffff1673ffffffffffffffffffffffffffffffffffffffff16815260200190815260200160002060006101000a81549060ff02191690555050565b6000604051905090565b600080fd5b600080fd5b600073ffffffffffffffffffffffffffffffffffffffff82169050919050565b6000610d7d82610d52565b9050919050565b610d8d81610d72565b8114610d9857600080fd5b50565b600081359050610daa81610d84565b92915050565b600060208284031215610dc657610dc5610d48565b5b6000610dd484828501610d9b565b91505092915050565b600081519050919050565b600082825260208201905092915050565b60005b83811015610e17578082015181840152602081019050610dfc565b60008484015250505050565b6000601f19601f8301169050919050565b6000610e3f82610ddd565b610e498185610de8565b9350610e59818560208601610df9565b610e6281610e23565b840191505092915050565b6000819050919050565b610e8081610e6d565b82525050565b600060e0820190508181036000830152610ea0818a610e34565b90508181036020830152610eb48189610e34565b90508181036040830152610ec88188610e34565b9050610ed76060830187610e77565b8181036080830152610ee98186610e34565b905081810360a0830152610efd8185610e34565b905081810360c0830152610f118184610e34565b905098975050505050505050565b60008115159050919050565b610f3481610f1f565b82525050565b6000602082019050610f4f6000830184610f2b565b92915050565b60008060408385031215610f6c57610f6b610d48565b5b6000610f7a85828601610d9b565b9250506020610f8b85828601610d9b565b9150509250929050565b600080fd5b600080fd5b7f4e487b7100000000000000000000000000000000000000000000000000000000600052604160045260246000fd5b610fd782610e23565b810181811067ffffffffffffffff82111715610ff657610ff5610f9f565b5b80604052505050565b6000611009610d3e565b90506110158282610fce565b919050565b600067ffffffffffffffff82111561103557611034610f9f565b5b61103e82610e23565b9050602081019050919050565b82818337600083830152505050565b600061106d6110688461101a565b610fff565b90508281526020810184848401111561108957611088610f9a565b5b61109484828561104b565b509392505050565b600082601f8301126110b1576110b0610f95565b5b81356110c184826020860161105a565b91505092915050565b6110d381610e6d565b81146110de57600080fd5b50565b6000813590506110f0816110ca565b92915050565b600080600080600080600080610100898b03121561111757611116610d48565b5b60006111258b828c01610d9b565b985050602089013567ffffffffffffffff81111561114657611145610d4d565b5b6111528b828c0161109c565b975050604089013567ffffffffffffffff81111561117357611172610d4d565b5b61117f8b828c0161109c565b965050606089013567ffffffffffffffff8111156111a05761119f610d4d565b5b6111ac8b828c0161109c565b95505060806111bd8b828c016110e1565b94505060a089013567ffffffffffffffff8111156111de576111dd610d4d565b5b6111ea8b828c0161109c565b93505060c089013567ffffffffffffffff81111561120b5761120a610d4d565b5b6112178b828c0161109c565b92505060e089013567ffffffffffffffff81111561123857611237610d4d565b5b6112448b828c0161109c565b9150509295985092959890939650565b7f4e6f2072656164207065726d697373696f6e0000000000000000000000000000600082015250565b600061128a601283610de8565b915061129582611254565b602082019050919050565b600060208201905081810360008301526112b98161127d565b9050919050565b7f4e487b7100000000000000000000000000000000000000000000000000000000600052602260045260246000fd5b6000600282049050600182168061130757607f821691505b60208210810361131a576113196112c0565b5b50919050565b7f4f6e6c79207468652070617469656e742063616e20706572666f726d2074686960008201527f7320616374696f6e000000000000000000000000000000000000000000000000602082015250565b600061137c602883610de8565b915061138782611320565b604082019050919050565b600060208201905081810360008301526113ab8161136f565b9050919050565b7f4f6e6c7920617574686f72697a6564206865616c7468636172652070726f766960008201527f646572732063616e20706572666f726d207468697320616374696f6e00000000602082015250565b600061140e603c83610de8565b9150611419826113b2565b604082019050919050565b6000602082019050818103600083015261143d81611401565b9050919050565b60008190508160005260206000209050919050565b60006020601f8301049050919050565b600082821b905092915050565b6000600883026114a67fffffffffffffffffffffffffffffffffffffffffffffffffffffffffffffffff82611469565b6114b08683611469565b95508019841693508086168417925050509392505050565b6000819050919050565b60006114ed6114e86114e384610e6d565b6114c8565b610e6d565b9050919050565b6000819050919050565b611507836114d2565b61151b611513826114f4565b848454611476565b825550505050565b600090565b611530611523565b61153b8184846114fe565b505050565b5b8181101561155f57611554600082611528565b600181019050611541565b5050565b601f8211156115a45761157581611444565b61157e84611459565b8101602085101561158d578190505b6115a161159985611459565b830182611540565b50505b505050565b600082821c905092915050565b60006115c7600019846008026115a9565b1980831691505092915050565b60006115e083836115b6565b9150826002028217905092915050565b6115f982610ddd565b67ffffffffffffffff81111561161257611611610f9f565b5b61161c82546112ef565b611627828285611563565b600060209050601f83116001811461165a5760008415611648578287015190505b61165285826115d4565b8655506116ba565b601f19841661166886611444565b60005b828110156116905784890151825560018201915060208501945060208101905061166b565b868310156116ad57848901516116a9601f8916826115b6565b8355505b6001600288020188555050505b505050505050565b600060208201905081810360008301526116dc8184610e34565b90509291505056fea2646970667358221220e65980cf04e29447d5e6dcefaddd920d1913f666fbebc6526159ac3c918f509964736f6c63430008130033",
  "immutableReferences": {},
  "source": "// SPDX-License-Identifier: MIT\npragma solidity 0.8.19;\nimport \"./AccessControl.sol\";\n\ncontract Insurance is AccessControl{\n    struct InsuranceDetails{\n        string provider;\n        string policyNumber;\n        string coverageDetails;\n        uint256 coverageLimit;\n        string effectiveDateStart;\n        string effectiveDateEnd;\n        string contactInfo;\n    }\n\n    mapping(address => InsuranceDetails) private insurance;\n\n    event InsuranceUpdated(address indexed providerAdderess, address indexed patientAddress, string provider);\n\n    function setInsurance(\n        address _patient,\n        string memory _provider,\n        string memory _policyNumber,\n        string memory _coverageDetails,\n        uint256 _coverageLimit,\n        string memory _effectiveDateStart,\n        string memory _effectiveDateEnd,\n        string memory _contactInfo\n    ) public onlyProvider(msg.sender, _patient){\n        insurance[_patient] = InsuranceDetails(\n            _provider,\n            _policyNumber,\n            _coverageDetails,\n            _coverageLimit,\n            _effectiveDateStart,\n            _effectiveDateEnd,\n            _contactInfo\n        );\n        emit InsuranceUpdated(msg.sender, _patient, _provider);\n\n    }\n\n    function getInsurance(address _patientAddress) public view onlyProviderOrPatient(_patientAddress) returns(\n        string memory,\n        string memory,\n        string memory,\n        uint256,\n        string memory,\n        string memory,\n        string memory\n    ){\n        InsuranceDetails memory ins = insurance[_patientAddress];\n        return(\n            ins.provider,\n            ins.policyNumber,\n            ins.coverageDetails,\n            ins.coverageLimit,\n            ins.effectiveDateStart,\n            ins.effectiveDateEnd,\n            ins.contactInfo\n        );\n    }\n\n\n\n}",
  "sourcePath": "/Users/ishanpathak/Desktop/Summer Projects/MediChain/contracts/Insurance.sol",
  "compiler": {
    "name": "solc",
    "version": "0.8.19+commit.7dd6d404.Emscripten.clang"
  },
  "schemaVersion": "3.4.16",
  "updatedAt": "2024-06-16T23:50:15.320Z",
  "networkType": "ethereum",
  "devdoc": {
    "kind": "dev",
    "methods": {},
    "version": 1
  },
  "userdoc": {
    "kind": "user",
    "methods": {},
    "version": 1
  }
}