{
  "contractName": "MedicalConditions",
  "abi": [
    {
      "anonymous": false,
      "inputs": [
        {
          "indexed": true,
          "internalType": "address",
          "name": "providerAddress",
          "type": "address"
        },
        {
          "indexed": true,
          "internalType": "address",
          "name": "patientAddress",
          "type": "address"
        },
        {
          "indexed": false,
          "internalType": "string",
          "name": "condition",
          "type": "string"
        }
      ],
      "name": "MedicalConditionAdded",
      "type": "event"
    },
    {
      "inputs": [
        {
          "internalType": "address",
          "name": "_patient",
          "type": "address"
        },
        {
          "internalType": "address",
          "name": "_provider",
          "type": "address"
        }
      ],
      "name": "grantReadAccess",
      "outputs": [],
      "stateMutability": "nonpayable",
      "type": "function"
    },
    {
      "inputs": [
        {
          "internalType": "address",
          "name": "_patient",
          "type": "address"
        },
        {
          "internalType": "address",
          "name": "_provider",
          "type": "address"
        }
      ],
      "name": "grantUpdateAccess",
      "outputs": [],
      "stateMutability": "nonpayable",
      "type": "function"
    },
    {
      "inputs": [
        {
          "internalType": "address",
          "name": "_patient",
          "type": "address"
        }
      ],
      "name": "hasAddPermission",
      "outputs": [
        {
          "internalType": "bool",
          "name": "",
          "type": "bool"
        }
      ],
      "stateMutability": "view",
      "type": "function",
      "constant": true
    },
    {
      "inputs": [
        {
          "internalType": "address",
          "name": "_patient",
          "type": "address"
        },
        {
          "internalType": "address",
          "name": "_provider",
          "type": "address"
        }
      ],
      "name": "hasReadPermission",
      "outputs": [
        {
          "internalType": "bool",
          "name": "",
          "type": "bool"
        }
      ],
      "stateMutability": "view",
      "type": "function",
      "constant": true
    },
    {
      "inputs": [
        {
          "internalType": "address",
          "name": "_patient",
          "type": "address"
        },
        {
          "internalType": "address",
          "name": "_provider",
          "type": "address"
        }
      ],
      "name": "revokeReadAccess",
      "outputs": [],
      "stateMutability": "nonpayable",
      "type": "function"
    },
    {
      "inputs": [
        {
          "internalType": "address",
          "name": "_patient",
          "type": "address"
        },
        {
          "internalType": "address",
          "name": "_provider",
          "type": "address"
        }
      ],
      "name": "revokeUpdateAccess",
      "outputs": [],
      "stateMutability": "nonpayable",
      "type": "function"
    },
    {
      "inputs": [
        {
          "internalType": "address",
          "name": "_patient",
          "type": "address"
        },
        {
          "internalType": "string",
          "name": "_condition",
          "type": "string"
        },
        {
          "internalType": "string",
          "name": "_diagnosisDate",
          "type": "string"
        }
      ],
      "name": "addMedicalCondition",
      "outputs": [],
      "stateMutability": "nonpayable",
      "type": "function"
    },
    {
      "inputs": [
        {
          "internalType": "address",
          "name": "_patientAddress",
          "type": "address"
        }
      ],
      "name": "getMedicalCondition",
      "outputs": [
        {
          "components": [
            {
              "internalType": "string",
              "name": "condition",
              "type": "string"
            },
            {
              "internalType": "string",
              "name": "diagnosisDate",
              "type": "string"
            }
          ],
          "internalType": "struct MedicalConditions.MedicalCondition[]",
          "name": "",
          "type": "tuple[]"
        }
      ],
      "stateMutability": "view",
      "type": "function",
      "constant": true
    }
  ],
  "bytecode": "0x608060405234801561001057600080fd5b50611437806100206000396000f3fe608060405234801561001057600080fd5b50600436106100885760003560e01c806366ed55a51161005b57806366ed55a5146101395780636aea790d14610155578063a3a6b63b14610171578063ca80024d1461018d57610088565b8063272acd7f1461008d578063344cd79c146100bd57806356096536146100ed5780636448965a14610109575b600080fd5b6100a760048036038101906100a29190610b02565b6101a9565b6040516100b49190610b4a565b60405180910390f35b6100d760048036038101906100d29190610b02565b61023b565b6040516100e49190610cfb565b60405180910390f35b61010760048036038101906101029190610d1d565b6104fd565b005b610123600480360381019061011e9190610d1d565b61057b565b6040516101309190610b4a565b60405180910390f35b610153600480360381019061014e9190610d1d565b61060e565b005b61016f600480360381019061016a9190610d1d565b61068c565b005b61018b60048036038101906101869190610e92565b61070a565b005b6101a760048036038101906101a29190610d1d565b6108eb565b005b60008060008373ffffffffffffffffffffffffffffffffffffffff1673ffffffffffffffffffffffffffffffffffffffff16815260200190815260200160002060003373ffffffffffffffffffffffffffffffffffffffff1673ffffffffffffffffffffffffffffffffffffffff16815260200190815260200160002060009054906101000a900460ff169050919050565b6060818073ffffffffffffffffffffffffffffffffffffffff163373ffffffffffffffffffffffffffffffffffffffff1614806102fd57506000808273ffffffffffffffffffffffffffffffffffffffff1673ffffffffffffffffffffffffffffffffffffffff16815260200190815260200160002060003373ffffffffffffffffffffffffffffffffffffffff1673ffffffffffffffffffffffffffffffffffffffff16815260200190815260200160002060009054906101000a900460ff165b61033c576040517f08c379a000000000000000000000000000000000000000000000000000000000815260040161033390610f7a565b60405180910390fd5b600160008473ffffffffffffffffffffffffffffffffffffffff1673ffffffffffffffffffffffffffffffffffffffff168152602001908152602001600020805480602002602001604051908101604052809291908181526020016000905b828210156104f157838290600052602060002090600202016040518060400160405290816000820180546103ce90610fc9565b80601f01602080910402602001604051908101604052809291908181526020018280546103fa90610fc9565b80156104475780601f1061041c57610100808354040283529160200191610447565b820191906000526020600020905b81548152906001019060200180831161042a57829003601f168201915b5050505050815260200160018201805461046090610fc9565b80601f016020809104026020016040519081016040528092919081815260200182805461048c90610fc9565b80156104d95780601f106104ae576101008083540402835291602001916104d9565b820191906000526020600020905b8154815290600101906020018083116104bc57829003601f168201915b5050505050815250508152602001906001019061039b565b50505050915050919050565b818073ffffffffffffffffffffffffffffffffffffffff163373ffffffffffffffffffffffffffffffffffffffff161461056c576040517f08c379a00000000000000000000000000000000000000000000000000000000081526004016105639061106c565b60405180910390fd5b6105768383610969565b505050565b60008060008473ffffffffffffffffffffffffffffffffffffffff1673ffffffffffffffffffffffffffffffffffffffff16815260200190815260200160002060008373ffffffffffffffffffffffffffffffffffffffff1673ffffffffffffffffffffffffffffffffffffffff16815260200190815260200160002060009054906101000a900460ff16905092915050565b818073ffffffffffffffffffffffffffffffffffffffff163373ffffffffffffffffffffffffffffffffffffffff161461067d576040517f08c379a00000000000000000000000000000000000000000000000000000000081526004016106749061106c565b60405180910390fd5b6106878383610a01565b505050565b818073ffffffffffffffffffffffffffffffffffffffff163373ffffffffffffffffffffffffffffffffffffffff16146106fb576040517f08c379a00000000000000000000000000000000000000000000000000000000081526004016106f29061106c565b60405180910390fd5b6107058383610a01565b505050565b33836000808273ffffffffffffffffffffffffffffffffffffffff1673ffffffffffffffffffffffffffffffffffffffff16815260200190815260200160002060008373ffffffffffffffffffffffffffffffffffffffff1673ffffffffffffffffffffffffffffffffffffffff16815260200190815260200160002060009054906101000a900460ff166107d4576040517f08c379a00000000000000000000000000000000000000000000000000000000081526004016107cb906110fe565b60405180910390fd5b600160008673ffffffffffffffffffffffffffffffffffffffff1673ffffffffffffffffffffffffffffffffffffffff1681526020019081526020016000206040518060400160405280868152602001858152509080600181540180825580915050600190039060005260206000209060020201600090919091909150600082015181600001908161086691906112d4565b50602082015181600101908161087c91906112d4565b5050508473ffffffffffffffffffffffffffffffffffffffff163373ffffffffffffffffffffffffffffffffffffffff167fec8aba59fcf2f265a9dd9ded72c7d595547821c5e23aa3612234bd58a91199b5866040516108dc91906113df565b60405180910390a35050505050565b818073ffffffffffffffffffffffffffffffffffffffff163373ffffffffffffffffffffffffffffffffffffffff161461095a576040517f08c379a00000000000000000000000000000000000000000000000000000000081526004016109519061106c565b60405180910390fd5b6109648383610969565b505050565b60016000808473ffffffffffffffffffffffffffffffffffffffff1673ffffffffffffffffffffffffffffffffffffffff16815260200190815260200160002060008373ffffffffffffffffffffffffffffffffffffffff1673ffffffffffffffffffffffffffffffffffffffff16815260200190815260200160002060006101000a81548160ff0219169083151502179055505050565b6000808373ffffffffffffffffffffffffffffffffffffffff1673ffffffffffffffffffffffffffffffffffffffff16815260200190815260200160002060008273ffffffffffffffffffffffffffffffffffffffff1673ffffffffffffffffffffffffffffffffffffffff16815260200190815260200160002060006101000a81549060ff02191690555050565b6000604051905090565b600080fd5b600080fd5b600073ffffffffffffffffffffffffffffffffffffffff82169050919050565b6000610acf82610aa4565b9050919050565b610adf81610ac4565b8114610aea57600080fd5b50565b600081359050610afc81610ad6565b92915050565b600060208284031215610b1857610b17610a9a565b5b6000610b2684828501610aed565b91505092915050565b60008115159050919050565b610b4481610b2f565b82525050565b6000602082019050610b5f6000830184610b3b565b92915050565b600081519050919050565b600082825260208201905092915050565b6000819050602082019050919050565b600081519050919050565b600082825260208201905092915050565b60005b83811015610bcb578082015181840152602081019050610bb0565b60008484015250505050565b6000601f19601f8301169050919050565b6000610bf382610b91565b610bfd8185610b9c565b9350610c0d818560208601610bad565b610c1681610bd7565b840191505092915050565b60006040830160008301518482036000860152610c3e8282610be8565b91505060208301518482036020860152610c588282610be8565b9150508091505092915050565b6000610c718383610c21565b905092915050565b6000602082019050919050565b6000610c9182610b65565b610c9b8185610b70565b935083602082028501610cad85610b81565b8060005b85811015610ce95784840389528151610cca8582610c65565b9450610cd583610c79565b925060208a01995050600181019050610cb1565b50829750879550505050505092915050565b60006020820190508181036000830152610d158184610c86565b905092915050565b60008060408385031215610d3457610d33610a9a565b5b6000610d4285828601610aed565b9250506020610d5385828601610aed565b9150509250929050565b600080fd5b600080fd5b7f4e487b7100000000000000000000000000000000000000000000000000000000600052604160045260246000fd5b610d9f82610bd7565b810181811067ffffffffffffffff82111715610dbe57610dbd610d67565b5b80604052505050565b6000610dd1610a90565b9050610ddd8282610d96565b919050565b600067ffffffffffffffff821115610dfd57610dfc610d67565b5b610e0682610bd7565b9050602081019050919050565b82818337600083830152505050565b6000610e35610e3084610de2565b610dc7565b905082815260208101848484011115610e5157610e50610d62565b5b610e5c848285610e13565b509392505050565b600082601f830112610e7957610e78610d5d565b5b8135610e89848260208601610e22565b91505092915050565b600080600060608486031215610eab57610eaa610a9a565b5b6000610eb986828701610aed565b935050602084013567ffffffffffffffff811115610eda57610ed9610a9f565b5b610ee686828701610e64565b925050604084013567ffffffffffffffff811115610f0757610f06610a9f565b5b610f1386828701610e64565b9150509250925092565b600082825260208201905092915050565b7f4e6f2072656164207065726d697373696f6e0000000000000000000000000000600082015250565b6000610f64601283610f1d565b9150610f6f82610f2e565b602082019050919050565b60006020820190508181036000830152610f9381610f57565b9050919050565b7f4e487b7100000000000000000000000000000000000000000000000000000000600052602260045260246000fd5b60006002820490506001821680610fe157607f821691505b602082108103610ff457610ff3610f9a565b5b50919050565b7f4f6e6c79207468652070617469656e742063616e20706572666f726d2074686960008201527f7320616374696f6e000000000000000000000000000000000000000000000000602082015250565b6000611056602883610f1d565b915061106182610ffa565b604082019050919050565b6000602082019050818103600083015261108581611049565b9050919050565b7f4f6e6c7920617574686f72697a6564206865616c7468636172652070726f766960008201527f646572732063616e20706572666f726d207468697320616374696f6e00000000602082015250565b60006110e8603c83610f1d565b91506110f38261108c565b604082019050919050565b60006020820190508181036000830152611117816110db565b9050919050565b60008190508160005260206000209050919050565b60006020601f8301049050919050565b600082821b905092915050565b6000600883026111807fffffffffffffffffffffffffffffffffffffffffffffffffffffffffffffffff82611143565b61118a8683611143565b95508019841693508086168417925050509392505050565b6000819050919050565b6000819050919050565b60006111d16111cc6111c7846111a2565b6111ac565b6111a2565b9050919050565b6000819050919050565b6111eb836111b6565b6111ff6111f7826111d8565b848454611150565b825550505050565b600090565b611214611207565b61121f8184846111e2565b505050565b5b818110156112435761123860008261120c565b600181019050611225565b5050565b601f821115611288576112598161111e565b61126284611133565b81016020851015611271578190505b61128561127d85611133565b830182611224565b50505b505050565b600082821c905092915050565b60006112ab6000198460080261128d565b1980831691505092915050565b60006112c4838361129a565b9150826002028217905092915050565b6112dd82610b91565b67ffffffffffffffff8111156112f6576112f5610d67565b5b6113008254610fc9565b61130b828285611247565b600060209050601f83116001811461133e576000841561132c578287015190505b61133685826112b8565b86555061139e565b601f19841661134c8661111e565b60005b828110156113745784890151825560018201915060208501945060208101905061134f565b86831015611391578489015161138d601f89168261129a565b8355505b6001600288020188555050505b505050505050565b60006113b182610b91565b6113bb8185610f1d565b93506113cb818560208601610bad565b6113d481610bd7565b840191505092915050565b600060208201905081810360008301526113f981846113a6565b90509291505056fea2646970667358221220e706a8f646339d80efc3d706b926b4102f3003ae30fa6c98dfabb95278b1f1f164736f6c63430008130033",
  "immutableReferences": {},
  "source": "// SPDX-License-Identifier: MIT\npragma solidity 0.8.19;\nimport \"./AccessControl.sol\";\n\ncontract MedicalConditions is AccessControl{\n    struct MedicalCondition{\n        string condition;\n        string diagnosisDate;\n    }\n    mapping(address => MedicalCondition[]) private medicalCondition;\n    event MedicalConditionAdded(address indexed providerAddress,address indexed patientAddress, string condition);\n\n    function addMedicalCondition(address _patient,string memory _condition, string memory _diagnosisDate) public onlyProvider(msg.sender, _patient){\n        medicalCondition[_patient].push(MedicalCondition(_condition, _diagnosisDate));\n        emit MedicalConditionAdded(msg.sender, _patient, _condition);\n    }\n\n    function getMedicalCondition(address _patientAddress) public view onlyProviderOrPatient(_patientAddress) returns (MedicalCondition[] memory){\n        return medicalCondition[_patientAddress];\n    }\n}",
  "sourcePath": "/Users/ishanpathak/Desktop/Summer Projects/MediChain/contracts/MedicalConditions.sol",
  "compiler": {
    "name": "solc",
    "version": "0.8.19+commit.7dd6d404.Emscripten.clang"
  },
  "schemaVersion": "3.4.16",
  "updatedAt": "2024-06-16T23:50:15.300Z",
  "networkType": "ethereum",
  "devdoc": {
    "kind": "dev",
    "methods": {},
    "version": 1
  },
  "userdoc": {
    "kind": "user",
    "methods": {},
    "version": 1
  }
}