{
  "contractName": "MediChain",
  "abi": [
    {
      "anonymous": false,
      "inputs": [
        {
          "indexed": true,
          "internalType": "address",
          "name": "providerAddress",
          "type": "address"
        },
        {
          "indexed": true,
          "internalType": "address",
          "name": "patientAddress",
          "type": "address"
        },
        {
          "indexed": false,
          "internalType": "string",
          "name": "allergy",
          "type": "string"
        }
      ],
      "name": "AllergyAdded",
      "type": "event"
    },
    {
      "anonymous": false,
      "inputs": [
        {
          "indexed": true,
          "internalType": "address",
          "name": "providerAddress",
          "type": "address"
        },
        {
          "indexed": true,
          "internalType": "address",
          "name": "patientAddress",
          "type": "address"
        }
      ],
      "name": "DemographicsUpdated",
      "type": "event"
    },
    {
      "anonymous": false,
      "inputs": [
        {
          "indexed": true,
          "internalType": "address",
          "name": "providerAddress",
          "type": "address"
        },
        {
          "indexed": true,
          "internalType": "address",
          "name": "patientAddress",
          "type": "address"
        },
        {
          "indexed": false,
          "internalType": "string",
          "name": "mentalHealth",
          "type": "string"
        }
      ],
      "name": "DiagnosisAdded",
      "type": "event"
    },
    {
      "anonymous": false,
      "inputs": [
        {
          "indexed": true,
          "internalType": "address",
          "name": "providerAddress",
          "type": "address"
        },
        {
          "indexed": true,
          "internalType": "address",
          "name": "patientAddress",
          "type": "address"
        },
        {
          "indexed": false,
          "internalType": "string",
          "name": "vaccine",
          "type": "string"
        }
      ],
      "name": "ImmunizationAdded",
      "type": "event"
    },
    {
      "anonymous": false,
      "inputs": [
        {
          "indexed": true,
          "internalType": "address",
          "name": "providerAdderess",
          "type": "address"
        },
        {
          "indexed": true,
          "internalType": "address",
          "name": "patientAddress",
          "type": "address"
        },
        {
          "indexed": false,
          "internalType": "string",
          "name": "provider",
          "type": "string"
        }
      ],
      "name": "InsuranceUpdated",
      "type": "event"
    },
    {
      "anonymous": false,
      "inputs": [
        {
          "indexed": true,
          "internalType": "address",
          "name": "providerAddress",
          "type": "address"
        },
        {
          "indexed": true,
          "internalType": "address",
          "name": "patientAddress",
          "type": "address"
        },
        {
          "indexed": false,
          "internalType": "string",
          "name": "condition",
          "type": "string"
        }
      ],
      "name": "MedicalConditionAdded",
      "type": "event"
    },
    {
      "anonymous": false,
      "inputs": [
        {
          "indexed": true,
          "internalType": "address",
          "name": "providerAddress",
          "type": "address"
        },
        {
          "indexed": true,
          "internalType": "address",
          "name": "patientAddress",
          "type": "address"
        },
        {
          "indexed": false,
          "internalType": "string",
          "name": "medication",
          "type": "string"
        }
      ],
      "name": "MedicationAdded",
      "type": "event"
    },
    {
      "anonymous": false,
      "inputs": [
        {
          "indexed": true,
          "internalType": "address",
          "name": "providerAddress",
          "type": "address"
        },
        {
          "indexed": true,
          "internalType": "address",
          "name": "patientAddress",
          "type": "address"
        },
        {
          "indexed": false,
          "internalType": "string",
          "name": "surgery",
          "type": "string"
        }
      ],
      "name": "SurgeryAdded",
      "type": "event"
    },
    {
      "inputs": [
        {
          "internalType": "address",
          "name": "_patient",
          "type": "address"
        },
        {
          "internalType": "string",
          "name": "_allergy",
          "type": "string"
        }
      ],
      "name": "addAllergy",
      "outputs": [],
      "stateMutability": "nonpayable",
      "type": "function"
    },
    {
      "inputs": [
        {
          "internalType": "address",
          "name": "_patient",
          "type": "address"
        },
        {
          "internalType": "string",
          "name": "_mentalHealthDiagnosis",
          "type": "string"
        },
        {
          "internalType": "string",
          "name": "_dateDiagnosed",
          "type": "string"
        }
      ],
      "name": "addDiagnosis",
      "outputs": [],
      "stateMutability": "nonpayable",
      "type": "function"
    },
    {
      "inputs": [
        {
          "internalType": "address",
          "name": "_patientAddress",
          "type": "address"
        },
        {
          "internalType": "string",
          "name": "_vaccine",
          "type": "string"
        },
        {
          "internalType": "string",
          "name": "_administeredDate",
          "type": "string"
        }
      ],
      "name": "addImmunization",
      "outputs": [],
      "stateMutability": "nonpayable",
      "type": "function"
    },
    {
      "inputs": [
        {
          "internalType": "address",
          "name": "_patient",
          "type": "address"
        },
        {
          "internalType": "string",
          "name": "_condition",
          "type": "string"
        },
        {
          "internalType": "string",
          "name": "_diagnosisDate",
          "type": "string"
        }
      ],
      "name": "addMedicalCondition",
      "outputs": [],
      "stateMutability": "nonpayable",
      "type": "function"
    },
    {
      "inputs": [
        {
          "internalType": "address",
          "name": "_patient",
          "type": "address"
        },
        {
          "internalType": "string",
          "name": "_medicationName",
          "type": "string"
        },
        {
          "internalType": "string",
          "name": "_dosage",
          "type": "string"
        },
        {
          "internalType": "string",
          "name": "_startDate",
          "type": "string"
        },
        {
          "internalType": "string",
          "name": "_endDate",
          "type": "string"
        }
      ],
      "name": "addMedication",
      "outputs": [],
      "stateMutability": "nonpayable",
      "type": "function"
    },
    {
      "inputs": [
        {
          "internalType": "address",
          "name": "_patient",
          "type": "address"
        },
        {
          "internalType": "string",
          "name": "_surgeryType",
          "type": "string"
        },
        {
          "internalType": "string",
          "name": "_surgeryDate",
          "type": "string"
        }
      ],
      "name": "addSurgery",
      "outputs": [],
      "stateMutability": "nonpayable",
      "type": "function"
    },
    {
      "inputs": [
        {
          "internalType": "address",
          "name": "_patientAddress",
          "type": "address"
        }
      ],
      "name": "getAllergies",
      "outputs": [
        {
          "components": [
            {
              "internalType": "string",
              "name": "allergy",
              "type": "string"
            }
          ],
          "internalType": "struct Allergies.Allergy[]",
          "name": "",
          "type": "tuple[]"
        }
      ],
      "stateMutability": "view",
      "type": "function",
      "constant": true
    },
    {
      "inputs": [
        {
          "internalType": "address",
          "name": "_patientAddress",
          "type": "address"
        }
      ],
      "name": "getDemographics",
      "outputs": [
        {
          "internalType": "string",
          "name": "",
          "type": "string"
        },
        {
          "internalType": "string",
          "name": "",
          "type": "string"
        },
        {
          "internalType": "string",
          "name": "",
          "type": "string"
        },
        {
          "internalType": "string",
          "name": "",
          "type": "string"
        }
      ],
      "stateMutability": "view",
      "type": "function",
      "constant": true
    },
    {
      "inputs": [
        {
          "internalType": "address",
          "name": "_patientAddress",
          "type": "address"
        }
      ],
      "name": "getDiagnosis",
      "outputs": [
        {
          "components": [
            {
              "internalType": "string",
              "name": "mentalHealthDiagnosis",
              "type": "string"
            },
            {
              "internalType": "string",
              "name": "dateDiagnosed",
              "type": "string"
            }
          ],
          "internalType": "struct MentalHistory.MentalHealth[]",
          "name": "",
          "type": "tuple[]"
        }
      ],
      "stateMutability": "view",
      "type": "function",
      "constant": true
    },
    {
      "inputs": [
        {
          "internalType": "address",
          "name": "_patientAddress",
          "type": "address"
        }
      ],
      "name": "getImmunization",
      "outputs": [
        {
          "components": [
            {
              "internalType": "string",
              "name": "vaccine",
              "type": "string"
            },
            {
              "internalType": "string",
              "name": "administeredDate",
              "type": "string"
            }
          ],
          "internalType": "struct Immunizations.Immunization[]",
          "name": "",
          "type": "tuple[]"
        }
      ],
      "stateMutability": "view",
      "type": "function",
      "constant": true
    },
    {
      "inputs": [
        {
          "internalType": "address",
          "name": "_patientAddress",
          "type": "address"
        }
      ],
      "name": "getInsurance",
      "outputs": [
        {
          "internalType": "string",
          "name": "",
          "type": "string"
        },
        {
          "internalType": "string",
          "name": "",
          "type": "string"
        },
        {
          "internalType": "string",
          "name": "",
          "type": "string"
        },
        {
          "internalType": "uint256",
          "name": "",
          "type": "uint256"
        },
        {
          "internalType": "string",
          "name": "",
          "type": "string"
        },
        {
          "internalType": "string",
          "name": "",
          "type": "string"
        },
        {
          "internalType": "string",
          "name": "",
          "type": "string"
        }
      ],
      "stateMutability": "view",
      "type": "function",
      "constant": true
    },
    {
      "inputs": [
        {
          "internalType": "address",
          "name": "_patientAddress",
          "type": "address"
        }
      ],
      "name": "getMedicalCondition",
      "outputs": [
        {
          "components": [
            {
              "internalType": "string",
              "name": "condition",
              "type": "string"
            },
            {
              "internalType": "string",
              "name": "diagnosisDate",
              "type": "string"
            }
          ],
          "internalType": "struct MedicalConditions.MedicalCondition[]",
          "name": "",
          "type": "tuple[]"
        }
      ],
      "stateMutability": "view",
      "type": "function",
      "constant": true
    },
    {
      "inputs": [
        {
          "internalType": "address",
          "name": "_patientAddress",
          "type": "address"
        }
      ],
      "name": "getMedication",
      "outputs": [
        {
          "components": [
            {
              "internalType": "string",
              "name": "medicationName",
              "type": "string"
            },
            {
              "internalType": "string",
              "name": "dosage",
              "type": "string"
            },
            {
              "internalType": "string",
              "name": "startDate",
              "type": "string"
            },
            {
              "internalType": "string",
              "name": "endDate",
              "type": "string"
            }
          ],
          "internalType": "struct Medications.Medication[]",
          "name": "",
          "type": "tuple[]"
        }
      ],
      "stateMutability": "view",
      "type": "function",
      "constant": true
    },
    {
      "inputs": [
        {
          "internalType": "address",
          "name": "_patientAddress",
          "type": "address"
        }
      ],
      "name": "getSurgery",
      "outputs": [
        {
          "components": [
            {
              "internalType": "string",
              "name": "surgeryType",
              "type": "string"
            },
            {
              "internalType": "string",
              "name": "surgeryDate",
              "type": "string"
            }
          ],
          "internalType": "struct Surgeries.Surgery[]",
          "name": "",
          "type": "tuple[]"
        }
      ],
      "stateMutability": "view",
      "type": "function",
      "constant": true
    },
    {
      "inputs": [
        {
          "internalType": "address",
          "name": "_patient",
          "type": "address"
        },
        {
          "internalType": "address",
          "name": "_provider",
          "type": "address"
        }
      ],
      "name": "grantReadAccess",
      "outputs": [],
      "stateMutability": "nonpayable",
      "type": "function"
    },
    {
      "inputs": [
        {
          "internalType": "address",
          "name": "_patient",
          "type": "address"
        },
        {
          "internalType": "address",
          "name": "_provider",
          "type": "address"
        }
      ],
      "name": "grantUpdateAccess",
      "outputs": [],
      "stateMutability": "nonpayable",
      "type": "function"
    },
    {
      "inputs": [
        {
          "internalType": "address",
          "name": "_patient",
          "type": "address"
        }
      ],
      "name": "hasAddPermission",
      "outputs": [
        {
          "internalType": "bool",
          "name": "",
          "type": "bool"
        }
      ],
      "stateMutability": "view",
      "type": "function",
      "constant": true
    },
    {
      "inputs": [
        {
          "internalType": "address",
          "name": "_patient",
          "type": "address"
        },
        {
          "internalType": "address",
          "name": "_provider",
          "type": "address"
        }
      ],
      "name": "hasReadPermission",
      "outputs": [
        {
          "internalType": "bool",
          "name": "",
          "type": "bool"
        }
      ],
      "stateMutability": "view",
      "type": "function",
      "constant": true
    },
    {
      "inputs": [
        {
          "internalType": "address",
          "name": "_patient",
          "type": "address"
        },
        {
          "internalType": "address",
          "name": "_provider",
          "type": "address"
        }
      ],
      "name": "revokeReadAccess",
      "outputs": [],
      "stateMutability": "nonpayable",
      "type": "function"
    },
    {
      "inputs": [
        {
          "internalType": "address",
          "name": "_patient",
          "type": "address"
        },
        {
          "internalType": "address",
          "name": "_provider",
          "type": "address"
        }
      ],
      "name": "revokeUpdateAccess",
      "outputs": [],
      "stateMutability": "nonpayable",
      "type": "function"
    },
    {
      "inputs": [
        {
          "internalType": "address",
          "name": "_patient",
          "type": "address"
        },
        {
          "internalType": "string",
          "name": "_name",
          "type": "string"
        },
        {
          "internalType": "string",
          "name": "_dateOfBirth",
          "type": "string"
        },
        {
          "internalType": "string",
          "name": "_gender",
          "type": "string"
        },
        {
          "internalType": "string",
          "name": "_homeAddress",
          "type": "string"
        }
      ],
      "name": "setDemographics",
      "outputs": [],
      "stateMutability": "nonpayable",
      "type": "function"
    },
    {
      "inputs": [
        {
          "internalType": "address",
          "name": "_patient",
          "type": "address"
        },
        {
          "internalType": "string",
          "name": "_provider",
          "type": "string"
        },
        {
          "internalType": "string",
          "name": "_policyNumber",
          "type": "string"
        },
        {
          "internalType": "string",
          "name": "_coverageDetails",
          "type": "string"
        },
        {
          "internalType": "uint256",
          "name": "_coverageLimit",
          "type": "uint256"
        },
        {
          "internalType": "string",
          "name": "_effectiveDateStart",
          "type": "string"
        },
        {
          "internalType": "string",
          "name": "_effectiveDateEnd",
          "type": "string"
        },
        {
          "internalType": "string",
          "name": "_contactInfo",
          "type": "string"
        }
      ],
      "name": "setInsurance",
      "outputs": [],
      "stateMutability": "nonpayable",
      "type": "function"
    }
  ],
  "bytecode": "0x608060405234801561000f575f80fd5b506143fc8061001d5f395ff3fe608060405234801561000f575f80fd5b5060043610610140575f3560e01c806390666f04116100b6578063cae2274b1161007a578063cae2274b14610399578063d45f7504146103c9578063d69c1cdb146103f9578063e074cd0314610415578063e18c9a1314610431578063e5b867dd1461046157610140565b806390666f04146102ce578063a3a6b63b146102fe578063b4fa492e1461031a578063baf516c11461034a578063ca80024d1461037d57610140565b806356096536116101085780635609653614610212578063618540431461022e5780636448965a1461024a57806366ed55a51461027a5780636aea790d146102965780636f8d7bb8146102b257610140565b80631677c5001461014457806318c212841461017a578063272acd7f14610196578063344cd79c146101c6578063376b976e146101f6575b5f80fd5b61015e600480360381019061015991906131a3565b61047d565b6040516101719796959493929190613270565b60405180910390f35b610194600480360381019061018f9190613433565b610973565b005b6101b060048036038101906101ab91906131a3565b610b27565b6040516101bd91906134a7565b60405180910390f35b6101e060048036038101906101db91906131a3565b610bb3565b6040516101ed9190613604565b60405180910390f35b610210600480360381019061020b9190613624565b610e66565b005b61022c600480360381019061022791906136ac565b61103b565b005b610248600480360381019061024391906136ea565b6110b9565b005b610264600480360381019061025f91906136ac565b611298565b60405161027191906134a7565b60405180910390f35b610294600480360381019061028f91906136ac565b611325565b005b6102b060048036038101906102ab91906136ac565b6113a3565b005b6102cc60048036038101906102c79190613624565b611421565b005b6102e860048036038101906102e391906131a3565b6115f6565b6040516102f591906138b3565b60405180910390f35b61031860048036038101906103139190613624565b611815565b005b610334600480360381019061032f91906131a3565b6119ea565b60405161034191906139cf565b60405180910390f35b610364600480360381019061035f91906131a3565b611c9d565b60405161037494939291906139ef565b60405180910390f35b610397600480360381019061039291906136ac565b61204b565b005b6103b360048036038101906103ae91906131a3565b6120c9565b6040516103c09190613b7e565b60405180910390f35b6103e360048036038101906103de91906131a3565b61249c565b6040516103f09190613c9a565b60405180910390f35b610413600480360381019061040e9190613ce4565b61274f565b005b61042f600480360381019061042a9190613624565b612984565b005b61044b600480360381019061044691906131a3565b612b59565b6040516104589190613f39565b60405180910390f35b61047b600480360381019061047691906136ea565b612e0c565b005b60608060605f6060806060878073ffffffffffffffffffffffffffffffffffffffff163373ffffffffffffffffffffffffffffffffffffffff16148061054357505f808273ffffffffffffffffffffffffffffffffffffffff1673ffffffffffffffffffffffffffffffffffffffff1681526020019081526020015f205f3373ffffffffffffffffffffffffffffffffffffffff1673ffffffffffffffffffffffffffffffffffffffff1681526020019081526020015f205f9054906101000a900460ff165b610582576040517f08c379a000000000000000000000000000000000000000000000000000000000815260040161057990613fa3565b60405180910390fd5b5f60085f8b73ffffffffffffffffffffffffffffffffffffffff1673ffffffffffffffffffffffffffffffffffffffff1681526020019081526020015f206040518060e00160405290815f820180546105da90613fee565b80601f016020809104026020016040519081016040528092919081815260200182805461060690613fee565b80156106515780601f1061062857610100808354040283529160200191610651565b820191905f5260205f20905b81548152906001019060200180831161063457829003601f168201915b5050505050815260200160018201805461066a90613fee565b80601f016020809104026020016040519081016040528092919081815260200182805461069690613fee565b80156106e15780601f106106b8576101008083540402835291602001916106e1565b820191905f5260205f20905b8154815290600101906020018083116106c457829003601f168201915b505050505081526020016002820180546106fa90613fee565b80601f016020809104026020016040519081016040528092919081815260200182805461072690613fee565b80156107715780601f1061074857610100808354040283529160200191610771565b820191905f5260205f20905b81548152906001019060200180831161075457829003601f168201915b505050505081526020016003820154815260200160048201805461079490613fee565b80601f01602080910402602001604051908101604052809291908181526020018280546107c090613fee565b801561080b5780601f106107e25761010080835404028352916020019161080b565b820191905f5260205f20905b8154815290600101906020018083116107ee57829003601f168201915b5050505050815260200160058201805461082490613fee565b80601f016020809104026020016040519081016040528092919081815260200182805461085090613fee565b801561089b5780601f106108725761010080835404028352916020019161089b565b820191905f5260205f20905b81548152906001019060200180831161087e57829003601f168201915b505050505081526020016006820180546108b490613fee565b80601f01602080910402602001604051908101604052809291908181526020018280546108e090613fee565b801561092b5780601f106109025761010080835404028352916020019161092b565b820191905f5260205f20905b81548152906001019060200180831161090e57829003601f168201915b5050505050815250509050805f015181602001518260400151836060015184608001518560a001518660c0015198509850985098509850985098505050919395979092949650565b33825f808273ffffffffffffffffffffffffffffffffffffffff1673ffffffffffffffffffffffffffffffffffffffff1681526020019081526020015f205f8373ffffffffffffffffffffffffffffffffffffffff1673ffffffffffffffffffffffffffffffffffffffff1681526020019081526020015f205f9054906101000a900460ff16610a38576040517f08c379a0000000000000000000000000000000000000000000000000000000008152600401610a2f9061408e565b60405180910390fd5b60045f8573ffffffffffffffffffffffffffffffffffffffff1673ffffffffffffffffffffffffffffffffffffffff1681526020019081526020015f20604051806020016040528085815250908060018154018082558091505060019003905f5260205f20015f909190919091505f820151815f019081610ab99190614249565b5050508373ffffffffffffffffffffffffffffffffffffffff163373ffffffffffffffffffffffffffffffffffffffff167fc82bb76343c55aef24da1a7c5bbb52dd2768486cd557e4d87eb8a3c1b85ef9d685604051610b199190614318565b60405180910390a350505050565b5f805f8373ffffffffffffffffffffffffffffffffffffffff1673ffffffffffffffffffffffffffffffffffffffff1681526020019081526020015f205f3373ffffffffffffffffffffffffffffffffffffffff1673ffffffffffffffffffffffffffffffffffffffff1681526020019081526020015f205f9054906101000a900460ff169050919050565b6060818073ffffffffffffffffffffffffffffffffffffffff163373ffffffffffffffffffffffffffffffffffffffff161480610c7057505f808273ffffffffffffffffffffffffffffffffffffffff1673ffffffffffffffffffffffffffffffffffffffff1681526020019081526020015f205f3373ffffffffffffffffffffffffffffffffffffffff1673ffffffffffffffffffffffffffffffffffffffff1681526020019081526020015f205f9054906101000a900460ff165b610caf576040517f08c379a0000000000000000000000000000000000000000000000000000000008152600401610ca690613fa3565b60405180910390fd5b60025f8473ffffffffffffffffffffffffffffffffffffffff1673ffffffffffffffffffffffffffffffffffffffff1681526020019081526020015f20805480602002602001604051908101604052809291908181526020015f905b82821015610e5a578382905f5260205f2090600202016040518060400160405290815f82018054610d3b90613fee565b80601f0160208091040260200160405190810160405280929190818152602001828054610d6790613fee565b8015610db25780601f10610d8957610100808354040283529160200191610db2565b820191905f5260205f20905b815481529060010190602001808311610d9557829003601f168201915b50505050508152602001600182018054610dcb90613fee565b80601f0160208091040260200160405190810160405280929190818152602001828054610df790613fee565b8015610e425780601f10610e1957610100808354040283529160200191610e42565b820191905f5260205f20905b815481529060010190602001808311610e2557829003601f168201915b50505050508152505081526020019060010190610d0b565b50505050915050919050565b33835f808273ffffffffffffffffffffffffffffffffffffffff1673ffffffffffffffffffffffffffffffffffffffff1681526020019081526020015f205f8373ffffffffffffffffffffffffffffffffffffffff1673ffffffffffffffffffffffffffffffffffffffff1681526020019081526020015f205f9054906101000a900460ff16610f2b576040517f08c379a0000000000000000000000000000000000000000000000000000000008152600401610f229061408e565b60405180910390fd5b60055f8673ffffffffffffffffffffffffffffffffffffffff1673ffffffffffffffffffffffffffffffffffffffff1681526020019081526020015f20604051806040016040528086815260200185815250908060018154018082558091505060019003905f5260205f2090600202015f909190919091505f820151815f019081610fb69190614249565b506020820151816001019081610fcc9190614249565b5050508473ffffffffffffffffffffffffffffffffffffffff163373ffffffffffffffffffffffffffffffffffffffff167f59dbb49d56e090173437dee4576019b91ba76e2b4b04db4a870e48eae23a18498660405161102c9190614318565b60405180910390a35050505050565b818073ffffffffffffffffffffffffffffffffffffffff163373ffffffffffffffffffffffffffffffffffffffff16146110aa576040517f08c379a00000000000000000000000000000000000000000000000000000000081526004016110a1906143a8565b60405180910390fd5b6110b4838361301b565b505050565b33855f808273ffffffffffffffffffffffffffffffffffffffff1673ffffffffffffffffffffffffffffffffffffffff1681526020019081526020015f205f8373ffffffffffffffffffffffffffffffffffffffff1673ffffffffffffffffffffffffffffffffffffffff1681526020019081526020015f205f9054906101000a900460ff1661117e576040517f08c379a00000000000000000000000000000000000000000000000000000000081526004016111759061408e565b60405180910390fd5b60405180608001604052808781526020018681526020018581526020018481525060015f8973ffffffffffffffffffffffffffffffffffffffff1673ffffffffffffffffffffffffffffffffffffffff1681526020019081526020015f205f820151815f0190816111ef9190614249565b5060208201518160010190816112059190614249565b50604082015181600201908161121b9190614249565b5060608201518160030190816112319190614249565b509050508673ffffffffffffffffffffffffffffffffffffffff163373ffffffffffffffffffffffffffffffffffffffff167fd0a6de516a837d6c4f057290f7b0319c1c284edb39332b7c88738fbf3220256e60405160405180910390a350505050505050565b5f805f8473ffffffffffffffffffffffffffffffffffffffff1673ffffffffffffffffffffffffffffffffffffffff1681526020019081526020015f205f8373ffffffffffffffffffffffffffffffffffffffff1673ffffffffffffffffffffffffffffffffffffffff1681526020019081526020015f205f9054906101000a900460ff16905092915050565b818073ffffffffffffffffffffffffffffffffffffffff163373ffffffffffffffffffffffffffffffffffffffff1614611394576040517f08c379a000000000000000000000000000000000000000000000000000000000815260040161138b906143a8565b60405180910390fd5b61139e83836130ae565b505050565b818073ffffffffffffffffffffffffffffffffffffffff163373ffffffffffffffffffffffffffffffffffffffff1614611412576040517f08c379a0000000000000000000000000000000000000000000000000000000008152600401611409906143a8565b60405180910390fd5b61141c83836130ae565b505050565b33835f808273ffffffffffffffffffffffffffffffffffffffff1673ffffffffffffffffffffffffffffffffffffffff1681526020019081526020015f205f8373ffffffffffffffffffffffffffffffffffffffff1673ffffffffffffffffffffffffffffffffffffffff1681526020019081526020015f205f9054906101000a900460ff166114e6576040517f08c379a00000000000000000000000000000000000000000000000000000000081526004016114dd9061408e565b60405180910390fd5b60075f8673ffffffffffffffffffffffffffffffffffffffff1673ffffffffffffffffffffffffffffffffffffffff1681526020019081526020015f20604051806040016040528086815260200185815250908060018154018082558091505060019003905f5260205f2090600202015f909190919091505f820151815f0190816115719190614249565b5060208201518160010190816115879190614249565b5050508473ffffffffffffffffffffffffffffffffffffffff163373ffffffffffffffffffffffffffffffffffffffff167f74281083eb3bc8e3328ae34ce733aa04d0f4ad6ad6a2c183d3656b3879fa9b37866040516115e79190614318565b60405180910390a35050505050565b6060818073ffffffffffffffffffffffffffffffffffffffff163373ffffffffffffffffffffffffffffffffffffffff1614806116b357505f808273ffffffffffffffffffffffffffffffffffffffff1673ffffffffffffffffffffffffffffffffffffffff1681526020019081526020015f205f3373ffffffffffffffffffffffffffffffffffffffff1673ffffffffffffffffffffffffffffffffffffffff1681526020019081526020015f205f9054906101000a900460ff165b6116f2576040517f08c379a00000000000000000000000000000000000000000000000000000000081526004016116e990613fa3565b60405180910390fd5b60045f8473ffffffffffffffffffffffffffffffffffffffff1673ffffffffffffffffffffffffffffffffffffffff1681526020019081526020015f20805480602002602001604051908101604052809291908181526020015f905b82821015611809578382905f5260205f20016040518060200160405290815f8201805461177a90613fee565b80601f01602080910402602001604051908101604052809291908181526020018280546117a690613fee565b80156117f15780601f106117c8576101008083540402835291602001916117f1565b820191905f5260205f20905b8154815290600101906020018083116117d457829003601f168201915b5050505050815250508152602001906001019061174e565b50505050915050919050565b33835f808273ffffffffffffffffffffffffffffffffffffffff1673ffffffffffffffffffffffffffffffffffffffff1681526020019081526020015f205f8373ffffffffffffffffffffffffffffffffffffffff1673ffffffffffffffffffffffffffffffffffffffff1681526020019081526020015f205f9054906101000a900460ff166118da576040517f08c379a00000000000000000000000000000000000000000000000000000000081526004016118d19061408e565b60405180910390fd5b60025f8673ffffffffffffffffffffffffffffffffffffffff1673ffffffffffffffffffffffffffffffffffffffff1681526020019081526020015f20604051806040016040528086815260200185815250908060018154018082558091505060019003905f5260205f2090600202015f909190919091505f820151815f0190816119659190614249565b50602082015181600101908161197b9190614249565b5050508473ffffffffffffffffffffffffffffffffffffffff163373ffffffffffffffffffffffffffffffffffffffff167fec8aba59fcf2f265a9dd9ded72c7d595547821c5e23aa3612234bd58a91199b5866040516119db9190614318565b60405180910390a35050505050565b6060818073ffffffffffffffffffffffffffffffffffffffff163373ffffffffffffffffffffffffffffffffffffffff161480611aa757505f808273ffffffffffffffffffffffffffffffffffffffff1673ffffffffffffffffffffffffffffffffffffffff1681526020019081526020015f205f3373ffffffffffffffffffffffffffffffffffffffff1673ffffffffffffffffffffffffffffffffffffffff1681526020019081526020015f205f9054906101000a900460ff165b611ae6576040517f08c379a0000000000000000000000000000000000000000000000000000000008152600401611add90613fa3565b60405180910390fd5b60055f8473ffffffffffffffffffffffffffffffffffffffff1673ffffffffffffffffffffffffffffffffffffffff1681526020019081526020015f20805480602002602001604051908101604052809291908181526020015f905b82821015611c91578382905f5260205f2090600202016040518060400160405290815f82018054611b7290613fee565b80601f0160208091040260200160405190810160405280929190818152602001828054611b9e90613fee565b8015611be95780601f10611bc057610100808354040283529160200191611be9565b820191905f5260205f20905b815481529060010190602001808311611bcc57829003601f168201915b50505050508152602001600182018054611c0290613fee565b80601f0160208091040260200160405190810160405280929190818152602001828054611c2e90613fee565b8015611c795780601f10611c5057610100808354040283529160200191611c79565b820191905f5260205f20905b815481529060010190602001808311611c5c57829003601f168201915b50505050508152505081526020019060010190611b42565b50505050915050919050565b606080606080848073ffffffffffffffffffffffffffffffffffffffff163373ffffffffffffffffffffffffffffffffffffffff161480611d5e57505f808273ffffffffffffffffffffffffffffffffffffffff1673ffffffffffffffffffffffffffffffffffffffff1681526020019081526020015f205f3373ffffffffffffffffffffffffffffffffffffffff1673ffffffffffffffffffffffffffffffffffffffff1681526020019081526020015f205f9054906101000a900460ff165b611d9d576040517f08c379a0000000000000000000000000000000000000000000000000000000008152600401611d9490613fa3565b60405180910390fd5b5f60015f8873ffffffffffffffffffffffffffffffffffffffff1673ffffffffffffffffffffffffffffffffffffffff1681526020019081526020015f206040518060800160405290815f82018054611df590613fee565b80601f0160208091040260200160405190810160405280929190818152602001828054611e2190613fee565b8015611e6c5780601f10611e4357610100808354040283529160200191611e6c565b820191905f5260205f20905b815481529060010190602001808311611e4f57829003601f168201915b50505050508152602001600182018054611e8590613fee565b80601f0160208091040260200160405190810160405280929190818152602001828054611eb190613fee565b8015611efc5780601f10611ed357610100808354040283529160200191611efc565b820191905f5260205f20905b815481529060010190602001808311611edf57829003601f168201915b50505050508152602001600282018054611f1590613fee565b80601f0160208091040260200160405190810160405280929190818152602001828054611f4190613fee565b8015611f8c5780601f10611f6357610100808354040283529160200191611f8c565b820191905f5260205f20905b815481529060010190602001808311611f6f57829003601f168201915b50505050508152602001600382018054611fa590613fee565b80601f0160208091040260200160405190810160405280929190818152602001828054611fd190613fee565b801561201c5780601f10611ff35761010080835404028352916020019161201c565b820191905f5260205f20905b815481529060010190602001808311611fff57829003601f168201915b5050505050815250509050805f0151816020015182604001518360600151955095509550955050509193509193565b818073ffffffffffffffffffffffffffffffffffffffff163373ffffffffffffffffffffffffffffffffffffffff16146120ba576040517f08c379a00000000000000000000000000000000000000000000000000000000081526004016120b1906143a8565b60405180910390fd5b6120c4838361301b565b505050565b6060818073ffffffffffffffffffffffffffffffffffffffff163373ffffffffffffffffffffffffffffffffffffffff16148061218657505f808273ffffffffffffffffffffffffffffffffffffffff1673ffffffffffffffffffffffffffffffffffffffff1681526020019081526020015f205f3373ffffffffffffffffffffffffffffffffffffffff1673ffffffffffffffffffffffffffffffffffffffff1681526020019081526020015f205f9054906101000a900460ff165b6121c5576040517f08c379a00000000000000000000000000000000000000000000000000000000081526004016121bc90613fa3565b60405180910390fd5b60035f8473ffffffffffffffffffffffffffffffffffffffff1673ffffffffffffffffffffffffffffffffffffffff1681526020019081526020015f20805480602002602001604051908101604052809291908181526020015f905b82821015612490578382905f5260205f2090600402016040518060800160405290815f8201805461225190613fee565b80601f016020809104026020016040519081016040528092919081815260200182805461227d90613fee565b80156122c85780601f1061229f576101008083540402835291602001916122c8565b820191905f5260205f20905b8154815290600101906020018083116122ab57829003601f168201915b505050505081526020016001820180546122e190613fee565b80601f016020809104026020016040519081016040528092919081815260200182805461230d90613fee565b80156123585780601f1061232f57610100808354040283529160200191612358565b820191905f5260205f20905b81548152906001019060200180831161233b57829003601f168201915b5050505050815260200160028201805461237190613fee565b80601f016020809104026020016040519081016040528092919081815260200182805461239d90613fee565b80156123e85780601f106123bf576101008083540402835291602001916123e8565b820191905f5260205f20905b8154815290600101906020018083116123cb57829003601f168201915b5050505050815260200160038201805461240190613fee565b80601f016020809104026020016040519081016040528092919081815260200182805461242d90613fee565b80156124785780601f1061244f57610100808354040283529160200191612478565b820191905f5260205f20905b81548152906001019060200180831161245b57829003601f168201915b50505050508152505081526020019060010190612221565b50505050915050919050565b6060818073ffffffffffffffffffffffffffffffffffffffff163373ffffffffffffffffffffffffffffffffffffffff16148061255957505f808273ffffffffffffffffffffffffffffffffffffffff1673ffffffffffffffffffffffffffffffffffffffff1681526020019081526020015f205f3373ffffffffffffffffffffffffffffffffffffffff1673ffffffffffffffffffffffffffffffffffffffff1681526020019081526020015f205f9054906101000a900460ff165b612598576040517f08c379a000000000000000000000000000000000000000000000000000000000815260040161258f90613fa3565b60405180910390fd5b60065f8473ffffffffffffffffffffffffffffffffffffffff1673ffffffffffffffffffffffffffffffffffffffff1681526020019081526020015f20805480602002602001604051908101604052809291908181526020015f905b82821015612743578382905f5260205f2090600202016040518060400160405290815f8201805461262490613fee565b80601f016020809104026020016040519081016040528092919081815260200182805461265090613fee565b801561269b5780601f106126725761010080835404028352916020019161269b565b820191905f5260205f20905b81548152906001019060200180831161267e57829003601f168201915b505050505081526020016001820180546126b490613fee565b80601f01602080910402602001604051908101604052809291908181526020018280546126e090613fee565b801561272b5780601f106127025761010080835404028352916020019161272b565b820191905f5260205f20905b81548152906001019060200180831161270e57829003601f168201915b505050505081525050815260200190600101906125f4565b50505050915050919050565b33885f808273ffffffffffffffffffffffffffffffffffffffff1673ffffffffffffffffffffffffffffffffffffffff1681526020019081526020015f205f8373ffffffffffffffffffffffffffffffffffffffff1673ffffffffffffffffffffffffffffffffffffffff1681526020019081526020015f205f9054906101000a900460ff16612814576040517f08c379a000000000000000000000000000000000000000000000000000000000815260040161280b9061408e565b60405180910390fd5b6040518060e001604052808a81526020018981526020018881526020018781526020018681526020018581526020018481525060085f8c73ffffffffffffffffffffffffffffffffffffffff1673ffffffffffffffffffffffffffffffffffffffff1681526020019081526020015f205f820151815f0190816128979190614249565b5060208201518160010190816128ad9190614249565b5060408201518160020190816128c39190614249565b506060820151816003015560808201518160040190816128e39190614249565b5060a08201518160050190816128f99190614249565b5060c082015181600601908161290f9190614249565b509050508973ffffffffffffffffffffffffffffffffffffffff163373ffffffffffffffffffffffffffffffffffffffff167f4b9b3b641d1518f8ec8bf5f184c7df7aabf386e00fddb80c79db5deeae71e8008b6040516129709190614318565b60405180910390a350505050505050505050565b33835f808273ffffffffffffffffffffffffffffffffffffffff1673ffffffffffffffffffffffffffffffffffffffff1681526020019081526020015f205f8373ffffffffffffffffffffffffffffffffffffffff1673ffffffffffffffffffffffffffffffffffffffff1681526020019081526020015f205f9054906101000a900460ff16612a49576040517f08c379a0000000000000000000000000000000000000000000000000000000008152600401612a409061408e565b60405180910390fd5b60065f8673ffffffffffffffffffffffffffffffffffffffff1673ffffffffffffffffffffffffffffffffffffffff1681526020019081526020015f20604051806040016040528086815260200185815250908060018154018082558091505060019003905f5260205f2090600202015f909190919091505f820151815f019081612ad49190614249565b506020820151816001019081612aea9190614249565b5050508473ffffffffffffffffffffffffffffffffffffffff163373ffffffffffffffffffffffffffffffffffffffff167f9d1ce3dae4583f24642eb669b23a4d390ed94b41cd01dc8bbc5582d045e8c67286604051612b4a9190614318565b60405180910390a35050505050565b6060818073ffffffffffffffffffffffffffffffffffffffff163373ffffffffffffffffffffffffffffffffffffffff161480612c1657505f808273ffffffffffffffffffffffffffffffffffffffff1673ffffffffffffffffffffffffffffffffffffffff1681526020019081526020015f205f3373ffffffffffffffffffffffffffffffffffffffff1673ffffffffffffffffffffffffffffffffffffffff1681526020019081526020015f205f9054906101000a900460ff165b612c55576040517f08c379a0000000000000000000000000000000000000000000000000000000008152600401612c4c90613fa3565b60405180910390fd5b60075f8473ffffffffffffffffffffffffffffffffffffffff1673ffffffffffffffffffffffffffffffffffffffff1681526020019081526020015f20805480602002602001604051908101604052809291908181526020015f905b82821015612e00578382905f5260205f2090600202016040518060400160405290815f82018054612ce190613fee565b80601f0160208091040260200160405190810160405280929190818152602001828054612d0d90613fee565b8015612d585780601f10612d2f57610100808354040283529160200191612d58565b820191905f5260205f20905b815481529060010190602001808311612d3b57829003601f168201915b50505050508152602001600182018054612d7190613fee565b80601f0160208091040260200160405190810160405280929190818152602001828054612d9d90613fee565b8015612de85780601f10612dbf57610100808354040283529160200191612de8565b820191905f5260205f20905b815481529060010190602001808311612dcb57829003601f168201915b50505050508152505081526020019060010190612cb1565b50505050915050919050565b33855f808273ffffffffffffffffffffffffffffffffffffffff1673ffffffffffffffffffffffffffffffffffffffff1681526020019081526020015f205f8373ffffffffffffffffffffffffffffffffffffffff1673ffffffffffffffffffffffffffffffffffffffff1681526020019081526020015f205f9054906101000a900460ff16612ed1576040517f08c379a0000000000000000000000000000000000000000000000000000000008152600401612ec89061408e565b60405180910390fd5b60035f8873ffffffffffffffffffffffffffffffffffffffff1673ffffffffffffffffffffffffffffffffffffffff1681526020019081526020015f20604051806080016040528088815260200187815260200186815260200185815250908060018154018082558091505060019003905f5260205f2090600402015f909190919091505f820151815f019081612f689190614249565b506020820151816001019081612f7e9190614249565b506040820151816002019081612f949190614249565b506060820151816003019081612faa9190614249565b5050508673ffffffffffffffffffffffffffffffffffffffff163373ffffffffffffffffffffffffffffffffffffffff167f9447b4215e350597e9ea9fb5770b87d6864ec32bf79e7ea060228e432d8fc7e78860405161300a9190614318565b60405180910390a350505050505050565b60015f808473ffffffffffffffffffffffffffffffffffffffff1673ffffffffffffffffffffffffffffffffffffffff1681526020019081526020015f205f8373ffffffffffffffffffffffffffffffffffffffff1673ffffffffffffffffffffffffffffffffffffffff1681526020019081526020015f205f6101000a81548160ff0219169083151502179055505050565b5f808373ffffffffffffffffffffffffffffffffffffffff1673ffffffffffffffffffffffffffffffffffffffff1681526020019081526020015f205f8273ffffffffffffffffffffffffffffffffffffffff1673ffffffffffffffffffffffffffffffffffffffff1681526020019081526020015f205f6101000a81549060ff02191690555050565b5f604051905090565b5f80fd5b5f80fd5b5f73ffffffffffffffffffffffffffffffffffffffff82169050919050565b5f61317282613149565b9050919050565b61318281613168565b811461318c575f80fd5b50565b5f8135905061319d81613179565b92915050565b5f602082840312156131b8576131b7613141565b5b5f6131c58482850161318f565b91505092915050565b5f81519050919050565b5f82825260208201905092915050565b5f5b838110156132055780820151818401526020810190506131ea565b5f8484015250505050565b5f601f19601f8301169050919050565b5f61322a826131ce565b61323481856131d8565b93506132448185602086016131e8565b61324d81613210565b840191505092915050565b5f819050919050565b61326a81613258565b82525050565b5f60e0820190508181035f830152613288818a613220565b9050818103602083015261329c8189613220565b905081810360408301526132b08188613220565b90506132bf6060830187613261565b81810360808301526132d18186613220565b905081810360a08301526132e58185613220565b905081810360c08301526132f98184613220565b905098975050505050505050565b5f80fd5b5f80fd5b7f4e487b71000000000000000000000000000000000000000000000000000000005f52604160045260245ffd5b61334582613210565b810181811067ffffffffffffffff821117156133645761336361330f565b5b80604052505050565b5f613376613138565b9050613382828261333c565b919050565b5f67ffffffffffffffff8211156133a1576133a061330f565b5b6133aa82613210565b9050602081019050919050565b828183375f83830152505050565b5f6133d76133d284613387565b61336d565b9050828152602081018484840111156133f3576133f261330b565b5b6133fe8482856133b7565b509392505050565b5f82601f83011261341a57613419613307565b5b813561342a8482602086016133c5565b91505092915050565b5f806040838503121561344957613448613141565b5b5f6134568582860161318f565b925050602083013567ffffffffffffffff81111561347757613476613145565b5b61348385828601613406565b9150509250929050565b5f8115159050919050565b6134a18161348d565b82525050565b5f6020820190506134ba5f830184613498565b92915050565b5f81519050919050565b5f82825260208201905092915050565b5f819050602082019050919050565b5f82825260208201905092915050565b5f613503826131ce565b61350d81856134e9565b935061351d8185602086016131e8565b61352681613210565b840191505092915050565b5f604083015f8301518482035f86015261354b82826134f9565b9150506020830151848203602086015261356582826134f9565b9150508091505092915050565b5f61357d8383613531565b905092915050565b5f602082019050919050565b5f61359b826134c0565b6135a581856134ca565b9350836020820285016135b7856134da565b805f5b858110156135f257848403895281516135d38582613572565b94506135de83613585565b925060208a019950506001810190506135ba565b50829750879550505050505092915050565b5f6020820190508181035f83015261361c8184613591565b905092915050565b5f805f6060848603121561363b5761363a613141565b5b5f6136488682870161318f565b935050602084013567ffffffffffffffff81111561366957613668613145565b5b61367586828701613406565b925050604084013567ffffffffffffffff81111561369657613695613145565b5b6136a286828701613406565b9150509250925092565b5f80604083850312156136c2576136c1613141565b5b5f6136cf8582860161318f565b92505060206136e08582860161318f565b9150509250929050565b5f805f805f60a0868803121561370357613702613141565b5b5f6137108882890161318f565b955050602086013567ffffffffffffffff81111561373157613730613145565b5b61373d88828901613406565b945050604086013567ffffffffffffffff81111561375e5761375d613145565b5b61376a88828901613406565b935050606086013567ffffffffffffffff81111561378b5761378a613145565b5b61379788828901613406565b925050608086013567ffffffffffffffff8111156137b8576137b7613145565b5b6137c488828901613406565b9150509295509295909350565b5f81519050919050565b5f82825260208201905092915050565b5f819050602082019050919050565b5f602083015f8301518482035f86015261381482826134f9565b9150508091505092915050565b5f61382c83836137fa565b905092915050565b5f602082019050919050565b5f61384a826137d1565b61385481856137db565b935083602082028501613866856137eb565b805f5b858110156138a157848403895281516138828582613821565b945061388d83613834565b925060208a01995050600181019050613869565b50829750879550505050505092915050565b5f6020820190508181035f8301526138cb8184613840565b905092915050565b5f81519050919050565b5f82825260208201905092915050565b5f819050602082019050919050565b5f604083015f8301518482035f86015261391682826134f9565b9150506020830151848203602086015261393082826134f9565b9150508091505092915050565b5f61394883836138fc565b905092915050565b5f602082019050919050565b5f613966826138d3565b61397081856138dd565b935083602082028501613982856138ed565b805f5b858110156139bd578484038952815161399e858261393d565b94506139a983613950565b925060208a01995050600181019050613985565b50829750879550505050505092915050565b5f6020820190508181035f8301526139e7818461395c565b905092915050565b5f6080820190508181035f830152613a078187613220565b90508181036020830152613a1b8186613220565b90508181036040830152613a2f8185613220565b90508181036060830152613a438184613220565b905095945050505050565b5f81519050919050565b5f82825260208201905092915050565b5f819050602082019050919050565b5f608083015f8301518482035f860152613a9182826134f9565b91505060208301518482036020860152613aab82826134f9565b91505060408301518482036040860152613ac582826134f9565b91505060608301518482036060860152613adf82826134f9565b9150508091505092915050565b5f613af78383613a77565b905092915050565b5f602082019050919050565b5f613b1582613a4e565b613b1f8185613a58565b935083602082028501613b3185613a68565b805f5b85811015613b6c5784840389528151613b4d8582613aec565b9450613b5883613aff565b925060208a01995050600181019050613b34565b50829750879550505050505092915050565b5f6020820190508181035f830152613b968184613b0b565b905092915050565b5f81519050919050565b5f82825260208201905092915050565b5f819050602082019050919050565b5f604083015f8301518482035f860152613be182826134f9565b91505060208301518482036020860152613bfb82826134f9565b9150508091505092915050565b5f613c138383613bc7565b905092915050565b5f602082019050919050565b5f613c3182613b9e565b613c3b8185613ba8565b935083602082028501613c4d85613bb8565b805f5b85811015613c885784840389528151613c698582613c08565b9450613c7483613c1b565b925060208a01995050600181019050613c50565b50829750879550505050505092915050565b5f6020820190508181035f830152613cb28184613c27565b905092915050565b613cc381613258565b8114613ccd575f80fd5b50565b5f81359050613cde81613cba565b92915050565b5f805f805f805f80610100898b031215613d0157613d00613141565b5b5f613d0e8b828c0161318f565b985050602089013567ffffffffffffffff811115613d2f57613d2e613145565b5b613d3b8b828c01613406565b975050604089013567ffffffffffffffff811115613d5c57613d5b613145565b5b613d688b828c01613406565b965050606089013567ffffffffffffffff811115613d8957613d88613145565b5b613d958b828c01613406565b9550506080613da68b828c01613cd0565b94505060a089013567ffffffffffffffff811115613dc757613dc6613145565b5b613dd38b828c01613406565b93505060c089013567ffffffffffffffff811115613df457613df3613145565b5b613e008b828c01613406565b92505060e089013567ffffffffffffffff811115613e2157613e20613145565b5b613e2d8b828c01613406565b9150509295985092959890939650565b5f81519050919050565b5f82825260208201905092915050565b5f819050602082019050919050565b5f604083015f8301518482035f860152613e8082826134f9565b91505060208301518482036020860152613e9a82826134f9565b9150508091505092915050565b5f613eb28383613e66565b905092915050565b5f602082019050919050565b5f613ed082613e3d565b613eda8185613e47565b935083602082028501613eec85613e57565b805f5b85811015613f275784840389528151613f088582613ea7565b9450613f1383613eba565b925060208a01995050600181019050613eef565b50829750879550505050505092915050565b5f6020820190508181035f830152613f518184613ec6565b905092915050565b7f4e6f2072656164207065726d697373696f6e00000000000000000000000000005f82015250565b5f613f8d6012836131d8565b9150613f9882613f59565b602082019050919050565b5f6020820190508181035f830152613fba81613f81565b9050919050565b7f4e487b71000000000000000000000000000000000000000000000000000000005f52602260045260245ffd5b5f600282049050600182168061400557607f821691505b60208210810361401857614017613fc1565b5b50919050565b7f4f6e6c7920617574686f72697a6564206865616c7468636172652070726f76695f8201527f646572732063616e20706572666f726d207468697320616374696f6e00000000602082015250565b5f614078603c836131d8565b91506140838261401e565b604082019050919050565b5f6020820190508181035f8301526140a58161406c565b9050919050565b5f819050815f5260205f209050919050565b5f6020601f8301049050919050565b5f82821b905092915050565b5f600883026141087fffffffffffffffffffffffffffffffffffffffffffffffffffffffffffffffff826140cd565b61411286836140cd565b95508019841693508086168417925050509392505050565b5f819050919050565b5f61414d61414861414384613258565b61412a565b613258565b9050919050565b5f819050919050565b61416683614133565b61417a61417282614154565b8484546140d9565b825550505050565b5f90565b61418e614182565b61419981848461415d565b505050565b5b818110156141bc576141b15f82614186565b60018101905061419f565b5050565b601f821115614201576141d2816140ac565b6141db846140be565b810160208510156141ea578190505b6141fe6141f6856140be565b83018261419e565b50505b505050565b5f82821c905092915050565b5f6142215f1984600802614206565b1980831691505092915050565b5f6142398383614212565b9150826002028217905092915050565b614252826131ce565b67ffffffffffffffff81111561426b5761426a61330f565b5b6142758254613fee565b6142808282856141c0565b5f60209050601f8311600181146142b1575f841561429f578287015190505b6142a9858261422e565b865550614310565b601f1984166142bf866140ac565b5f5b828110156142e6578489015182556001820191506020850194506020810190506142c1565b8683101561430357848901516142ff601f891682614212565b8355505b6001600288020188555050505b505050505050565b5f6020820190508181035f8301526143308184613220565b905092915050565b7f4f6e6c79207468652070617469656e742063616e20706572666f726d207468695f8201527f7320616374696f6e000000000000000000000000000000000000000000000000602082015250565b5f6143926028836131d8565b915061439d82614338565b604082019050919050565b5f6020820190508181035f8301526143bf81614386565b905091905056fea26469706673582212209a38ba2bb64e3ebb3748406b022fa5b6a1c96a502708ab9fcb745a295700445564736f6c63430008150033",
  "immutableReferences": {},
  "source": "// SPDX-License-Identifier: MIT\npragma solidity ^0.8.8;\nimport \"./AccessControl.sol\";\nimport \"./Demographics.sol\";\nimport \"./MedicalConditions.sol\";\nimport \"./Medications.sol\";\nimport \"./Allergies.sol\";\nimport \"./Surgeries.sol\";\nimport \"./Immunizations.sol\";\nimport \"./MentalHealth.sol\";\nimport \"./Insurance.sol\";\n\ncontract MediChain is AccessControl, Demographics,MedicalConditions,Medications,Allergies,Surgeries,Immunizations,MentalHistory,Insurance{\n    \n}",
  "sourcePath": "/Users/maauri/Projects/MediChain/contracts/MediChain.sol",
  "compiler": {
    "name": "solc",
    "version": "0.8.21+commit.d9974bed.Emscripten.clang"
  },
  "schemaVersion": "3.4.16",
  "updatedAt": "2024-06-06T01:22:17.652Z",
  "networkType": "ethereum",
  "devdoc": {
    "kind": "dev",
    "methods": {},
    "version": 1
  },
  "userdoc": {
    "kind": "user",
    "methods": {},
    "version": 1
  }
}