{
  "contractName": "MedicalConditions",
  "abi": [
    {
      "anonymous": false,
      "inputs": [
        {
          "indexed": true,
          "internalType": "address",
          "name": "providerAddress",
          "type": "address"
        },
        {
          "indexed": true,
          "internalType": "address",
          "name": "patientAddress",
          "type": "address"
        },
        {
          "indexed": false,
          "internalType": "string",
          "name": "condition",
          "type": "string"
        }
      ],
      "name": "MedicalConditionAdded",
      "type": "event"
    },
    {
      "inputs": [
        {
          "internalType": "address",
          "name": "_patient",
          "type": "address"
        },
        {
          "internalType": "address",
          "name": "_provider",
          "type": "address"
        }
      ],
      "name": "grantReadAccess",
      "outputs": [],
      "stateMutability": "nonpayable",
      "type": "function"
    },
    {
      "inputs": [
        {
          "internalType": "address",
          "name": "_patient",
          "type": "address"
        },
        {
          "internalType": "address",
          "name": "_provider",
          "type": "address"
        }
      ],
      "name": "grantUpdateAccess",
      "outputs": [],
      "stateMutability": "nonpayable",
      "type": "function"
    },
    {
      "inputs": [
        {
          "internalType": "address",
          "name": "_patient",
          "type": "address"
        }
      ],
      "name": "hasAddPermission",
      "outputs": [
        {
          "internalType": "bool",
          "name": "",
          "type": "bool"
        }
      ],
      "stateMutability": "view",
      "type": "function",
      "constant": true
    },
    {
      "inputs": [
        {
          "internalType": "address",
          "name": "_patient",
          "type": "address"
        },
        {
          "internalType": "address",
          "name": "_provider",
          "type": "address"
        }
      ],
      "name": "hasReadPermission",
      "outputs": [
        {
          "internalType": "bool",
          "name": "",
          "type": "bool"
        }
      ],
      "stateMutability": "view",
      "type": "function",
      "constant": true
    },
    {
      "inputs": [
        {
          "internalType": "address",
          "name": "_patient",
          "type": "address"
        },
        {
          "internalType": "address",
          "name": "_provider",
          "type": "address"
        }
      ],
      "name": "revokeReadAccess",
      "outputs": [],
      "stateMutability": "nonpayable",
      "type": "function"
    },
    {
      "inputs": [
        {
          "internalType": "address",
          "name": "_patient",
          "type": "address"
        },
        {
          "internalType": "address",
          "name": "_provider",
          "type": "address"
        }
      ],
      "name": "revokeUpdateAccess",
      "outputs": [],
      "stateMutability": "nonpayable",
      "type": "function"
    },
    {
      "inputs": [
        {
          "internalType": "address",
          "name": "_patient",
          "type": "address"
        },
        {
          "internalType": "string",
          "name": "_condition",
          "type": "string"
        },
        {
          "internalType": "string",
          "name": "_diagnosisDate",
          "type": "string"
        }
      ],
      "name": "addMedicalCondition",
      "outputs": [],
      "stateMutability": "nonpayable",
      "type": "function"
    },
    {
      "inputs": [
        {
          "internalType": "address",
          "name": "_patientAddress",
          "type": "address"
        }
      ],
      "name": "getMedicalCondition",
      "outputs": [
        {
          "components": [
            {
              "internalType": "string",
              "name": "condition",
              "type": "string"
            },
            {
              "internalType": "string",
              "name": "diagnosisDate",
              "type": "string"
            }
          ],
          "internalType": "struct MedicalConditions.MedicalCondition[]",
          "name": "",
          "type": "tuple[]"
        }
      ],
      "stateMutability": "view",
      "type": "function",
      "constant": true
    }
  ],
  "bytecode": "0x608060405234801561000f575f80fd5b506113b18061001d5f395ff3fe608060405234801561000f575f80fd5b5060043610610086575f3560e01c806366ed55a51161005957806366ed55a5146101365780636aea790d14610152578063a3a6b63b1461016e578063ca80024d1461018a57610086565b8063272acd7f1461008a578063344cd79c146100ba57806356096536146100ea5780636448965a14610106575b5f80fd5b6100a4600480360381019061009f9190610ac7565b6101a6565b6040516100b19190610b0c565b60405180910390f35b6100d460048036038101906100cf9190610ac7565b610232565b6040516100e19190610cab565b60405180910390f35b61010460048036038101906100ff9190610ccb565b6104e5565b005b610120600480360381019061011b9190610ccb565b610563565b60405161012d9190610b0c565b60405180910390f35b610150600480360381019061014b9190610ccb565b6105f0565b005b61016c60048036038101906101679190610ccb565b61066e565b005b61018860048036038101906101839190610e35565b6106ec565b005b6101a4600480360381019061019f9190610ccb565b6108c1565b005b5f805f8373ffffffffffffffffffffffffffffffffffffffff1673ffffffffffffffffffffffffffffffffffffffff1681526020019081526020015f205f3373ffffffffffffffffffffffffffffffffffffffff1673ffffffffffffffffffffffffffffffffffffffff1681526020019081526020015f205f9054906101000a900460ff169050919050565b6060818073ffffffffffffffffffffffffffffffffffffffff163373ffffffffffffffffffffffffffffffffffffffff1614806102ef57505f808273ffffffffffffffffffffffffffffffffffffffff1673ffffffffffffffffffffffffffffffffffffffff1681526020019081526020015f205f3373ffffffffffffffffffffffffffffffffffffffff1673ffffffffffffffffffffffffffffffffffffffff1681526020019081526020015f205f9054906101000a900460ff165b61032e576040517f08c379a000000000000000000000000000000000000000000000000000000000815260040161032590610f17565b60405180910390fd5b60015f8473ffffffffffffffffffffffffffffffffffffffff1673ffffffffffffffffffffffffffffffffffffffff1681526020019081526020015f20805480602002602001604051908101604052809291908181526020015f905b828210156104d9578382905f5260205f2090600202016040518060400160405290815f820180546103ba90610f62565b80601f01602080910402602001604051908101604052809291908181526020018280546103e690610f62565b80156104315780601f1061040857610100808354040283529160200191610431565b820191905f5260205f20905b81548152906001019060200180831161041457829003601f168201915b5050505050815260200160018201805461044a90610f62565b80601f016020809104026020016040519081016040528092919081815260200182805461047690610f62565b80156104c15780601f10610498576101008083540402835291602001916104c1565b820191905f5260205f20905b8154815290600101906020018083116104a457829003601f168201915b5050505050815250508152602001906001019061038a565b50505050915050919050565b818073ffffffffffffffffffffffffffffffffffffffff163373ffffffffffffffffffffffffffffffffffffffff1614610554576040517f08c379a000000000000000000000000000000000000000000000000000000000815260040161054b90611002565b60405180910390fd5b61055e838361093f565b505050565b5f805f8473ffffffffffffffffffffffffffffffffffffffff1673ffffffffffffffffffffffffffffffffffffffff1681526020019081526020015f205f8373ffffffffffffffffffffffffffffffffffffffff1673ffffffffffffffffffffffffffffffffffffffff1681526020019081526020015f205f9054906101000a900460ff16905092915050565b818073ffffffffffffffffffffffffffffffffffffffff163373ffffffffffffffffffffffffffffffffffffffff161461065f576040517f08c379a000000000000000000000000000000000000000000000000000000000815260040161065690611002565b60405180910390fd5b61066983836109d2565b505050565b818073ffffffffffffffffffffffffffffffffffffffff163373ffffffffffffffffffffffffffffffffffffffff16146106dd576040517f08c379a00000000000000000000000000000000000000000000000000000000081526004016106d490611002565b60405180910390fd5b6106e783836109d2565b505050565b33835f808273ffffffffffffffffffffffffffffffffffffffff1673ffffffffffffffffffffffffffffffffffffffff1681526020019081526020015f205f8373ffffffffffffffffffffffffffffffffffffffff1673ffffffffffffffffffffffffffffffffffffffff1681526020019081526020015f205f9054906101000a900460ff166107b1576040517f08c379a00000000000000000000000000000000000000000000000000000000081526004016107a890611090565b60405180910390fd5b60015f8673ffffffffffffffffffffffffffffffffffffffff1673ffffffffffffffffffffffffffffffffffffffff1681526020019081526020015f20604051806040016040528086815260200185815250908060018154018082558091505060019003905f5260205f2090600202015f909190919091505f820151815f01908161083c9190611254565b5060208201518160010190816108529190611254565b5050508473ffffffffffffffffffffffffffffffffffffffff163373ffffffffffffffffffffffffffffffffffffffff167fec8aba59fcf2f265a9dd9ded72c7d595547821c5e23aa3612234bd58a91199b5866040516108b2919061135b565b60405180910390a35050505050565b818073ffffffffffffffffffffffffffffffffffffffff163373ffffffffffffffffffffffffffffffffffffffff1614610930576040517f08c379a000000000000000000000000000000000000000000000000000000000815260040161092790611002565b60405180910390fd5b61093a838361093f565b505050565b60015f808473ffffffffffffffffffffffffffffffffffffffff1673ffffffffffffffffffffffffffffffffffffffff1681526020019081526020015f205f8373ffffffffffffffffffffffffffffffffffffffff1673ffffffffffffffffffffffffffffffffffffffff1681526020019081526020015f205f6101000a81548160ff0219169083151502179055505050565b5f808373ffffffffffffffffffffffffffffffffffffffff1673ffffffffffffffffffffffffffffffffffffffff1681526020019081526020015f205f8273ffffffffffffffffffffffffffffffffffffffff1673ffffffffffffffffffffffffffffffffffffffff1681526020019081526020015f205f6101000a81549060ff02191690555050565b5f604051905090565b5f80fd5b5f80fd5b5f73ffffffffffffffffffffffffffffffffffffffff82169050919050565b5f610a9682610a6d565b9050919050565b610aa681610a8c565b8114610ab0575f80fd5b50565b5f81359050610ac181610a9d565b92915050565b5f60208284031215610adc57610adb610a65565b5b5f610ae984828501610ab3565b91505092915050565b5f8115159050919050565b610b0681610af2565b82525050565b5f602082019050610b1f5f830184610afd565b92915050565b5f81519050919050565b5f82825260208201905092915050565b5f819050602082019050919050565b5f81519050919050565b5f82825260208201905092915050565b5f5b83811015610b85578082015181840152602081019050610b6a565b5f8484015250505050565b5f601f19601f8301169050919050565b5f610baa82610b4e565b610bb48185610b58565b9350610bc4818560208601610b68565b610bcd81610b90565b840191505092915050565b5f604083015f8301518482035f860152610bf28282610ba0565b91505060208301518482036020860152610c0c8282610ba0565b9150508091505092915050565b5f610c248383610bd8565b905092915050565b5f602082019050919050565b5f610c4282610b25565b610c4c8185610b2f565b935083602082028501610c5e85610b3f565b805f5b85811015610c995784840389528151610c7a8582610c19565b9450610c8583610c2c565b925060208a01995050600181019050610c61565b50829750879550505050505092915050565b5f6020820190508181035f830152610cc38184610c38565b905092915050565b5f8060408385031215610ce157610ce0610a65565b5b5f610cee85828601610ab3565b9250506020610cff85828601610ab3565b9150509250929050565b5f80fd5b5f80fd5b7f4e487b71000000000000000000000000000000000000000000000000000000005f52604160045260245ffd5b610d4782610b90565b810181811067ffffffffffffffff82111715610d6657610d65610d11565b5b80604052505050565b5f610d78610a5c565b9050610d848282610d3e565b919050565b5f67ffffffffffffffff821115610da357610da2610d11565b5b610dac82610b90565b9050602081019050919050565b828183375f83830152505050565b5f610dd9610dd484610d89565b610d6f565b905082815260208101848484011115610df557610df4610d0d565b5b610e00848285610db9565b509392505050565b5f82601f830112610e1c57610e1b610d09565b5b8135610e2c848260208601610dc7565b91505092915050565b5f805f60608486031215610e4c57610e4b610a65565b5b5f610e5986828701610ab3565b935050602084013567ffffffffffffffff811115610e7a57610e79610a69565b5b610e8686828701610e08565b925050604084013567ffffffffffffffff811115610ea757610ea6610a69565b5b610eb386828701610e08565b9150509250925092565b5f82825260208201905092915050565b7f4e6f2072656164207065726d697373696f6e00000000000000000000000000005f82015250565b5f610f01601283610ebd565b9150610f0c82610ecd565b602082019050919050565b5f6020820190508181035f830152610f2e81610ef5565b9050919050565b7f4e487b71000000000000000000000000000000000000000000000000000000005f52602260045260245ffd5b5f6002820490506001821680610f7957607f821691505b602082108103610f8c57610f8b610f35565b5b50919050565b7f4f6e6c79207468652070617469656e742063616e20706572666f726d207468695f8201527f7320616374696f6e000000000000000000000000000000000000000000000000602082015250565b5f610fec602883610ebd565b9150610ff782610f92565b604082019050919050565b5f6020820190508181035f83015261101981610fe0565b9050919050565b7f4f6e6c7920617574686f72697a6564206865616c7468636172652070726f76695f8201527f646572732063616e20706572666f726d207468697320616374696f6e00000000602082015250565b5f61107a603c83610ebd565b915061108582611020565b604082019050919050565b5f6020820190508181035f8301526110a78161106e565b9050919050565b5f819050815f5260205f209050919050565b5f6020601f8301049050919050565b5f82821b905092915050565b5f6008830261110a7fffffffffffffffffffffffffffffffffffffffffffffffffffffffffffffffff826110cf565b61111486836110cf565b95508019841693508086168417925050509392505050565b5f819050919050565b5f819050919050565b5f61115861115361114e8461112c565b611135565b61112c565b9050919050565b5f819050919050565b6111718361113e565b61118561117d8261115f565b8484546110db565b825550505050565b5f90565b61119961118d565b6111a4818484611168565b505050565b5b818110156111c7576111bc5f82611191565b6001810190506111aa565b5050565b601f82111561120c576111dd816110ae565b6111e6846110c0565b810160208510156111f5578190505b611209611201856110c0565b8301826111a9565b50505b505050565b5f82821c905092915050565b5f61122c5f1984600802611211565b1980831691505092915050565b5f611244838361121d565b9150826002028217905092915050565b61125d82610b4e565b67ffffffffffffffff81111561127657611275610d11565b5b6112808254610f62565b61128b8282856111cb565b5f60209050601f8311600181146112bc575f84156112aa578287015190505b6112b48582611239565b86555061131b565b601f1984166112ca866110ae565b5f5b828110156112f1578489015182556001820191506020850194506020810190506112cc565b8683101561130e578489015161130a601f89168261121d565b8355505b6001600288020188555050505b505050505050565b5f61132d82610b4e565b6113378185610ebd565b9350611347818560208601610b68565b61135081610b90565b840191505092915050565b5f6020820190508181035f8301526113738184611323565b90509291505056fea2646970667358221220a808308556612ae27a2bf074aa7276c4b1b0d15001186ce7c76650ac4d8a0ce764736f6c63430008150033",
  "immutableReferences": {},
  "source": "// SPDX-License-Identifier: MIT\npragma solidity ^0.8.0;\nimport \"./AccessControl.sol\";\n\ncontract MedicalConditions is AccessControl{\n    struct MedicalCondition{\n        string condition;\n        string diagnosisDate;\n    }\n    mapping(address => MedicalCondition[]) private medicalCondition;\n    event MedicalConditionAdded(address indexed providerAddress,address indexed patientAddress, string condition);\n\n    function addMedicalCondition(address _patient,string memory _condition, string memory _diagnosisDate) public onlyProvider(msg.sender, _patient){\n        medicalCondition[_patient].push(MedicalCondition(_condition, _diagnosisDate));\n        emit MedicalConditionAdded(msg.sender, _patient, _condition);\n    }\n\n    function getMedicalCondition(address _patientAddress) public view onlyProviderOrPatient(_patientAddress) returns (MedicalCondition[] memory){\n        return medicalCondition[_patientAddress];\n    }\n}",
  "sourcePath": "/Users/maauri/Projects/MediChain/contracts/MedicalConditions.sol",
  "compiler": {
    "name": "solc",
    "version": "0.8.21+commit.d9974bed.Emscripten.clang"
  },
  "schemaVersion": "3.4.16",
  "updatedAt": "2024-06-16T23:05:40.964Z",
  "networkType": "ethereum",
  "devdoc": {
    "kind": "dev",
    "methods": {},
    "version": 1
  },
  "userdoc": {
    "kind": "user",
    "methods": {},
    "version": 1
  }
}