{
  "contractName": "MediChain",
  "abi": [
    {
      "anonymous": false,
      "inputs": [
        {
          "indexed": true,
          "internalType": "address",
          "name": "providerAddress",
          "type": "address"
        },
        {
          "indexed": true,
          "internalType": "address",
          "name": "patientAddress",
          "type": "address"
        },
        {
          "indexed": false,
          "internalType": "string",
          "name": "allergy",
          "type": "string"
        }
      ],
      "name": "AllergyAdded",
      "type": "event"
    },
    {
      "anonymous": false,
      "inputs": [
        {
          "indexed": true,
          "internalType": "address",
          "name": "providerAddress",
          "type": "address"
        },
        {
          "indexed": true,
          "internalType": "address",
          "name": "patientAddress",
          "type": "address"
        }
      ],
      "name": "DemographicsUpdated",
      "type": "event"
    },
    {
      "anonymous": false,
      "inputs": [
        {
          "indexed": true,
          "internalType": "address",
          "name": "providerAddress",
          "type": "address"
        },
        {
          "indexed": true,
          "internalType": "address",
          "name": "patientAddress",
          "type": "address"
        },
        {
          "indexed": false,
          "internalType": "string",
          "name": "mentalHealth",
          "type": "string"
        }
      ],
      "name": "DiagnosisAdded",
      "type": "event"
    },
    {
      "anonymous": false,
      "inputs": [
        {
          "indexed": true,
          "internalType": "address",
          "name": "providerAddress",
          "type": "address"
        },
        {
          "indexed": true,
          "internalType": "address",
          "name": "patientAddress",
          "type": "address"
        },
        {
          "indexed": false,
          "internalType": "string",
          "name": "vaccine",
          "type": "string"
        }
      ],
      "name": "ImmunizationAdded",
      "type": "event"
    },
    {
      "anonymous": false,
      "inputs": [
        {
          "indexed": true,
          "internalType": "address",
          "name": "providerAdderess",
          "type": "address"
        },
        {
          "indexed": true,
          "internalType": "address",
          "name": "patientAddress",
          "type": "address"
        },
        {
          "indexed": false,
          "internalType": "string",
          "name": "provider",
          "type": "string"
        }
      ],
      "name": "InsuranceUpdated",
      "type": "event"
    },
    {
      "anonymous": false,
      "inputs": [
        {
          "indexed": true,
          "internalType": "address",
          "name": "providerAddress",
          "type": "address"
        },
        {
          "indexed": true,
          "internalType": "address",
          "name": "patientAddress",
          "type": "address"
        },
        {
          "indexed": false,
          "internalType": "string",
          "name": "condition",
          "type": "string"
        }
      ],
      "name": "MedicalConditionAdded",
      "type": "event"
    },
    {
      "anonymous": false,
      "inputs": [
        {
          "indexed": true,
          "internalType": "address",
          "name": "providerAddress",
          "type": "address"
        },
        {
          "indexed": true,
          "internalType": "address",
          "name": "patientAddress",
          "type": "address"
        },
        {
          "indexed": false,
          "internalType": "string",
          "name": "medication",
          "type": "string"
        }
      ],
      "name": "MedicationAdded",
      "type": "event"
    },
    {
      "anonymous": false,
      "inputs": [
        {
          "indexed": true,
          "internalType": "address",
          "name": "providerAddress",
          "type": "address"
        },
        {
          "indexed": true,
          "internalType": "address",
          "name": "patientAddress",
          "type": "address"
        },
        {
          "indexed": false,
          "internalType": "string",
          "name": "surgery",
          "type": "string"
        }
      ],
      "name": "SurgeryAdded",
      "type": "event"
    },
    {
      "inputs": [
        {
          "internalType": "address",
          "name": "_patient",
          "type": "address"
        },
        {
          "internalType": "string",
          "name": "_allergy",
          "type": "string"
        }
      ],
      "name": "addAllergy",
      "outputs": [],
      "stateMutability": "nonpayable",
      "type": "function"
    },
    {
      "inputs": [
        {
          "internalType": "address",
          "name": "_patient",
          "type": "address"
        },
        {
          "internalType": "string",
          "name": "_mentalHealthDiagnosis",
          "type": "string"
        },
        {
          "internalType": "string",
          "name": "_dateDiagnosed",
          "type": "string"
        }
      ],
      "name": "addDiagnosis",
      "outputs": [],
      "stateMutability": "nonpayable",
      "type": "function"
    },
    {
      "inputs": [
        {
          "internalType": "address",
          "name": "_patientAddress",
          "type": "address"
        },
        {
          "internalType": "string",
          "name": "_vaccine",
          "type": "string"
        },
        {
          "internalType": "string",
          "name": "_administeredDate",
          "type": "string"
        }
      ],
      "name": "addImmunization",
      "outputs": [],
      "stateMutability": "nonpayable",
      "type": "function"
    },
    {
      "inputs": [
        {
          "internalType": "address",
          "name": "_patient",
          "type": "address"
        },
        {
          "internalType": "string",
          "name": "_condition",
          "type": "string"
        },
        {
          "internalType": "string",
          "name": "_diagnosisDate",
          "type": "string"
        }
      ],
      "name": "addMedicalCondition",
      "outputs": [],
      "stateMutability": "nonpayable",
      "type": "function"
    },
    {
      "inputs": [
        {
          "internalType": "address",
          "name": "_patient",
          "type": "address"
        },
        {
          "internalType": "string",
          "name": "_medicationName",
          "type": "string"
        },
        {
          "internalType": "string",
          "name": "_dosage",
          "type": "string"
        },
        {
          "internalType": "string",
          "name": "_startDate",
          "type": "string"
        },
        {
          "internalType": "string",
          "name": "_endDate",
          "type": "string"
        }
      ],
      "name": "addMedication",
      "outputs": [],
      "stateMutability": "nonpayable",
      "type": "function"
    },
    {
      "inputs": [
        {
          "internalType": "address",
          "name": "_patient",
          "type": "address"
        },
        {
          "internalType": "string",
          "name": "_surgeryType",
          "type": "string"
        },
        {
          "internalType": "string",
          "name": "_surgeryDate",
          "type": "string"
        }
      ],
      "name": "addSurgery",
      "outputs": [],
      "stateMutability": "nonpayable",
      "type": "function"
    },
    {
      "inputs": [
        {
          "internalType": "address",
          "name": "_patientAddress",
          "type": "address"
        }
      ],
      "name": "getAllergies",
      "outputs": [
        {
          "components": [
            {
              "internalType": "string",
              "name": "allergy",
              "type": "string"
            }
          ],
          "internalType": "struct Allergies.Allergy[]",
          "name": "",
          "type": "tuple[]"
        }
      ],
      "stateMutability": "view",
      "type": "function",
      "constant": true
    },
    {
      "inputs": [
        {
          "internalType": "address",
          "name": "_patientAddress",
          "type": "address"
        }
      ],
      "name": "getDemographics",
      "outputs": [
        {
          "internalType": "string",
          "name": "",
          "type": "string"
        },
        {
          "internalType": "string",
          "name": "",
          "type": "string"
        },
        {
          "internalType": "string",
          "name": "",
          "type": "string"
        },
        {
          "internalType": "string",
          "name": "",
          "type": "string"
        }
      ],
      "stateMutability": "view",
      "type": "function",
      "constant": true
    },
    {
      "inputs": [
        {
          "internalType": "address",
          "name": "_patientAddress",
          "type": "address"
        }
      ],
      "name": "getDiagnosis",
      "outputs": [
        {
          "components": [
            {
              "internalType": "string",
              "name": "mentalHealthDiagnosis",
              "type": "string"
            },
            {
              "internalType": "string",
              "name": "dateDiagnosed",
              "type": "string"
            }
          ],
          "internalType": "struct MentalHistory.MentalHealth[]",
          "name": "",
          "type": "tuple[]"
        }
      ],
      "stateMutability": "view",
      "type": "function",
      "constant": true
    },
    {
      "inputs": [
        {
          "internalType": "address",
          "name": "_patientAddress",
          "type": "address"
        }
      ],
      "name": "getImmunization",
      "outputs": [
        {
          "components": [
            {
              "internalType": "string",
              "name": "vaccine",
              "type": "string"
            },
            {
              "internalType": "string",
              "name": "administeredDate",
              "type": "string"
            }
          ],
          "internalType": "struct Immunizations.Immunization[]",
          "name": "",
          "type": "tuple[]"
        }
      ],
      "stateMutability": "view",
      "type": "function",
      "constant": true
    },
    {
      "inputs": [
        {
          "internalType": "address",
          "name": "_patientAddress",
          "type": "address"
        }
      ],
      "name": "getInsurance",
      "outputs": [
        {
          "internalType": "string",
          "name": "",
          "type": "string"
        },
        {
          "internalType": "string",
          "name": "",
          "type": "string"
        },
        {
          "internalType": "string",
          "name": "",
          "type": "string"
        },
        {
          "internalType": "uint256",
          "name": "",
          "type": "uint256"
        },
        {
          "internalType": "string",
          "name": "",
          "type": "string"
        },
        {
          "internalType": "string",
          "name": "",
          "type": "string"
        },
        {
          "internalType": "string",
          "name": "",
          "type": "string"
        }
      ],
      "stateMutability": "view",
      "type": "function",
      "constant": true
    },
    {
      "inputs": [
        {
          "internalType": "address",
          "name": "_patientAddress",
          "type": "address"
        }
      ],
      "name": "getMedicalCondition",
      "outputs": [
        {
          "components": [
            {
              "internalType": "string",
              "name": "condition",
              "type": "string"
            },
            {
              "internalType": "string",
              "name": "diagnosisDate",
              "type": "string"
            }
          ],
          "internalType": "struct MedicalConditions.MedicalCondition[]",
          "name": "",
          "type": "tuple[]"
        }
      ],
      "stateMutability": "view",
      "type": "function",
      "constant": true
    },
    {
      "inputs": [
        {
          "internalType": "address",
          "name": "_patientAddress",
          "type": "address"
        }
      ],
      "name": "getMedication",
      "outputs": [
        {
          "components": [
            {
              "internalType": "string",
              "name": "medicationName",
              "type": "string"
            },
            {
              "internalType": "string",
              "name": "dosage",
              "type": "string"
            },
            {
              "internalType": "string",
              "name": "startDate",
              "type": "string"
            },
            {
              "internalType": "string",
              "name": "endDate",
              "type": "string"
            }
          ],
          "internalType": "struct Medications.Medication[]",
          "name": "",
          "type": "tuple[]"
        }
      ],
      "stateMutability": "view",
      "type": "function",
      "constant": true
    },
    {
      "inputs": [
        {
          "internalType": "address",
          "name": "_patientAddress",
          "type": "address"
        }
      ],
      "name": "getSurgery",
      "outputs": [
        {
          "components": [
            {
              "internalType": "string",
              "name": "surgeryType",
              "type": "string"
            },
            {
              "internalType": "string",
              "name": "surgeryDate",
              "type": "string"
            }
          ],
          "internalType": "struct Surgeries.Surgery[]",
          "name": "",
          "type": "tuple[]"
        }
      ],
      "stateMutability": "view",
      "type": "function",
      "constant": true
    },
    {
      "inputs": [
        {
          "internalType": "address",
          "name": "_patient",
          "type": "address"
        },
        {
          "internalType": "address",
          "name": "_provider",
          "type": "address"
        }
      ],
      "name": "grantReadAccess",
      "outputs": [],
      "stateMutability": "nonpayable",
      "type": "function"
    },
    {
      "inputs": [
        {
          "internalType": "address",
          "name": "_patient",
          "type": "address"
        },
        {
          "internalType": "address",
          "name": "_provider",
          "type": "address"
        }
      ],
      "name": "grantUpdateAccess",
      "outputs": [],
      "stateMutability": "nonpayable",
      "type": "function"
    },
    {
      "inputs": [
        {
          "internalType": "address",
          "name": "_patient",
          "type": "address"
        }
      ],
      "name": "hasAddPermission",
      "outputs": [
        {
          "internalType": "bool",
          "name": "",
          "type": "bool"
        }
      ],
      "stateMutability": "view",
      "type": "function",
      "constant": true
    },
    {
      "inputs": [
        {
          "internalType": "address",
          "name": "_patient",
          "type": "address"
        },
        {
          "internalType": "address",
          "name": "_provider",
          "type": "address"
        }
      ],
      "name": "hasReadPermission",
      "outputs": [
        {
          "internalType": "bool",
          "name": "",
          "type": "bool"
        }
      ],
      "stateMutability": "view",
      "type": "function",
      "constant": true
    },
    {
      "inputs": [
        {
          "internalType": "address",
          "name": "_patient",
          "type": "address"
        },
        {
          "internalType": "address",
          "name": "_provider",
          "type": "address"
        }
      ],
      "name": "revokeReadAccess",
      "outputs": [],
      "stateMutability": "nonpayable",
      "type": "function"
    },
    {
      "inputs": [
        {
          "internalType": "address",
          "name": "_patient",
          "type": "address"
        },
        {
          "internalType": "address",
          "name": "_provider",
          "type": "address"
        }
      ],
      "name": "revokeUpdateAccess",
      "outputs": [],
      "stateMutability": "nonpayable",
      "type": "function"
    },
    {
      "inputs": [
        {
          "internalType": "address",
          "name": "_patient",
          "type": "address"
        },
        {
          "internalType": "string",
          "name": "_name",
          "type": "string"
        },
        {
          "internalType": "string",
          "name": "_dateOfBirth",
          "type": "string"
        },
        {
          "internalType": "string",
          "name": "_gender",
          "type": "string"
        },
        {
          "internalType": "string",
          "name": "_homeAddress",
          "type": "string"
        }
      ],
      "name": "setDemographics",
      "outputs": [],
      "stateMutability": "nonpayable",
      "type": "function"
    },
    {
      "inputs": [
        {
          "internalType": "address",
          "name": "_patient",
          "type": "address"
        },
        {
          "internalType": "string",
          "name": "_provider",
          "type": "string"
        },
        {
          "internalType": "string",
          "name": "_policyNumber",
          "type": "string"
        },
        {
          "internalType": "string",
          "name": "_coverageDetails",
          "type": "string"
        },
        {
          "internalType": "uint256",
          "name": "_coverageLimit",
          "type": "uint256"
        },
        {
          "internalType": "string",
          "name": "_effectiveDateStart",
          "type": "string"
        },
        {
          "internalType": "string",
          "name": "_effectiveDateEnd",
          "type": "string"
        },
        {
          "internalType": "string",
          "name": "_contactInfo",
          "type": "string"
        }
      ],
      "name": "setInsurance",
      "outputs": [],
      "stateMutability": "nonpayable",
      "type": "function"
    }
  ],
  "bytecode": "0x608060405234801561001057600080fd5b50614593806100206000396000f3fe608060405234801561001057600080fd5b50600436106101425760003560e01c806390666f04116100b8578063cae2274b1161007c578063cae2274b1461039c578063d45f7504146103cc578063d69c1cdb146103fc578063e074cd0314610418578063e18c9a1314610434578063e5b867dd1461046457610142565b806390666f04146102d1578063a3a6b63b14610301578063b4fa492e1461031d578063baf516c11461034d578063ca80024d1461038057610142565b8063560965361161010a578063560965361461021557806361854043146102315780636448965a1461024d57806366ed55a51461027d5780636aea790d146102995780636f8d7bb8146102b557610142565b80631677c5001461014757806318c212841461017d578063272acd7f14610199578063344cd79c146101c9578063376b976e146101f9575b600080fd5b610161600480360381019061015c91906132a2565b610480565b6040516101749796959493929190613378565b60405180910390f35b61019760048036038101906101929190613546565b61098d565b005b6101b360048036038101906101ae91906132a2565b610b4d565b6040516101c091906135bd565b60405180910390f35b6101e360048036038101906101de91906132a2565b610bdf565b6040516101f09190613728565b60405180910390f35b610213600480360381019061020e919061374a565b610ea1565b005b61022f600480360381019061022a91906137d5565b611082565b005b61024b60048036038101906102469190613815565b611100565b005b610267600480360381019061026291906137d5565b6112e8565b60405161027491906135bd565b60405180910390f35b610297600480360381019061029291906137d5565b61137b565b005b6102b360048036038101906102ae91906137d5565b6113f9565b005b6102cf60048036038101906102ca919061374a565b611477565b005b6102eb60048036038101906102e691906132a2565b611658565b6040516102f891906139ec565b60405180910390f35b61031b6004803603810190610316919061374a565b611884565b005b610337600480360381019061033291906132a2565b611a65565b6040516103449190613b14565b60405180910390f35b610367600480360381019061036291906132a2565b611d27565b6040516103779493929190613b36565b60405180910390f35b61039a600480360381019061039591906137d5565b6120e7565b005b6103b660048036038101906103b191906132a2565b612165565b6040516103c39190613cd1565b60405180910390f35b6103e660048036038101906103e191906132a2565b61254b565b6040516103f39190613df9565b60405180910390f35b61041660048036038101906104119190613e47565b61280d565b005b610432600480360381019061042d919061374a565b612a4b565b005b61044e600480360381019061044991906132a2565b612c2c565b60405161045b91906140ab565b60405180910390f35b61047e60048036038101906104799190613815565b612eee565b005b606080606060006060806060878073ffffffffffffffffffffffffffffffffffffffff163373ffffffffffffffffffffffffffffffffffffffff16148061054c57506000808273ffffffffffffffffffffffffffffffffffffffff1673ffffffffffffffffffffffffffffffffffffffff16815260200190815260200160002060003373ffffffffffffffffffffffffffffffffffffffff1673ffffffffffffffffffffffffffffffffffffffff16815260200190815260200160002060009054906101000a900460ff165b61058b576040517f08c379a000000000000000000000000000000000000000000000000000000000815260040161058290614119565b60405180910390fd5b6000600860008b73ffffffffffffffffffffffffffffffffffffffff1673ffffffffffffffffffffffffffffffffffffffff1681526020019081526020016000206040518060e00160405290816000820180546105e790614168565b80601f016020809104026020016040519081016040528092919081815260200182805461061390614168565b80156106605780601f1061063557610100808354040283529160200191610660565b820191906000526020600020905b81548152906001019060200180831161064357829003601f168201915b5050505050815260200160018201805461067990614168565b80601f01602080910402602001604051908101604052809291908181526020018280546106a590614168565b80156106f25780601f106106c7576101008083540402835291602001916106f2565b820191906000526020600020905b8154815290600101906020018083116106d557829003601f168201915b5050505050815260200160028201805461070b90614168565b80601f016020809104026020016040519081016040528092919081815260200182805461073790614168565b80156107845780601f1061075957610100808354040283529160200191610784565b820191906000526020600020905b81548152906001019060200180831161076757829003601f168201915b50505050508152602001600382015481526020016004820180546107a790614168565b80601f01602080910402602001604051908101604052809291908181526020018280546107d390614168565b80156108205780601f106107f557610100808354040283529160200191610820565b820191906000526020600020905b81548152906001019060200180831161080357829003601f168201915b5050505050815260200160058201805461083990614168565b80601f016020809104026020016040519081016040528092919081815260200182805461086590614168565b80156108b25780601f10610887576101008083540402835291602001916108b2565b820191906000526020600020905b81548152906001019060200180831161089557829003601f168201915b505050505081526020016006820180546108cb90614168565b80601f01602080910402602001604051908101604052809291908181526020018280546108f790614168565b80156109445780601f1061091957610100808354040283529160200191610944565b820191906000526020600020905b81548152906001019060200180831161092757829003601f168201915b5050505050815250509050806000015181602001518260400151836060015184608001518560a001518660c0015198509850985098509850985098505050919395979092949650565b33826000808273ffffffffffffffffffffffffffffffffffffffff1673ffffffffffffffffffffffffffffffffffffffff16815260200190815260200160002060008373ffffffffffffffffffffffffffffffffffffffff1673ffffffffffffffffffffffffffffffffffffffff16815260200190815260200160002060009054906101000a900460ff16610a57576040517f08c379a0000000000000000000000000000000000000000000000000000000008152600401610a4e9061420b565b60405180910390fd5b600460008573ffffffffffffffffffffffffffffffffffffffff1673ffffffffffffffffffffffffffffffffffffffff168152602001908152602001600020604051806020016040528085815250908060018154018082558091505060019003906000526020600020016000909190919091506000820151816000019081610adf91906143d7565b5050508373ffffffffffffffffffffffffffffffffffffffff163373ffffffffffffffffffffffffffffffffffffffff167fc82bb76343c55aef24da1a7c5bbb52dd2768486cd557e4d87eb8a3c1b85ef9d685604051610b3f91906144a9565b60405180910390a350505050565b60008060008373ffffffffffffffffffffffffffffffffffffffff1673ffffffffffffffffffffffffffffffffffffffff16815260200190815260200160002060003373ffffffffffffffffffffffffffffffffffffffff1673ffffffffffffffffffffffffffffffffffffffff16815260200190815260200160002060009054906101000a900460ff169050919050565b6060818073ffffffffffffffffffffffffffffffffffffffff163373ffffffffffffffffffffffffffffffffffffffff161480610ca157506000808273ffffffffffffffffffffffffffffffffffffffff1673ffffffffffffffffffffffffffffffffffffffff16815260200190815260200160002060003373ffffffffffffffffffffffffffffffffffffffff1673ffffffffffffffffffffffffffffffffffffffff16815260200190815260200160002060009054906101000a900460ff165b610ce0576040517f08c379a0000000000000000000000000000000000000000000000000000000008152600401610cd790614119565b60405180910390fd5b600260008473ffffffffffffffffffffffffffffffffffffffff1673ffffffffffffffffffffffffffffffffffffffff168152602001908152602001600020805480602002602001604051908101604052809291908181526020016000905b82821015610e955783829060005260206000209060020201604051806040016040529081600082018054610d7290614168565b80601f0160208091040260200160405190810160405280929190818152602001828054610d9e90614168565b8015610deb5780601f10610dc057610100808354040283529160200191610deb565b820191906000526020600020905b815481529060010190602001808311610dce57829003601f168201915b50505050508152602001600182018054610e0490614168565b80601f0160208091040260200160405190810160405280929190818152602001828054610e3090614168565b8015610e7d5780601f10610e5257610100808354040283529160200191610e7d565b820191906000526020600020905b815481529060010190602001808311610e6057829003601f168201915b50505050508152505081526020019060010190610d3f565b50505050915050919050565b33836000808273ffffffffffffffffffffffffffffffffffffffff1673ffffffffffffffffffffffffffffffffffffffff16815260200190815260200160002060008373ffffffffffffffffffffffffffffffffffffffff1673ffffffffffffffffffffffffffffffffffffffff16815260200190815260200160002060009054906101000a900460ff16610f6b576040517f08c379a0000000000000000000000000000000000000000000000000000000008152600401610f629061420b565b60405180910390fd5b600560008673ffffffffffffffffffffffffffffffffffffffff1673ffffffffffffffffffffffffffffffffffffffff16815260200190815260200160002060405180604001604052808681526020018581525090806001815401808255809150506001900390600052602060002090600202016000909190919091506000820151816000019081610ffd91906143d7565b50602082015181600101908161101391906143d7565b5050508473ffffffffffffffffffffffffffffffffffffffff163373ffffffffffffffffffffffffffffffffffffffff167f59dbb49d56e090173437dee4576019b91ba76e2b4b04db4a870e48eae23a18498660405161107391906144a9565b60405180910390a35050505050565b818073ffffffffffffffffffffffffffffffffffffffff163373ffffffffffffffffffffffffffffffffffffffff16146110f1576040517f08c379a00000000000000000000000000000000000000000000000000000000081526004016110e89061453d565b60405180910390fd5b6110fb8383613109565b505050565b33856000808273ffffffffffffffffffffffffffffffffffffffff1673ffffffffffffffffffffffffffffffffffffffff16815260200190815260200160002060008373ffffffffffffffffffffffffffffffffffffffff1673ffffffffffffffffffffffffffffffffffffffff16815260200190815260200160002060009054906101000a900460ff166111ca576040517f08c379a00000000000000000000000000000000000000000000000000000000081526004016111c19061420b565b60405180910390fd5b604051806080016040528087815260200186815260200185815260200184815250600160008973ffffffffffffffffffffffffffffffffffffffff1673ffffffffffffffffffffffffffffffffffffffff168152602001908152602001600020600082015181600001908161123f91906143d7565b50602082015181600101908161125591906143d7565b50604082015181600201908161126b91906143d7565b50606082015181600301908161128191906143d7565b509050508673ffffffffffffffffffffffffffffffffffffffff163373ffffffffffffffffffffffffffffffffffffffff167fd0a6de516a837d6c4f057290f7b0319c1c284edb39332b7c88738fbf3220256e60405160405180910390a350505050505050565b60008060008473ffffffffffffffffffffffffffffffffffffffff1673ffffffffffffffffffffffffffffffffffffffff16815260200190815260200160002060008373ffffffffffffffffffffffffffffffffffffffff1673ffffffffffffffffffffffffffffffffffffffff16815260200190815260200160002060009054906101000a900460ff16905092915050565b818073ffffffffffffffffffffffffffffffffffffffff163373ffffffffffffffffffffffffffffffffffffffff16146113ea576040517f08c379a00000000000000000000000000000000000000000000000000000000081526004016113e19061453d565b60405180910390fd5b6113f483836131a1565b505050565b818073ffffffffffffffffffffffffffffffffffffffff163373ffffffffffffffffffffffffffffffffffffffff1614611468576040517f08c379a000000000000000000000000000000000000000000000000000000000815260040161145f9061453d565b60405180910390fd5b61147283836131a1565b505050565b33836000808273ffffffffffffffffffffffffffffffffffffffff1673ffffffffffffffffffffffffffffffffffffffff16815260200190815260200160002060008373ffffffffffffffffffffffffffffffffffffffff1673ffffffffffffffffffffffffffffffffffffffff16815260200190815260200160002060009054906101000a900460ff16611541576040517f08c379a00000000000000000000000000000000000000000000000000000000081526004016115389061420b565b60405180910390fd5b600760008673ffffffffffffffffffffffffffffffffffffffff1673ffffffffffffffffffffffffffffffffffffffff168152602001908152602001600020604051806040016040528086815260200185815250908060018154018082558091505060019003906000526020600020906002020160009091909190915060008201518160000190816115d391906143d7565b5060208201518160010190816115e991906143d7565b5050508473ffffffffffffffffffffffffffffffffffffffff163373ffffffffffffffffffffffffffffffffffffffff167f74281083eb3bc8e3328ae34ce733aa04d0f4ad6ad6a2c183d3656b3879fa9b378660405161164991906144a9565b60405180910390a35050505050565b6060818073ffffffffffffffffffffffffffffffffffffffff163373ffffffffffffffffffffffffffffffffffffffff16148061171a57506000808273ffffffffffffffffffffffffffffffffffffffff1673ffffffffffffffffffffffffffffffffffffffff16815260200190815260200160002060003373ffffffffffffffffffffffffffffffffffffffff1673ffffffffffffffffffffffffffffffffffffffff16815260200190815260200160002060009054906101000a900460ff165b611759576040517f08c379a000000000000000000000000000000000000000000000000000000000815260040161175090614119565b60405180910390fd5b600460008473ffffffffffffffffffffffffffffffffffffffff1673ffffffffffffffffffffffffffffffffffffffff168152602001908152602001600020805480602002602001604051908101604052809291908181526020016000905b82821015611878578382906000526020600020016040518060200160405290816000820180546117e790614168565b80601f016020809104026020016040519081016040528092919081815260200182805461181390614168565b80156118605780601f1061183557610100808354040283529160200191611860565b820191906000526020600020905b81548152906001019060200180831161184357829003601f168201915b505050505081525050815260200190600101906117b8565b50505050915050919050565b33836000808273ffffffffffffffffffffffffffffffffffffffff1673ffffffffffffffffffffffffffffffffffffffff16815260200190815260200160002060008373ffffffffffffffffffffffffffffffffffffffff1673ffffffffffffffffffffffffffffffffffffffff16815260200190815260200160002060009054906101000a900460ff1661194e576040517f08c379a00000000000000000000000000000000000000000000000000000000081526004016119459061420b565b60405180910390fd5b600260008673ffffffffffffffffffffffffffffffffffffffff1673ffffffffffffffffffffffffffffffffffffffff168152602001908152602001600020604051806040016040528086815260200185815250908060018154018082558091505060019003906000526020600020906002020160009091909190915060008201518160000190816119e091906143d7565b5060208201518160010190816119f691906143d7565b5050508473ffffffffffffffffffffffffffffffffffffffff163373ffffffffffffffffffffffffffffffffffffffff167fec8aba59fcf2f265a9dd9ded72c7d595547821c5e23aa3612234bd58a91199b586604051611a5691906144a9565b60405180910390a35050505050565b6060818073ffffffffffffffffffffffffffffffffffffffff163373ffffffffffffffffffffffffffffffffffffffff161480611b2757506000808273ffffffffffffffffffffffffffffffffffffffff1673ffffffffffffffffffffffffffffffffffffffff16815260200190815260200160002060003373ffffffffffffffffffffffffffffffffffffffff1673ffffffffffffffffffffffffffffffffffffffff16815260200190815260200160002060009054906101000a900460ff165b611b66576040517f08c379a0000000000000000000000000000000000000000000000000000000008152600401611b5d90614119565b60405180910390fd5b600560008473ffffffffffffffffffffffffffffffffffffffff1673ffffffffffffffffffffffffffffffffffffffff168152602001908152602001600020805480602002602001604051908101604052809291908181526020016000905b82821015611d1b5783829060005260206000209060020201604051806040016040529081600082018054611bf890614168565b80601f0160208091040260200160405190810160405280929190818152602001828054611c2490614168565b8015611c715780601f10611c4657610100808354040283529160200191611c71565b820191906000526020600020905b815481529060010190602001808311611c5457829003601f168201915b50505050508152602001600182018054611c8a90614168565b80601f0160208091040260200160405190810160405280929190818152602001828054611cb690614168565b8015611d035780601f10611cd857610100808354040283529160200191611d03565b820191906000526020600020905b815481529060010190602001808311611ce657829003601f168201915b50505050508152505081526020019060010190611bc5565b50505050915050919050565b606080606080848073ffffffffffffffffffffffffffffffffffffffff163373ffffffffffffffffffffffffffffffffffffffff161480611ded57506000808273ffffffffffffffffffffffffffffffffffffffff1673ffffffffffffffffffffffffffffffffffffffff16815260200190815260200160002060003373ffffffffffffffffffffffffffffffffffffffff1673ffffffffffffffffffffffffffffffffffffffff16815260200190815260200160002060009054906101000a900460ff165b611e2c576040517f08c379a0000000000000000000000000000000000000000000000000000000008152600401611e2390614119565b60405180910390fd5b6000600160008873ffffffffffffffffffffffffffffffffffffffff1673ffffffffffffffffffffffffffffffffffffffff168152602001908152602001600020604051806080016040529081600082018054611e8890614168565b80601f0160208091040260200160405190810160405280929190818152602001828054611eb490614168565b8015611f015780601f10611ed657610100808354040283529160200191611f01565b820191906000526020600020905b815481529060010190602001808311611ee457829003601f168201915b50505050508152602001600182018054611f1a90614168565b80601f0160208091040260200160405190810160405280929190818152602001828054611f4690614168565b8015611f935780601f10611f6857610100808354040283529160200191611f93565b820191906000526020600020905b815481529060010190602001808311611f7657829003601f168201915b50505050508152602001600282018054611fac90614168565b80601f0160208091040260200160405190810160405280929190818152602001828054611fd890614168565b80156120255780601f10611ffa57610100808354040283529160200191612025565b820191906000526020600020905b81548152906001019060200180831161200857829003601f168201915b5050505050815260200160038201805461203e90614168565b80601f016020809104026020016040519081016040528092919081815260200182805461206a90614168565b80156120b75780601f1061208c576101008083540402835291602001916120b7565b820191906000526020600020905b81548152906001019060200180831161209a57829003601f168201915b50505050508152505090508060000151816020015182604001518360600151955095509550955050509193509193565b818073ffffffffffffffffffffffffffffffffffffffff163373ffffffffffffffffffffffffffffffffffffffff1614612156576040517f08c379a000000000000000000000000000000000000000000000000000000000815260040161214d9061453d565b60405180910390fd5b6121608383613109565b505050565b6060818073ffffffffffffffffffffffffffffffffffffffff163373ffffffffffffffffffffffffffffffffffffffff16148061222757506000808273ffffffffffffffffffffffffffffffffffffffff1673ffffffffffffffffffffffffffffffffffffffff16815260200190815260200160002060003373ffffffffffffffffffffffffffffffffffffffff1673ffffffffffffffffffffffffffffffffffffffff16815260200190815260200160002060009054906101000a900460ff165b612266576040517f08c379a000000000000000000000000000000000000000000000000000000000815260040161225d90614119565b60405180910390fd5b600360008473ffffffffffffffffffffffffffffffffffffffff1673ffffffffffffffffffffffffffffffffffffffff168152602001908152602001600020805480602002602001604051908101604052809291908181526020016000905b8282101561253f57838290600052602060002090600402016040518060800160405290816000820180546122f890614168565b80601f016020809104026020016040519081016040528092919081815260200182805461232490614168565b80156123715780601f1061234657610100808354040283529160200191612371565b820191906000526020600020905b81548152906001019060200180831161235457829003601f168201915b5050505050815260200160018201805461238a90614168565b80601f01602080910402602001604051908101604052809291908181526020018280546123b690614168565b80156124035780601f106123d857610100808354040283529160200191612403565b820191906000526020600020905b8154815290600101906020018083116123e657829003601f168201915b5050505050815260200160028201805461241c90614168565b80601f016020809104026020016040519081016040528092919081815260200182805461244890614168565b80156124955780601f1061246a57610100808354040283529160200191612495565b820191906000526020600020905b81548152906001019060200180831161247857829003601f168201915b505050505081526020016003820180546124ae90614168565b80601f01602080910402602001604051908101604052809291908181526020018280546124da90614168565b80156125275780601f106124fc57610100808354040283529160200191612527565b820191906000526020600020905b81548152906001019060200180831161250a57829003601f168201915b505050505081525050815260200190600101906122c5565b50505050915050919050565b6060818073ffffffffffffffffffffffffffffffffffffffff163373ffffffffffffffffffffffffffffffffffffffff16148061260d57506000808273ffffffffffffffffffffffffffffffffffffffff1673ffffffffffffffffffffffffffffffffffffffff16815260200190815260200160002060003373ffffffffffffffffffffffffffffffffffffffff1673ffffffffffffffffffffffffffffffffffffffff16815260200190815260200160002060009054906101000a900460ff165b61264c576040517f08c379a000000000000000000000000000000000000000000000000000000000815260040161264390614119565b60405180910390fd5b600660008473ffffffffffffffffffffffffffffffffffffffff1673ffffffffffffffffffffffffffffffffffffffff168152602001908152602001600020805480602002602001604051908101604052809291908181526020016000905b8282101561280157838290600052602060002090600202016040518060400160405290816000820180546126de90614168565b80601f016020809104026020016040519081016040528092919081815260200182805461270a90614168565b80156127575780601f1061272c57610100808354040283529160200191612757565b820191906000526020600020905b81548152906001019060200180831161273a57829003601f168201915b5050505050815260200160018201805461277090614168565b80601f016020809104026020016040519081016040528092919081815260200182805461279c90614168565b80156127e95780601f106127be576101008083540402835291602001916127e9565b820191906000526020600020905b8154815290600101906020018083116127cc57829003601f168201915b505050505081525050815260200190600101906126ab565b50505050915050919050565b33886000808273ffffffffffffffffffffffffffffffffffffffff1673ffffffffffffffffffffffffffffffffffffffff16815260200190815260200160002060008373ffffffffffffffffffffffffffffffffffffffff1673ffffffffffffffffffffffffffffffffffffffff16815260200190815260200160002060009054906101000a900460ff166128d7576040517f08c379a00000000000000000000000000000000000000000000000000000000081526004016128ce9061420b565b60405180910390fd5b6040518060e001604052808a815260200189815260200188815260200187815260200186815260200185815260200184815250600860008c73ffffffffffffffffffffffffffffffffffffffff1673ffffffffffffffffffffffffffffffffffffffff168152602001908152602001600020600082015181600001908161295e91906143d7565b50602082015181600101908161297491906143d7565b50604082015181600201908161298a91906143d7565b506060820151816003015560808201518160040190816129aa91906143d7565b5060a08201518160050190816129c091906143d7565b5060c08201518160060190816129d691906143d7565b509050508973ffffffffffffffffffffffffffffffffffffffff163373ffffffffffffffffffffffffffffffffffffffff167f4b9b3b641d1518f8ec8bf5f184c7df7aabf386e00fddb80c79db5deeae71e8008b604051612a3791906144a9565b60405180910390a350505050505050505050565b33836000808273ffffffffffffffffffffffffffffffffffffffff1673ffffffffffffffffffffffffffffffffffffffff16815260200190815260200160002060008373ffffffffffffffffffffffffffffffffffffffff1673ffffffffffffffffffffffffffffffffffffffff16815260200190815260200160002060009054906101000a900460ff16612b15576040517f08c379a0000000000000000000000000000000000000000000000000000000008152600401612b0c9061420b565b60405180910390fd5b600660008673ffffffffffffffffffffffffffffffffffffffff1673ffffffffffffffffffffffffffffffffffffffff16815260200190815260200160002060405180604001604052808681526020018581525090806001815401808255809150506001900390600052602060002090600202016000909190919091506000820151816000019081612ba791906143d7565b506020820151816001019081612bbd91906143d7565b5050508473ffffffffffffffffffffffffffffffffffffffff163373ffffffffffffffffffffffffffffffffffffffff167f9d1ce3dae4583f24642eb669b23a4d390ed94b41cd01dc8bbc5582d045e8c67286604051612c1d91906144a9565b60405180910390a35050505050565b6060818073ffffffffffffffffffffffffffffffffffffffff163373ffffffffffffffffffffffffffffffffffffffff161480612cee57506000808273ffffffffffffffffffffffffffffffffffffffff1673ffffffffffffffffffffffffffffffffffffffff16815260200190815260200160002060003373ffffffffffffffffffffffffffffffffffffffff1673ffffffffffffffffffffffffffffffffffffffff16815260200190815260200160002060009054906101000a900460ff165b612d2d576040517f08c379a0000000000000000000000000000000000000000000000000000000008152600401612d2490614119565b60405180910390fd5b600760008473ffffffffffffffffffffffffffffffffffffffff1673ffffffffffffffffffffffffffffffffffffffff168152602001908152602001600020805480602002602001604051908101604052809291908181526020016000905b82821015612ee25783829060005260206000209060020201604051806040016040529081600082018054612dbf90614168565b80601f0160208091040260200160405190810160405280929190818152602001828054612deb90614168565b8015612e385780601f10612e0d57610100808354040283529160200191612e38565b820191906000526020600020905b815481529060010190602001808311612e1b57829003601f168201915b50505050508152602001600182018054612e5190614168565b80601f0160208091040260200160405190810160405280929190818152602001828054612e7d90614168565b8015612eca5780601f10612e9f57610100808354040283529160200191612eca565b820191906000526020600020905b815481529060010190602001808311612ead57829003601f168201915b50505050508152505081526020019060010190612d8c565b50505050915050919050565b33856000808273ffffffffffffffffffffffffffffffffffffffff1673ffffffffffffffffffffffffffffffffffffffff16815260200190815260200160002060008373ffffffffffffffffffffffffffffffffffffffff1673ffffffffffffffffffffffffffffffffffffffff16815260200190815260200160002060009054906101000a900460ff16612fb8576040517f08c379a0000000000000000000000000000000000000000000000000000000008152600401612faf9061420b565b60405180910390fd5b600360008873ffffffffffffffffffffffffffffffffffffffff1673ffffffffffffffffffffffffffffffffffffffff1681526020019081526020016000206040518060800160405280888152602001878152602001868152602001858152509080600181540180825580915050600190039060005260206000209060040201600090919091909150600082015181600001908161305691906143d7565b50602082015181600101908161306c91906143d7565b50604082015181600201908161308291906143d7565b50606082015181600301908161309891906143d7565b5050508673ffffffffffffffffffffffffffffffffffffffff163373ffffffffffffffffffffffffffffffffffffffff167f9447b4215e350597e9ea9fb5770b87d6864ec32bf79e7ea060228e432d8fc7e7886040516130f891906144a9565b60405180910390a350505050505050565b60016000808473ffffffffffffffffffffffffffffffffffffffff1673ffffffffffffffffffffffffffffffffffffffff16815260200190815260200160002060008373ffffffffffffffffffffffffffffffffffffffff1673ffffffffffffffffffffffffffffffffffffffff16815260200190815260200160002060006101000a81548160ff0219169083151502179055505050565b6000808373ffffffffffffffffffffffffffffffffffffffff1673ffffffffffffffffffffffffffffffffffffffff16815260200190815260200160002060008273ffffffffffffffffffffffffffffffffffffffff1673ffffffffffffffffffffffffffffffffffffffff16815260200190815260200160002060006101000a81549060ff02191690555050565b6000604051905090565b600080fd5b600080fd5b600073ffffffffffffffffffffffffffffffffffffffff82169050919050565b600061326f82613244565b9050919050565b61327f81613264565b811461328a57600080fd5b50565b60008135905061329c81613276565b92915050565b6000602082840312156132b8576132b761323a565b5b60006132c68482850161328d565b91505092915050565b600081519050919050565b600082825260208201905092915050565b60005b838110156133095780820151818401526020810190506132ee565b60008484015250505050565b6000601f19601f8301169050919050565b6000613331826132cf565b61333b81856132da565b935061334b8185602086016132eb565b61335481613315565b840191505092915050565b6000819050919050565b6133728161335f565b82525050565b600060e0820190508181036000830152613392818a613326565b905081810360208301526133a68189613326565b905081810360408301526133ba8188613326565b90506133c96060830187613369565b81810360808301526133db8186613326565b905081810360a08301526133ef8185613326565b905081810360c08301526134038184613326565b905098975050505050505050565b600080fd5b600080fd5b7f4e487b7100000000000000000000000000000000000000000000000000000000600052604160045260246000fd5b61345382613315565b810181811067ffffffffffffffff821117156134725761347161341b565b5b80604052505050565b6000613485613230565b9050613491828261344a565b919050565b600067ffffffffffffffff8211156134b1576134b061341b565b5b6134ba82613315565b9050602081019050919050565b82818337600083830152505050565b60006134e96134e484613496565b61347b565b90508281526020810184848401111561350557613504613416565b5b6135108482856134c7565b509392505050565b600082601f83011261352d5761352c613411565b5b813561353d8482602086016134d6565b91505092915050565b6000806040838503121561355d5761355c61323a565b5b600061356b8582860161328d565b925050602083013567ffffffffffffffff81111561358c5761358b61323f565b5b61359885828601613518565b9150509250929050565b60008115159050919050565b6135b7816135a2565b82525050565b60006020820190506135d260008301846135ae565b92915050565b600081519050919050565b600082825260208201905092915050565b6000819050602082019050919050565b600082825260208201905092915050565b6000613620826132cf565b61362a8185613604565b935061363a8185602086016132eb565b61364381613315565b840191505092915050565b6000604083016000830151848203600086015261366b8282613615565b915050602083015184820360208601526136858282613615565b9150508091505092915050565b600061369e838361364e565b905092915050565b6000602082019050919050565b60006136be826135d8565b6136c881856135e3565b9350836020820285016136da856135f4565b8060005b8581101561371657848403895281516136f78582613692565b9450613702836136a6565b925060208a019950506001810190506136de565b50829750879550505050505092915050565b6000602082019050818103600083015261374281846136b3565b905092915050565b6000806000606084860312156137635761376261323a565b5b60006137718682870161328d565b935050602084013567ffffffffffffffff8111156137925761379161323f565b5b61379e86828701613518565b925050604084013567ffffffffffffffff8111156137bf576137be61323f565b5b6137cb86828701613518565b9150509250925092565b600080604083850312156137ec576137eb61323a565b5b60006137fa8582860161328d565b925050602061380b8582860161328d565b9150509250929050565b600080600080600060a086880312156138315761383061323a565b5b600061383f8882890161328d565b955050602086013567ffffffffffffffff8111156138605761385f61323f565b5b61386c88828901613518565b945050604086013567ffffffffffffffff81111561388d5761388c61323f565b5b61389988828901613518565b935050606086013567ffffffffffffffff8111156138ba576138b961323f565b5b6138c688828901613518565b925050608086013567ffffffffffffffff8111156138e7576138e661323f565b5b6138f388828901613518565b9150509295509295909350565b600081519050919050565b600082825260208201905092915050565b6000819050602082019050919050565b600060208301600083015184820360008601526139498282613615565b9150508091505092915050565b6000613962838361392c565b905092915050565b6000602082019050919050565b600061398282613900565b61398c818561390b565b93508360208202850161399e8561391c565b8060005b858110156139da57848403895281516139bb8582613956565b94506139c68361396a565b925060208a019950506001810190506139a2565b50829750879550505050505092915050565b60006020820190508181036000830152613a068184613977565b905092915050565b600081519050919050565b600082825260208201905092915050565b6000819050602082019050919050565b60006040830160008301518482036000860152613a578282613615565b91505060208301518482036020860152613a718282613615565b9150508091505092915050565b6000613a8a8383613a3a565b905092915050565b6000602082019050919050565b6000613aaa82613a0e565b613ab48185613a19565b935083602082028501613ac685613a2a565b8060005b85811015613b025784840389528151613ae38582613a7e565b9450613aee83613a92565b925060208a01995050600181019050613aca565b50829750879550505050505092915050565b60006020820190508181036000830152613b2e8184613a9f565b905092915050565b60006080820190508181036000830152613b508187613326565b90508181036020830152613b648186613326565b90508181036040830152613b788185613326565b90508181036060830152613b8c8184613326565b905095945050505050565b600081519050919050565b600082825260208201905092915050565b6000819050602082019050919050565b60006080830160008301518482036000860152613be08282613615565b91505060208301518482036020860152613bfa8282613615565b91505060408301518482036040860152613c148282613615565b91505060608301518482036060860152613c2e8282613615565b9150508091505092915050565b6000613c478383613bc3565b905092915050565b6000602082019050919050565b6000613c6782613b97565b613c718185613ba2565b935083602082028501613c8385613bb3565b8060005b85811015613cbf5784840389528151613ca08582613c3b565b9450613cab83613c4f565b925060208a01995050600181019050613c87565b50829750879550505050505092915050565b60006020820190508181036000830152613ceb8184613c5c565b905092915050565b600081519050919050565b600082825260208201905092915050565b6000819050602082019050919050565b60006040830160008301518482036000860152613d3c8282613615565b91505060208301518482036020860152613d568282613615565b9150508091505092915050565b6000613d6f8383613d1f565b905092915050565b6000602082019050919050565b6000613d8f82613cf3565b613d998185613cfe565b935083602082028501613dab85613d0f565b8060005b85811015613de75784840389528151613dc88582613d63565b9450613dd383613d77565b925060208a01995050600181019050613daf565b50829750879550505050505092915050565b60006020820190508181036000830152613e138184613d84565b905092915050565b613e248161335f565b8114613e2f57600080fd5b50565b600081359050613e4181613e1b565b92915050565b600080600080600080600080610100898b031215613e6857613e6761323a565b5b6000613e768b828c0161328d565b985050602089013567ffffffffffffffff811115613e9757613e9661323f565b5b613ea38b828c01613518565b975050604089013567ffffffffffffffff811115613ec457613ec361323f565b5b613ed08b828c01613518565b965050606089013567ffffffffffffffff811115613ef157613ef061323f565b5b613efd8b828c01613518565b9550506080613f0e8b828c01613e32565b94505060a089013567ffffffffffffffff811115613f2f57613f2e61323f565b5b613f3b8b828c01613518565b93505060c089013567ffffffffffffffff811115613f5c57613f5b61323f565b5b613f688b828c01613518565b92505060e089013567ffffffffffffffff811115613f8957613f8861323f565b5b613f958b828c01613518565b9150509295985092959890939650565b600081519050919050565b600082825260208201905092915050565b6000819050602082019050919050565b60006040830160008301518482036000860152613fee8282613615565b915050602083015184820360208601526140088282613615565b9150508091505092915050565b60006140218383613fd1565b905092915050565b6000602082019050919050565b600061404182613fa5565b61404b8185613fb0565b93508360208202850161405d85613fc1565b8060005b85811015614099578484038952815161407a8582614015565b945061408583614029565b925060208a01995050600181019050614061565b50829750879550505050505092915050565b600060208201905081810360008301526140c58184614036565b905092915050565b7f4e6f2072656164207065726d697373696f6e0000000000000000000000000000600082015250565b60006141036012836132da565b915061410e826140cd565b602082019050919050565b60006020820190508181036000830152614132816140f6565b9050919050565b7f4e487b7100000000000000000000000000000000000000000000000000000000600052602260045260246000fd5b6000600282049050600182168061418057607f821691505b60208210810361419357614192614139565b5b50919050565b7f4f6e6c7920617574686f72697a6564206865616c7468636172652070726f766960008201527f646572732063616e20706572666f726d207468697320616374696f6e00000000602082015250565b60006141f5603c836132da565b915061420082614199565b604082019050919050565b60006020820190508181036000830152614224816141e8565b9050919050565b60008190508160005260206000209050919050565b60006020601f8301049050919050565b600082821b905092915050565b60006008830261428d7fffffffffffffffffffffffffffffffffffffffffffffffffffffffffffffffff82614250565b6142978683614250565b95508019841693508086168417925050509392505050565b6000819050919050565b60006142d46142cf6142ca8461335f565b6142af565b61335f565b9050919050565b6000819050919050565b6142ee836142b9565b6143026142fa826142db565b84845461425d565b825550505050565b600090565b61431761430a565b6143228184846142e5565b505050565b5b818110156143465761433b60008261430f565b600181019050614328565b5050565b601f82111561438b5761435c8161422b565b61436584614240565b81016020851015614374578190505b61438861438085614240565b830182614327565b50505b505050565b600082821c905092915050565b60006143ae60001984600802614390565b1980831691505092915050565b60006143c7838361439d565b9150826002028217905092915050565b6143e0826132cf565b67ffffffffffffffff8111156143f9576143f861341b565b5b6144038254614168565b61440e82828561434a565b600060209050601f831160018114614441576000841561442f578287015190505b61443985826143bb565b8655506144a1565b601f19841661444f8661422b565b60005b8281101561447757848901518255600182019150602085019450602081019050614452565b868310156144945784890151614490601f89168261439d565b8355505b6001600288020188555050505b505050505050565b600060208201905081810360008301526144c38184613326565b905092915050565b7f4f6e6c79207468652070617469656e742063616e20706572666f726d2074686960008201527f7320616374696f6e000000000000000000000000000000000000000000000000602082015250565b60006145276028836132da565b9150614532826144cb565b604082019050919050565b600060208201905081810360008301526145568161451a565b905091905056fea26469706673582212200ad312d218de96c3f71ac20e67ce640d4e6778f6e7d0edc5f0176cd213d6e4ce64736f6c63430008130033",
  "immutableReferences": {},
  "source": "// SPDX-License-Identifier: MIT\npragma solidity 0.8.19;\nimport \"./AccessControl.sol\";\nimport \"./Demographics.sol\";\nimport \"./MedicalConditions.sol\";\nimport \"./Medications.sol\";\nimport \"./Allergies.sol\";\nimport \"./Surgeries.sol\";\nimport \"./Immunizations.sol\";\nimport \"./MentalHealth.sol\";\nimport \"./Insurance.sol\";\n\ncontract MediChain is AccessControl, Demographics,MedicalConditions,Medications,Allergies,Surgeries,Immunizations,MentalHistory,Insurance{\n    \n}",
  "sourcePath": "/Users/maauri/Projects/MediChain/contracts/MediChain.sol",
  "compiler": {
    "name": "solc",
    "version": "0.8.19+commit.7dd6d404.Emscripten.clang"
  },
  "schemaVersion": "3.4.16",
  "updatedAt": "2024-06-22T23:20:54.054Z",
  "networkType": "ethereum",
  "devdoc": {
    "kind": "dev",
    "methods": {},
    "version": 1
  },
  "userdoc": {
    "kind": "user",
    "methods": {},
    "version": 1
  }
}