{
  "contractName": "Medications",
  "abi": [
    {
      "anonymous": false,
      "inputs": [
        {
          "indexed": true,
          "internalType": "address",
          "name": "providerAddress",
          "type": "address"
        },
        {
          "indexed": true,
          "internalType": "address",
          "name": "patientAddress",
          "type": "address"
        },
        {
          "indexed": false,
          "internalType": "string",
          "name": "medication",
          "type": "string"
        }
      ],
      "name": "MedicationAdded",
      "type": "event"
    },
    {
      "inputs": [
        {
          "internalType": "address",
          "name": "_patient",
          "type": "address"
        },
        {
          "internalType": "address",
          "name": "_provider",
          "type": "address"
        }
      ],
      "name": "grantReadAccess",
      "outputs": [],
      "stateMutability": "nonpayable",
      "type": "function"
    },
    {
      "inputs": [
        {
          "internalType": "address",
          "name": "_patient",
          "type": "address"
        },
        {
          "internalType": "address",
          "name": "_provider",
          "type": "address"
        }
      ],
      "name": "grantUpdateAccess",
      "outputs": [],
      "stateMutability": "nonpayable",
      "type": "function"
    },
    {
      "inputs": [
        {
          "internalType": "address",
          "name": "_patient",
          "type": "address"
        }
      ],
      "name": "hasAddPermission",
      "outputs": [
        {
          "internalType": "bool",
          "name": "",
          "type": "bool"
        }
      ],
      "stateMutability": "view",
      "type": "function",
      "constant": true
    },
    {
      "inputs": [
        {
          "internalType": "address",
          "name": "_patient",
          "type": "address"
        },
        {
          "internalType": "address",
          "name": "_provider",
          "type": "address"
        }
      ],
      "name": "hasReadPermission",
      "outputs": [
        {
          "internalType": "bool",
          "name": "",
          "type": "bool"
        }
      ],
      "stateMutability": "view",
      "type": "function",
      "constant": true
    },
    {
      "inputs": [
        {
          "internalType": "address",
          "name": "_patient",
          "type": "address"
        },
        {
          "internalType": "address",
          "name": "_provider",
          "type": "address"
        }
      ],
      "name": "revokeReadAccess",
      "outputs": [],
      "stateMutability": "nonpayable",
      "type": "function"
    },
    {
      "inputs": [
        {
          "internalType": "address",
          "name": "_patient",
          "type": "address"
        },
        {
          "internalType": "address",
          "name": "_provider",
          "type": "address"
        }
      ],
      "name": "revokeUpdateAccess",
      "outputs": [],
      "stateMutability": "nonpayable",
      "type": "function"
    },
    {
      "inputs": [
        {
          "internalType": "address",
          "name": "_patient",
          "type": "address"
        },
        {
          "internalType": "string",
          "name": "_medicationName",
          "type": "string"
        },
        {
          "internalType": "string",
          "name": "_dosage",
          "type": "string"
        },
        {
          "internalType": "string",
          "name": "_startDate",
          "type": "string"
        },
        {
          "internalType": "string",
          "name": "_endDate",
          "type": "string"
        }
      ],
      "name": "addMedication",
      "outputs": [],
      "stateMutability": "nonpayable",
      "type": "function"
    },
    {
      "inputs": [
        {
          "internalType": "address",
          "name": "_patientAddress",
          "type": "address"
        }
      ],
      "name": "getMedication",
      "outputs": [
        {
          "components": [
            {
              "internalType": "string",
              "name": "medicationName",
              "type": "string"
            },
            {
              "internalType": "string",
              "name": "dosage",
              "type": "string"
            },
            {
              "internalType": "string",
              "name": "startDate",
              "type": "string"
            },
            {
              "internalType": "string",
              "name": "endDate",
              "type": "string"
            }
          ],
          "internalType": "struct Medications.Medication[]",
          "name": "",
          "type": "tuple[]"
        }
      ],
      "stateMutability": "view",
      "type": "function",
      "constant": true
    }
  ],
  "bytecode": "0x608060405234801561000f575f80fd5b5061159e8061001d5f395ff3fe608060405234801561000f575f80fd5b5060043610610086575f3560e01c80636aea790d116100595780636aea790d14610122578063ca80024d1461013e578063cae2274b1461015a578063e5b867dd1461018a57610086565b8063272acd7f1461008a57806356096536146100ba5780636448965a146100d657806366ed55a514610106575b5f80fd5b6100a4600480360381019061009f9190610c21565b6101a6565b6040516100b19190610c66565b60405180910390f35b6100d460048036038101906100cf9190610c7f565b610232565b005b6100f060048036038101906100eb9190610c7f565b6102b0565b6040516100fd9190610c66565b60405180910390f35b610120600480360381019061011b9190610c7f565b61033d565b005b61013c60048036038101906101379190610c7f565b6103bb565b005b61015860048036038101906101539190610c7f565b610439565b005b610174600480360381019061016f9190610c21565b6104b7565b6040516101819190610e77565b60405180910390f35b6101a4600480360381019061019f9190610fc3565b61088a565b005b5f805f8373ffffffffffffffffffffffffffffffffffffffff1673ffffffffffffffffffffffffffffffffffffffff1681526020019081526020015f205f3373ffffffffffffffffffffffffffffffffffffffff1673ffffffffffffffffffffffffffffffffffffffff1681526020019081526020015f205f9054906101000a900460ff169050919050565b818073ffffffffffffffffffffffffffffffffffffffff163373ffffffffffffffffffffffffffffffffffffffff16146102a1576040517f08c379a00000000000000000000000000000000000000000000000000000000081526004016102989061112a565b60405180910390fd5b6102ab8383610a99565b505050565b5f805f8473ffffffffffffffffffffffffffffffffffffffff1673ffffffffffffffffffffffffffffffffffffffff1681526020019081526020015f205f8373ffffffffffffffffffffffffffffffffffffffff1673ffffffffffffffffffffffffffffffffffffffff1681526020019081526020015f205f9054906101000a900460ff16905092915050565b818073ffffffffffffffffffffffffffffffffffffffff163373ffffffffffffffffffffffffffffffffffffffff16146103ac576040517f08c379a00000000000000000000000000000000000000000000000000000000081526004016103a39061112a565b60405180910390fd5b6103b68383610b2c565b505050565b818073ffffffffffffffffffffffffffffffffffffffff163373ffffffffffffffffffffffffffffffffffffffff161461042a576040517f08c379a00000000000000000000000000000000000000000000000000000000081526004016104219061112a565b60405180910390fd5b6104348383610b2c565b505050565b818073ffffffffffffffffffffffffffffffffffffffff163373ffffffffffffffffffffffffffffffffffffffff16146104a8576040517f08c379a000000000000000000000000000000000000000000000000000000000815260040161049f9061112a565b60405180910390fd5b6104b28383610a99565b505050565b6060818073ffffffffffffffffffffffffffffffffffffffff163373ffffffffffffffffffffffffffffffffffffffff16148061057457505f808273ffffffffffffffffffffffffffffffffffffffff1673ffffffffffffffffffffffffffffffffffffffff1681526020019081526020015f205f3373ffffffffffffffffffffffffffffffffffffffff1673ffffffffffffffffffffffffffffffffffffffff1681526020019081526020015f205f9054906101000a900460ff165b6105b3576040517f08c379a00000000000000000000000000000000000000000000000000000000081526004016105aa90611192565b60405180910390fd5b60015f8473ffffffffffffffffffffffffffffffffffffffff1673ffffffffffffffffffffffffffffffffffffffff1681526020019081526020015f20805480602002602001604051908101604052809291908181526020015f905b8282101561087e578382905f5260205f2090600402016040518060800160405290815f8201805461063f906111dd565b80601f016020809104026020016040519081016040528092919081815260200182805461066b906111dd565b80156106b65780601f1061068d576101008083540402835291602001916106b6565b820191905f5260205f20905b81548152906001019060200180831161069957829003601f168201915b505050505081526020016001820180546106cf906111dd565b80601f01602080910402602001604051908101604052809291908181526020018280546106fb906111dd565b80156107465780601f1061071d57610100808354040283529160200191610746565b820191905f5260205f20905b81548152906001019060200180831161072957829003601f168201915b5050505050815260200160028201805461075f906111dd565b80601f016020809104026020016040519081016040528092919081815260200182805461078b906111dd565b80156107d65780601f106107ad576101008083540402835291602001916107d6565b820191905f5260205f20905b8154815290600101906020018083116107b957829003601f168201915b505050505081526020016003820180546107ef906111dd565b80601f016020809104026020016040519081016040528092919081815260200182805461081b906111dd565b80156108665780601f1061083d57610100808354040283529160200191610866565b820191905f5260205f20905b81548152906001019060200180831161084957829003601f168201915b5050505050815250508152602001906001019061060f565b50505050915050919050565b33855f808273ffffffffffffffffffffffffffffffffffffffff1673ffffffffffffffffffffffffffffffffffffffff1681526020019081526020015f205f8373ffffffffffffffffffffffffffffffffffffffff1673ffffffffffffffffffffffffffffffffffffffff1681526020019081526020015f205f9054906101000a900460ff1661094f576040517f08c379a00000000000000000000000000000000000000000000000000000000081526004016109469061127d565b60405180910390fd5b60015f8873ffffffffffffffffffffffffffffffffffffffff1673ffffffffffffffffffffffffffffffffffffffff1681526020019081526020015f20604051806080016040528088815260200187815260200186815260200185815250908060018154018082558091505060019003905f5260205f2090600402015f909190919091505f820151815f0190816109e69190611441565b5060208201518160010190816109fc9190611441565b506040820151816002019081610a129190611441565b506060820151816003019081610a289190611441565b5050508673ffffffffffffffffffffffffffffffffffffffff163373ffffffffffffffffffffffffffffffffffffffff167f9447b4215e350597e9ea9fb5770b87d6864ec32bf79e7ea060228e432d8fc7e788604051610a889190611548565b60405180910390a350505050505050565b60015f808473ffffffffffffffffffffffffffffffffffffffff1673ffffffffffffffffffffffffffffffffffffffff1681526020019081526020015f205f8373ffffffffffffffffffffffffffffffffffffffff1673ffffffffffffffffffffffffffffffffffffffff1681526020019081526020015f205f6101000a81548160ff0219169083151502179055505050565b5f808373ffffffffffffffffffffffffffffffffffffffff1673ffffffffffffffffffffffffffffffffffffffff1681526020019081526020015f205f8273ffffffffffffffffffffffffffffffffffffffff1673ffffffffffffffffffffffffffffffffffffffff1681526020019081526020015f205f6101000a81549060ff02191690555050565b5f604051905090565b5f80fd5b5f80fd5b5f73ffffffffffffffffffffffffffffffffffffffff82169050919050565b5f610bf082610bc7565b9050919050565b610c0081610be6565b8114610c0a575f80fd5b50565b5f81359050610c1b81610bf7565b92915050565b5f60208284031215610c3657610c35610bbf565b5b5f610c4384828501610c0d565b91505092915050565b5f8115159050919050565b610c6081610c4c565b82525050565b5f602082019050610c795f830184610c57565b92915050565b5f8060408385031215610c9557610c94610bbf565b5b5f610ca285828601610c0d565b9250506020610cb385828601610c0d565b9150509250929050565b5f81519050919050565b5f82825260208201905092915050565b5f819050602082019050919050565b5f81519050919050565b5f82825260208201905092915050565b5f5b83811015610d1d578082015181840152602081019050610d02565b5f8484015250505050565b5f601f19601f8301169050919050565b5f610d4282610ce6565b610d4c8185610cf0565b9350610d5c818560208601610d00565b610d6581610d28565b840191505092915050565b5f608083015f8301518482035f860152610d8a8282610d38565b91505060208301518482036020860152610da48282610d38565b91505060408301518482036040860152610dbe8282610d38565b91505060608301518482036060860152610dd88282610d38565b9150508091505092915050565b5f610df08383610d70565b905092915050565b5f602082019050919050565b5f610e0e82610cbd565b610e188185610cc7565b935083602082028501610e2a85610cd7565b805f5b85811015610e655784840389528151610e468582610de5565b9450610e5183610df8565b925060208a01995050600181019050610e2d565b50829750879550505050505092915050565b5f6020820190508181035f830152610e8f8184610e04565b905092915050565b5f80fd5b5f80fd5b7f4e487b71000000000000000000000000000000000000000000000000000000005f52604160045260245ffd5b610ed582610d28565b810181811067ffffffffffffffff82111715610ef457610ef3610e9f565b5b80604052505050565b5f610f06610bb6565b9050610f128282610ecc565b919050565b5f67ffffffffffffffff821115610f3157610f30610e9f565b5b610f3a82610d28565b9050602081019050919050565b828183375f83830152505050565b5f610f67610f6284610f17565b610efd565b905082815260208101848484011115610f8357610f82610e9b565b5b610f8e848285610f47565b509392505050565b5f82601f830112610faa57610fa9610e97565b5b8135610fba848260208601610f55565b91505092915050565b5f805f805f60a08688031215610fdc57610fdb610bbf565b5b5f610fe988828901610c0d565b955050602086013567ffffffffffffffff81111561100a57611009610bc3565b5b61101688828901610f96565b945050604086013567ffffffffffffffff81111561103757611036610bc3565b5b61104388828901610f96565b935050606086013567ffffffffffffffff81111561106457611063610bc3565b5b61107088828901610f96565b925050608086013567ffffffffffffffff81111561109157611090610bc3565b5b61109d88828901610f96565b9150509295509295909350565b5f82825260208201905092915050565b7f4f6e6c79207468652070617469656e742063616e20706572666f726d207468695f8201527f7320616374696f6e000000000000000000000000000000000000000000000000602082015250565b5f6111146028836110aa565b915061111f826110ba565b604082019050919050565b5f6020820190508181035f83015261114181611108565b9050919050565b7f4e6f2072656164207065726d697373696f6e00000000000000000000000000005f82015250565b5f61117c6012836110aa565b915061118782611148565b602082019050919050565b5f6020820190508181035f8301526111a981611170565b9050919050565b7f4e487b71000000000000000000000000000000000000000000000000000000005f52602260045260245ffd5b5f60028204905060018216806111f457607f821691505b602082108103611207576112066111b0565b5b50919050565b7f4f6e6c7920617574686f72697a6564206865616c7468636172652070726f76695f8201527f646572732063616e20706572666f726d207468697320616374696f6e00000000602082015250565b5f611267603c836110aa565b91506112728261120d565b604082019050919050565b5f6020820190508181035f8301526112948161125b565b9050919050565b5f819050815f5260205f209050919050565b5f6020601f8301049050919050565b5f82821b905092915050565b5f600883026112f77fffffffffffffffffffffffffffffffffffffffffffffffffffffffffffffffff826112bc565b61130186836112bc565b95508019841693508086168417925050509392505050565b5f819050919050565b5f819050919050565b5f61134561134061133b84611319565b611322565b611319565b9050919050565b5f819050919050565b61135e8361132b565b61137261136a8261134c565b8484546112c8565b825550505050565b5f90565b61138661137a565b611391818484611355565b505050565b5b818110156113b4576113a95f8261137e565b600181019050611397565b5050565b601f8211156113f9576113ca8161129b565b6113d3846112ad565b810160208510156113e2578190505b6113f66113ee856112ad565b830182611396565b50505b505050565b5f82821c905092915050565b5f6114195f19846008026113fe565b1980831691505092915050565b5f611431838361140a565b9150826002028217905092915050565b61144a82610ce6565b67ffffffffffffffff81111561146357611462610e9f565b5b61146d82546111dd565b6114788282856113b8565b5f60209050601f8311600181146114a9575f8415611497578287015190505b6114a18582611426565b865550611508565b601f1984166114b78661129b565b5f5b828110156114de578489015182556001820191506020850194506020810190506114b9565b868310156114fb57848901516114f7601f89168261140a565b8355505b6001600288020188555050505b505050505050565b5f61151a82610ce6565b61152481856110aa565b9350611534818560208601610d00565b61153d81610d28565b840191505092915050565b5f6020820190508181035f8301526115608184611510565b90509291505056fea2646970667358221220893cce227a64784561d7191fe3333e74abba0c48da5cd6af16ef7c12e76fd19164736f6c63430008150033",
  "immutableReferences": {},
  "source": "// SPDX-License-Identifier: MIT\npragma solidity ^0.8.0;\nimport \"./AccessControl.sol\";\n\ncontract Medications is AccessControl{\n    struct Medication{\n        string medicationName;\n        string dosage;\n        string startDate;\n        string endDate;\n    }\n\n    mapping(address => Medication[]) private medications;\n    \n\n    event MedicationAdded(address indexed providerAddress,address indexed patientAddress, string medication);\n\n   \n    function addMedication(address _patient,string memory _medicationName, string memory _dosage, string memory _startDate, string memory _endDate) external onlyProvider(msg.sender, _patient){\n        medications[_patient].push(Medication(_medicationName, _dosage, _startDate, _endDate));\n        emit MedicationAdded(msg.sender, _patient, _medicationName);\n    }\n\n    function getMedication(address _patientAddress) public view onlyProviderOrPatient(_patientAddress) returns (Medication[] memory){\n        return medications[_patientAddress];\n    }\n}",
  "sourcePath": "/Users/maauri/Projects/MediChain/contracts/Medications.sol",
  "compiler": {
    "name": "solc",
    "version": "0.8.21+commit.d9974bed.Emscripten.clang"
  },
  "schemaVersion": "3.4.16",
  "updatedAt": "2024-06-16T23:05:40.968Z",
  "networkType": "ethereum",
  "devdoc": {
    "kind": "dev",
    "methods": {},
    "version": 1
  },
  "userdoc": {
    "kind": "user",
    "methods": {},
    "version": 1
  }
}