{
  "contractName": "MentalHistory",
  "abi": [
    {
      "anonymous": false,
      "inputs": [
        {
          "indexed": true,
          "internalType": "address",
          "name": "providerAddress",
          "type": "address"
        },
        {
          "indexed": true,
          "internalType": "address",
          "name": "patientAddress",
          "type": "address"
        },
        {
          "indexed": false,
          "internalType": "string",
          "name": "mentalHealth",
          "type": "string"
        }
      ],
      "name": "DiagnosisAdded",
      "type": "event"
    },
    {
      "inputs": [
        {
          "internalType": "address",
          "name": "_patient",
          "type": "address"
        },
        {
          "internalType": "address",
          "name": "_provider",
          "type": "address"
        }
      ],
      "name": "grantReadAccess",
      "outputs": [],
      "stateMutability": "nonpayable",
      "type": "function"
    },
    {
      "inputs": [
        {
          "internalType": "address",
          "name": "_patient",
          "type": "address"
        },
        {
          "internalType": "address",
          "name": "_provider",
          "type": "address"
        }
      ],
      "name": "grantUpdateAccess",
      "outputs": [],
      "stateMutability": "nonpayable",
      "type": "function"
    },
    {
      "inputs": [
        {
          "internalType": "address",
          "name": "_patient",
          "type": "address"
        }
      ],
      "name": "hasAddPermission",
      "outputs": [
        {
          "internalType": "bool",
          "name": "",
          "type": "bool"
        }
      ],
      "stateMutability": "view",
      "type": "function",
      "constant": true
    },
    {
      "inputs": [
        {
          "internalType": "address",
          "name": "_patient",
          "type": "address"
        },
        {
          "internalType": "address",
          "name": "_provider",
          "type": "address"
        }
      ],
      "name": "hasReadPermission",
      "outputs": [
        {
          "internalType": "bool",
          "name": "",
          "type": "bool"
        }
      ],
      "stateMutability": "view",
      "type": "function",
      "constant": true
    },
    {
      "inputs": [
        {
          "internalType": "address",
          "name": "_patient",
          "type": "address"
        },
        {
          "internalType": "address",
          "name": "_provider",
          "type": "address"
        }
      ],
      "name": "revokeReadAccess",
      "outputs": [],
      "stateMutability": "nonpayable",
      "type": "function"
    },
    {
      "inputs": [
        {
          "internalType": "address",
          "name": "_patient",
          "type": "address"
        },
        {
          "internalType": "address",
          "name": "_provider",
          "type": "address"
        }
      ],
      "name": "revokeUpdateAccess",
      "outputs": [],
      "stateMutability": "nonpayable",
      "type": "function"
    },
    {
      "inputs": [
        {
          "internalType": "address",
          "name": "_patient",
          "type": "address"
        },
        {
          "internalType": "string",
          "name": "_mentalHealthDiagnosis",
          "type": "string"
        },
        {
          "internalType": "string",
          "name": "_dateDiagnosed",
          "type": "string"
        }
      ],
      "name": "addDiagnosis",
      "outputs": [],
      "stateMutability": "nonpayable",
      "type": "function"
    },
    {
      "inputs": [
        {
          "internalType": "address",
          "name": "_patientAddress",
          "type": "address"
        }
      ],
      "name": "getDiagnosis",
      "outputs": [
        {
          "components": [
            {
              "internalType": "string",
              "name": "mentalHealthDiagnosis",
              "type": "string"
            },
            {
              "internalType": "string",
              "name": "dateDiagnosed",
              "type": "string"
            }
          ],
          "internalType": "struct MentalHistory.MentalHealth[]",
          "name": "",
          "type": "tuple[]"
        }
      ],
      "stateMutability": "view",
      "type": "function",
      "constant": true
    }
  ],
  "bytecode": "0x608060405234801561001057600080fd5b50611529806100206000396000f3fe608060405234801561001057600080fd5b50600436106100885760003560e01c80636aea790d1161005b5780636aea790d146101255780636f8d7bb814610141578063ca80024d1461015d578063e18c9a131461017957610088565b8063272acd7f1461008d57806356096536146100bd5780636448965a146100d957806366ed55a514610109575b600080fd5b6100a760048036038101906100a29190610bf4565b6101a9565b6040516100b49190610c3c565b60405180910390f35b6100d760048036038101906100d29190610c57565b61023c565b005b6100f360048036038101906100ee9190610c57565b610344565b6040516101009190610c3c565b60405180910390f35b610123600480360381019061011e9190610c57565b6103d7565b005b61013f600480360381019061013a9190610c57565b6104d6565b005b61015b60048036038101906101569190610ddd565b6105d6565b005b61017760048036038101906101729190610c57565b6107b8565b005b610193600480360381019061018e9190610bf4565b6108c0565b6040516101a09190610fed565b60405180910390f35b6000600160008373ffffffffffffffffffffffffffffffffffffffff1673ffffffffffffffffffffffffffffffffffffffff16815260200190815260200160002060003373ffffffffffffffffffffffffffffffffffffffff1673ffffffffffffffffffffffffffffffffffffffff16815260200190815260200160002060009054906101000a900460ff169050919050565b818073ffffffffffffffffffffffffffffffffffffffff163373ffffffffffffffffffffffffffffffffffffffff16146102ab576040517f08c379a00000000000000000000000000000000000000000000000000000000081526004016102a290611092565b60405180910390fd5b60018060008573ffffffffffffffffffffffffffffffffffffffff1673ffffffffffffffffffffffffffffffffffffffff16815260200190815260200160002060008473ffffffffffffffffffffffffffffffffffffffff1673ffffffffffffffffffffffffffffffffffffffff16815260200190815260200160002060006101000a81548160ff021916908315150217905550505050565b60008060008473ffffffffffffffffffffffffffffffffffffffff1673ffffffffffffffffffffffffffffffffffffffff16815260200190815260200160002060008373ffffffffffffffffffffffffffffffffffffffff1673ffffffffffffffffffffffffffffffffffffffff16815260200190815260200160002060009054906101000a900460ff16905092915050565b818073ffffffffffffffffffffffffffffffffffffffff163373ffffffffffffffffffffffffffffffffffffffff1614610446576040517f08c379a000000000000000000000000000000000000000000000000000000000815260040161043d90611092565b60405180910390fd5b6000808473ffffffffffffffffffffffffffffffffffffffff1673ffffffffffffffffffffffffffffffffffffffff16815260200190815260200160002060008373ffffffffffffffffffffffffffffffffffffffff1673ffffffffffffffffffffffffffffffffffffffff16815260200190815260200160002060006101000a81549060ff0219169055505050565b818073ffffffffffffffffffffffffffffffffffffffff163373ffffffffffffffffffffffffffffffffffffffff1614610545576040517f08c379a000000000000000000000000000000000000000000000000000000000815260040161053c90611092565b60405180910390fd5b600160008473ffffffffffffffffffffffffffffffffffffffff1673ffffffffffffffffffffffffffffffffffffffff16815260200190815260200160002060008373ffffffffffffffffffffffffffffffffffffffff1673ffffffffffffffffffffffffffffffffffffffff16815260200190815260200160002060006101000a81549060ff0219169055505050565b3383600160008273ffffffffffffffffffffffffffffffffffffffff1673ffffffffffffffffffffffffffffffffffffffff16815260200190815260200160002060008373ffffffffffffffffffffffffffffffffffffffff1673ffffffffffffffffffffffffffffffffffffffff16815260200190815260200160002060009054906101000a900460ff166106a1576040517f08c379a000000000000000000000000000000000000000000000000000000000815260040161069890611124565b60405180910390fd5b600260008673ffffffffffffffffffffffffffffffffffffffff1673ffffffffffffffffffffffffffffffffffffffff16815260200190815260200160002060405180604001604052808681526020018581525090806001815401808255809150506001900390600052602060002090600202016000909190919091506000820151816000019081610733919061135a565b506020820151816001019081610749919061135a565b5050508473ffffffffffffffffffffffffffffffffffffffff163373ffffffffffffffffffffffffffffffffffffffff167f74281083eb3bc8e3328ae34ce733aa04d0f4ad6ad6a2c183d3656b3879fa9b37866040516107a99190611465565b60405180910390a35050505050565b818073ffffffffffffffffffffffffffffffffffffffff163373ffffffffffffffffffffffffffffffffffffffff1614610827576040517f08c379a000000000000000000000000000000000000000000000000000000000815260040161081e90611092565b60405180910390fd5b60016000808573ffffffffffffffffffffffffffffffffffffffff1673ffffffffffffffffffffffffffffffffffffffff16815260200190815260200160002060008473ffffffffffffffffffffffffffffffffffffffff1673ffffffffffffffffffffffffffffffffffffffff16815260200190815260200160002060006101000a81548160ff021916908315150217905550505050565b6060818073ffffffffffffffffffffffffffffffffffffffff163373ffffffffffffffffffffffffffffffffffffffff16148061098257506000808273ffffffffffffffffffffffffffffffffffffffff1673ffffffffffffffffffffffffffffffffffffffff16815260200190815260200160002060003373ffffffffffffffffffffffffffffffffffffffff1673ffffffffffffffffffffffffffffffffffffffff16815260200190815260200160002060009054906101000a900460ff165b6109c1576040517f08c379a00000000000000000000000000000000000000000000000000000000081526004016109b8906114d3565b60405180910390fd5b600260008473ffffffffffffffffffffffffffffffffffffffff1673ffffffffffffffffffffffffffffffffffffffff168152602001908152602001600020805480602002602001604051908101604052809291908181526020016000905b82821015610b765783829060005260206000209060020201604051806040016040529081600082018054610a5390611173565b80601f0160208091040260200160405190810160405280929190818152602001828054610a7f90611173565b8015610acc5780601f10610aa157610100808354040283529160200191610acc565b820191906000526020600020905b815481529060010190602001808311610aaf57829003601f168201915b50505050508152602001600182018054610ae590611173565b80601f0160208091040260200160405190810160405280929190818152602001828054610b1190611173565b8015610b5e5780601f10610b3357610100808354040283529160200191610b5e565b820191906000526020600020905b815481529060010190602001808311610b4157829003601f168201915b50505050508152505081526020019060010190610a20565b50505050915050919050565b6000604051905090565b600080fd5b600080fd5b600073ffffffffffffffffffffffffffffffffffffffff82169050919050565b6000610bc182610b96565b9050919050565b610bd181610bb6565b8114610bdc57600080fd5b50565b600081359050610bee81610bc8565b92915050565b600060208284031215610c0a57610c09610b8c565b5b6000610c1884828501610bdf565b91505092915050565b60008115159050919050565b610c3681610c21565b82525050565b6000602082019050610c516000830184610c2d565b92915050565b60008060408385031215610c6e57610c6d610b8c565b5b6000610c7c85828601610bdf565b9250506020610c8d85828601610bdf565b9150509250929050565b600080fd5b600080fd5b6000601f19601f8301169050919050565b7f4e487b7100000000000000000000000000000000000000000000000000000000600052604160045260246000fd5b610cea82610ca1565b810181811067ffffffffffffffff82111715610d0957610d08610cb2565b5b80604052505050565b6000610d1c610b82565b9050610d288282610ce1565b919050565b600067ffffffffffffffff821115610d4857610d47610cb2565b5b610d5182610ca1565b9050602081019050919050565b82818337600083830152505050565b6000610d80610d7b84610d2d565b610d12565b905082815260208101848484011115610d9c57610d9b610c9c565b5b610da7848285610d5e565b509392505050565b600082601f830112610dc457610dc3610c97565b5b8135610dd4848260208601610d6d565b91505092915050565b600080600060608486031215610df657610df5610b8c565b5b6000610e0486828701610bdf565b935050602084013567ffffffffffffffff811115610e2557610e24610b91565b5b610e3186828701610daf565b925050604084013567ffffffffffffffff811115610e5257610e51610b91565b5b610e5e86828701610daf565b9150509250925092565b600081519050919050565b600082825260208201905092915050565b6000819050602082019050919050565b600081519050919050565b600082825260208201905092915050565b60005b83811015610ece578082015181840152602081019050610eb3565b60008484015250505050565b6000610ee582610e94565b610eef8185610e9f565b9350610eff818560208601610eb0565b610f0881610ca1565b840191505092915050565b60006040830160008301518482036000860152610f308282610eda565b91505060208301518482036020860152610f4a8282610eda565b9150508091505092915050565b6000610f638383610f13565b905092915050565b6000602082019050919050565b6000610f8382610e68565b610f8d8185610e73565b935083602082028501610f9f85610e84565b8060005b85811015610fdb5784840389528151610fbc8582610f57565b9450610fc783610f6b565b925060208a01995050600181019050610fa3565b50829750879550505050505092915050565b600060208201905081810360008301526110078184610f78565b905092915050565b600082825260208201905092915050565b7f4f6e6c79207468652070617469656e742063616e20706572666f726d2074686960008201527f7320616374696f6e000000000000000000000000000000000000000000000000602082015250565b600061107c60288361100f565b915061108782611020565b604082019050919050565b600060208201905081810360008301526110ab8161106f565b9050919050565b7f4f6e6c7920617574686f72697a6564206865616c7468636172652070726f766960008201527f646572732063616e20706572666f726d207468697320616374696f6e00000000602082015250565b600061110e603c8361100f565b9150611119826110b2565b604082019050919050565b6000602082019050818103600083015261113d81611101565b9050919050565b7f4e487b7100000000000000000000000000000000000000000000000000000000600052602260045260246000fd5b6000600282049050600182168061118b57607f821691505b60208210810361119e5761119d611144565b5b50919050565b60008190508160005260206000209050919050565b60006020601f8301049050919050565b600082821b905092915050565b6000600883026112067fffffffffffffffffffffffffffffffffffffffffffffffffffffffffffffffff826111c9565b61121086836111c9565b95508019841693508086168417925050509392505050565b6000819050919050565b6000819050919050565b600061125761125261124d84611228565b611232565b611228565b9050919050565b6000819050919050565b6112718361123c565b61128561127d8261125e565b8484546111d6565b825550505050565b600090565b61129a61128d565b6112a5818484611268565b505050565b5b818110156112c9576112be600082611292565b6001810190506112ab565b5050565b601f82111561130e576112df816111a4565b6112e8846111b9565b810160208510156112f7578190505b61130b611303856111b9565b8301826112aa565b50505b505050565b600082821c905092915050565b600061133160001984600802611313565b1980831691505092915050565b600061134a8383611320565b9150826002028217905092915050565b61136382610e94565b67ffffffffffffffff81111561137c5761137b610cb2565b5b6113868254611173565b6113918282856112cd565b600060209050601f8311600181146113c457600084156113b2578287015190505b6113bc858261133e565b865550611424565b601f1984166113d2866111a4565b60005b828110156113fa578489015182556001820191506020850194506020810190506113d5565b868310156114175784890151611413601f891682611320565b8355505b6001600288020188555050505b505050505050565b600061143782610e94565b611441818561100f565b9350611451818560208601610eb0565b61145a81610ca1565b840191505092915050565b6000602082019050818103600083015261147f818461142c565b905092915050565b7f4e6f2072656164207065726d697373696f6e0000000000000000000000000000600082015250565b60006114bd60128361100f565b91506114c882611487565b602082019050919050565b600060208201905081810360008301526114ec816114b0565b905091905056fea264697066735822122078427ad1332c9549ee56c6dc79d199f2dba726898f20b0f6c268c44eb4cc6a4f64736f6c63430008130033",
  "immutableReferences": {},
  "source": "// SPDX-License-Identifier: MIT\npragma solidity 0.8.19;\nimport \"./AccessControl.sol\";\n\ncontract MentalHistory is AccessControl{\n    struct MentalHealth{\n        string mentalHealthDiagnosis;\n        string dateDiagnosed;\n    }\n\n    mapping(address => MentalHealth[]) private mentalHealth;\n\n    event DiagnosisAdded(address indexed providerAddress, address indexed patientAddress, string mentalHealth);\n\n    function addDiagnosis(address _patient, string memory _mentalHealthDiagnosis, string memory _dateDiagnosed) public write(msg.sender, _patient){\n        mentalHealth[_patient].push(MentalHealth(_mentalHealthDiagnosis, _dateDiagnosed));\n        emit DiagnosisAdded(msg.sender, _patient,  _mentalHealthDiagnosis);\n    }\n\n    function getDiagnosis(address _patientAddress) public view readOnly(_patientAddress) returns (MentalHealth[] memory){\n        return mentalHealth[_patientAddress];\n    }\n}",
  "sourcePath": "/Users/maauri/Projects/MediChain/contracts/MentalHealth.sol",
  "compiler": {
    "name": "solc",
    "version": "0.8.19+commit.7dd6d404.Emscripten.clang"
  },
  "schemaVersion": "3.4.16",
  "updatedAt": "2024-07-12T18:14:56.035Z",
  "networkType": "ethereum",
  "devdoc": {
    "kind": "dev",
    "methods": {},
    "version": 1
  },
  "userdoc": {
    "kind": "user",
    "methods": {},
    "version": 1
  }
}