{
  "contractName": "MentalHistory",
  "abi": [
    {
      "anonymous": false,
      "inputs": [
        {
          "indexed": true,
          "internalType": "address",
          "name": "providerAddress",
          "type": "address"
        },
        {
          "indexed": true,
          "internalType": "address",
          "name": "patientAddress",
          "type": "address"
        },
        {
          "indexed": false,
          "internalType": "string",
          "name": "mentalHealth",
          "type": "string"
        }
      ],
      "name": "DiagnosisAdded",
      "type": "event"
    },
    {
      "inputs": [
        {
          "internalType": "address",
          "name": "_patient",
          "type": "address"
        },
        {
          "internalType": "address",
          "name": "_provider",
          "type": "address"
        }
      ],
      "name": "grantReadAccess",
      "outputs": [],
      "stateMutability": "nonpayable",
      "type": "function"
    },
    {
      "inputs": [
        {
          "internalType": "address",
          "name": "_patient",
          "type": "address"
        },
        {
          "internalType": "address",
          "name": "_provider",
          "type": "address"
        }
      ],
      "name": "grantUpdateAccess",
      "outputs": [],
      "stateMutability": "nonpayable",
      "type": "function"
    },
    {
      "inputs": [
        {
          "internalType": "address",
          "name": "_patient",
          "type": "address"
        }
      ],
      "name": "hasAddPermission",
      "outputs": [
        {
          "internalType": "bool",
          "name": "",
          "type": "bool"
        }
      ],
      "stateMutability": "view",
      "type": "function",
      "constant": true
    },
    {
      "inputs": [
        {
          "internalType": "address",
          "name": "_patient",
          "type": "address"
        },
        {
          "internalType": "address",
          "name": "_provider",
          "type": "address"
        }
      ],
      "name": "hasReadPermission",
      "outputs": [
        {
          "internalType": "bool",
          "name": "",
          "type": "bool"
        }
      ],
      "stateMutability": "view",
      "type": "function",
      "constant": true
    },
    {
      "inputs": [
        {
          "internalType": "address",
          "name": "_patient",
          "type": "address"
        },
        {
          "internalType": "address",
          "name": "_provider",
          "type": "address"
        }
      ],
      "name": "revokeReadAccess",
      "outputs": [],
      "stateMutability": "nonpayable",
      "type": "function"
    },
    {
      "inputs": [
        {
          "internalType": "address",
          "name": "_patient",
          "type": "address"
        },
        {
          "internalType": "address",
          "name": "_provider",
          "type": "address"
        }
      ],
      "name": "revokeUpdateAccess",
      "outputs": [],
      "stateMutability": "nonpayable",
      "type": "function"
    },
    {
      "inputs": [
        {
          "internalType": "address",
          "name": "_patient",
          "type": "address"
        },
        {
          "internalType": "string",
          "name": "_mentalHealthDiagnosis",
          "type": "string"
        },
        {
          "internalType": "string",
          "name": "_dateDiagnosed",
          "type": "string"
        }
      ],
      "name": "addDiagnosis",
      "outputs": [],
      "stateMutability": "nonpayable",
      "type": "function"
    },
    {
      "inputs": [
        {
          "internalType": "address",
          "name": "_patientAddress",
          "type": "address"
        }
      ],
      "name": "getDiagnosis",
      "outputs": [
        {
          "components": [
            {
              "internalType": "string",
              "name": "mentalHealthDiagnosis",
              "type": "string"
            },
            {
              "internalType": "string",
              "name": "dateDiagnosed",
              "type": "string"
            }
          ],
          "internalType": "struct MentalHistory.MentalHealth[]",
          "name": "",
          "type": "tuple[]"
        }
      ],
      "stateMutability": "view",
      "type": "function",
      "constant": true
    }
  ],
  "bytecode": "0x608060405234801561000f575f80fd5b506113b18061001d5f395ff3fe608060405234801561000f575f80fd5b5060043610610086575f3560e01c80636aea790d116100595780636aea790d146101225780636f8d7bb81461013e578063ca80024d1461015a578063e18c9a131461017657610086565b8063272acd7f1461008a57806356096536146100ba5780636448965a146100d657806366ed55a514610106575b5f80fd5b6100a4600480360381019061009f9190610ac7565b6101a6565b6040516100b19190610b0c565b60405180910390f35b6100d460048036038101906100cf9190610b25565b610232565b005b6100f060048036038101906100eb9190610b25565b6102b0565b6040516100fd9190610b0c565b60405180910390f35b610120600480360381019061011b9190610b25565b61033d565b005b61013c60048036038101906101379190610b25565b6103bb565b005b61015860048036038101906101539190610c9f565b610439565b005b610174600480360381019061016f9190610b25565b61060e565b005b610190600480360381019061018b9190610ac7565b61068c565b60405161019d9190610e9d565b60405180910390f35b5f805f8373ffffffffffffffffffffffffffffffffffffffff1673ffffffffffffffffffffffffffffffffffffffff1681526020019081526020015f205f3373ffffffffffffffffffffffffffffffffffffffff1673ffffffffffffffffffffffffffffffffffffffff1681526020019081526020015f205f9054906101000a900460ff169050919050565b818073ffffffffffffffffffffffffffffffffffffffff163373ffffffffffffffffffffffffffffffffffffffff16146102a1576040517f08c379a000000000000000000000000000000000000000000000000000000000815260040161029890610f3d565b60405180910390fd5b6102ab838361093f565b505050565b5f805f8473ffffffffffffffffffffffffffffffffffffffff1673ffffffffffffffffffffffffffffffffffffffff1681526020019081526020015f205f8373ffffffffffffffffffffffffffffffffffffffff1673ffffffffffffffffffffffffffffffffffffffff1681526020019081526020015f205f9054906101000a900460ff16905092915050565b818073ffffffffffffffffffffffffffffffffffffffff163373ffffffffffffffffffffffffffffffffffffffff16146103ac576040517f08c379a00000000000000000000000000000000000000000000000000000000081526004016103a390610f3d565b60405180910390fd5b6103b683836109d2565b505050565b818073ffffffffffffffffffffffffffffffffffffffff163373ffffffffffffffffffffffffffffffffffffffff161461042a576040517f08c379a000000000000000000000000000000000000000000000000000000000815260040161042190610f3d565b60405180910390fd5b61043483836109d2565b505050565b33835f808273ffffffffffffffffffffffffffffffffffffffff1673ffffffffffffffffffffffffffffffffffffffff1681526020019081526020015f205f8373ffffffffffffffffffffffffffffffffffffffff1673ffffffffffffffffffffffffffffffffffffffff1681526020019081526020015f205f9054906101000a900460ff166104fe576040517f08c379a00000000000000000000000000000000000000000000000000000000081526004016104f590610fcb565b60405180910390fd5b60015f8673ffffffffffffffffffffffffffffffffffffffff1673ffffffffffffffffffffffffffffffffffffffff1681526020019081526020015f20604051806040016040528086815260200185815250908060018154018082558091505060019003905f5260205f2090600202015f909190919091505f820151815f01908161058991906111ec565b50602082015181600101908161059f91906111ec565b5050508473ffffffffffffffffffffffffffffffffffffffff163373ffffffffffffffffffffffffffffffffffffffff167f74281083eb3bc8e3328ae34ce733aa04d0f4ad6ad6a2c183d3656b3879fa9b37866040516105ff91906112f3565b60405180910390a35050505050565b818073ffffffffffffffffffffffffffffffffffffffff163373ffffffffffffffffffffffffffffffffffffffff161461067d576040517f08c379a000000000000000000000000000000000000000000000000000000000815260040161067490610f3d565b60405180910390fd5b610687838361093f565b505050565b6060818073ffffffffffffffffffffffffffffffffffffffff163373ffffffffffffffffffffffffffffffffffffffff16148061074957505f808273ffffffffffffffffffffffffffffffffffffffff1673ffffffffffffffffffffffffffffffffffffffff1681526020019081526020015f205f3373ffffffffffffffffffffffffffffffffffffffff1673ffffffffffffffffffffffffffffffffffffffff1681526020019081526020015f205f9054906101000a900460ff165b610788576040517f08c379a000000000000000000000000000000000000000000000000000000000815260040161077f9061135d565b60405180910390fd5b60015f8473ffffffffffffffffffffffffffffffffffffffff1673ffffffffffffffffffffffffffffffffffffffff1681526020019081526020015f20805480602002602001604051908101604052809291908181526020015f905b82821015610933578382905f5260205f2090600202016040518060400160405290815f8201805461081490611016565b80601f016020809104026020016040519081016040528092919081815260200182805461084090611016565b801561088b5780601f106108625761010080835404028352916020019161088b565b820191905f5260205f20905b81548152906001019060200180831161086e57829003601f168201915b505050505081526020016001820180546108a490611016565b80601f01602080910402602001604051908101604052809291908181526020018280546108d090611016565b801561091b5780601f106108f25761010080835404028352916020019161091b565b820191905f5260205f20905b8154815290600101906020018083116108fe57829003601f168201915b505050505081525050815260200190600101906107e4565b50505050915050919050565b60015f808473ffffffffffffffffffffffffffffffffffffffff1673ffffffffffffffffffffffffffffffffffffffff1681526020019081526020015f205f8373ffffffffffffffffffffffffffffffffffffffff1673ffffffffffffffffffffffffffffffffffffffff1681526020019081526020015f205f6101000a81548160ff0219169083151502179055505050565b5f808373ffffffffffffffffffffffffffffffffffffffff1673ffffffffffffffffffffffffffffffffffffffff1681526020019081526020015f205f8273ffffffffffffffffffffffffffffffffffffffff1673ffffffffffffffffffffffffffffffffffffffff1681526020019081526020015f205f6101000a81549060ff02191690555050565b5f604051905090565b5f80fd5b5f80fd5b5f73ffffffffffffffffffffffffffffffffffffffff82169050919050565b5f610a9682610a6d565b9050919050565b610aa681610a8c565b8114610ab0575f80fd5b50565b5f81359050610ac181610a9d565b92915050565b5f60208284031215610adc57610adb610a65565b5b5f610ae984828501610ab3565b91505092915050565b5f8115159050919050565b610b0681610af2565b82525050565b5f602082019050610b1f5f830184610afd565b92915050565b5f8060408385031215610b3b57610b3a610a65565b5b5f610b4885828601610ab3565b9250506020610b5985828601610ab3565b9150509250929050565b5f80fd5b5f80fd5b5f601f19601f8301169050919050565b7f4e487b71000000000000000000000000000000000000000000000000000000005f52604160045260245ffd5b610bb182610b6b565b810181811067ffffffffffffffff82111715610bd057610bcf610b7b565b5b80604052505050565b5f610be2610a5c565b9050610bee8282610ba8565b919050565b5f67ffffffffffffffff821115610c0d57610c0c610b7b565b5b610c1682610b6b565b9050602081019050919050565b828183375f83830152505050565b5f610c43610c3e84610bf3565b610bd9565b905082815260208101848484011115610c5f57610c5e610b67565b5b610c6a848285610c23565b509392505050565b5f82601f830112610c8657610c85610b63565b5b8135610c96848260208601610c31565b91505092915050565b5f805f60608486031215610cb657610cb5610a65565b5b5f610cc386828701610ab3565b935050602084013567ffffffffffffffff811115610ce457610ce3610a69565b5b610cf086828701610c72565b925050604084013567ffffffffffffffff811115610d1157610d10610a69565b5b610d1d86828701610c72565b9150509250925092565b5f81519050919050565b5f82825260208201905092915050565b5f819050602082019050919050565b5f81519050919050565b5f82825260208201905092915050565b5f5b83811015610d87578082015181840152602081019050610d6c565b5f8484015250505050565b5f610d9c82610d50565b610da68185610d5a565b9350610db6818560208601610d6a565b610dbf81610b6b565b840191505092915050565b5f604083015f8301518482035f860152610de48282610d92565b91505060208301518482036020860152610dfe8282610d92565b9150508091505092915050565b5f610e168383610dca565b905092915050565b5f602082019050919050565b5f610e3482610d27565b610e3e8185610d31565b935083602082028501610e5085610d41565b805f5b85811015610e8b5784840389528151610e6c8582610e0b565b9450610e7783610e1e565b925060208a01995050600181019050610e53565b50829750879550505050505092915050565b5f6020820190508181035f830152610eb58184610e2a565b905092915050565b5f82825260208201905092915050565b7f4f6e6c79207468652070617469656e742063616e20706572666f726d207468695f8201527f7320616374696f6e000000000000000000000000000000000000000000000000602082015250565b5f610f27602883610ebd565b9150610f3282610ecd565b604082019050919050565b5f6020820190508181035f830152610f5481610f1b565b9050919050565b7f4f6e6c7920617574686f72697a6564206865616c7468636172652070726f76695f8201527f646572732063616e20706572666f726d207468697320616374696f6e00000000602082015250565b5f610fb5603c83610ebd565b9150610fc082610f5b565b604082019050919050565b5f6020820190508181035f830152610fe281610fa9565b9050919050565b7f4e487b71000000000000000000000000000000000000000000000000000000005f52602260045260245ffd5b5f600282049050600182168061102d57607f821691505b6020821081036110405761103f610fe9565b5b50919050565b5f819050815f5260205f209050919050565b5f6020601f8301049050919050565b5f82821b905092915050565b5f600883026110a27fffffffffffffffffffffffffffffffffffffffffffffffffffffffffffffffff82611067565b6110ac8683611067565b95508019841693508086168417925050509392505050565b5f819050919050565b5f819050919050565b5f6110f06110eb6110e6846110c4565b6110cd565b6110c4565b9050919050565b5f819050919050565b611109836110d6565b61111d611115826110f7565b848454611073565b825550505050565b5f90565b611131611125565b61113c818484611100565b505050565b5b8181101561115f576111545f82611129565b600181019050611142565b5050565b601f8211156111a45761117581611046565b61117e84611058565b8101602085101561118d578190505b6111a161119985611058565b830182611141565b50505b505050565b5f82821c905092915050565b5f6111c45f19846008026111a9565b1980831691505092915050565b5f6111dc83836111b5565b9150826002028217905092915050565b6111f582610d50565b67ffffffffffffffff81111561120e5761120d610b7b565b5b6112188254611016565b611223828285611163565b5f60209050601f831160018114611254575f8415611242578287015190505b61124c85826111d1565b8655506112b3565b601f19841661126286611046565b5f5b8281101561128957848901518255600182019150602085019450602081019050611264565b868310156112a657848901516112a2601f8916826111b5565b8355505b6001600288020188555050505b505050505050565b5f6112c582610d50565b6112cf8185610ebd565b93506112df818560208601610d6a565b6112e881610b6b565b840191505092915050565b5f6020820190508181035f83015261130b81846112bb565b905092915050565b7f4e6f2072656164207065726d697373696f6e00000000000000000000000000005f82015250565b5f611347601283610ebd565b915061135282611313565b602082019050919050565b5f6020820190508181035f8301526113748161133b565b905091905056fea2646970667358221220fdd3f07d68e0240aee5daca136b53f4b206bbda72876d0a70da93e1edbe5a59d64736f6c63430008150033",
  "immutableReferences": {},
  "source": "// SPDX-License-Identifier: MIT\npragma solidity ^0.8.0;\nimport \"./AccessControl.sol\";\n\ncontract MentalHistory is AccessControl{\n    struct MentalHealth{\n        string mentalHealthDiagnosis;\n        string dateDiagnosed;\n    }\n\n    mapping(address => MentalHealth[]) private mentalHealth;\n\n    event DiagnosisAdded(address indexed providerAddress, address indexed patientAddress, string mentalHealth);\n\n    function addDiagnosis(address _patient, string memory _mentalHealthDiagnosis, string memory _dateDiagnosed) public onlyProvider(msg.sender, _patient){\n        mentalHealth[_patient].push(MentalHealth(_mentalHealthDiagnosis, _dateDiagnosed));\n        emit DiagnosisAdded(msg.sender, _patient,  _mentalHealthDiagnosis);\n    }\n\n    function getDiagnosis(address _patientAddress) public view onlyProviderOrPatient(_patientAddress) returns (MentalHealth[] memory){\n        return mentalHealth[_patientAddress];\n    }\n}",
  "sourcePath": "/Users/maauri/Projects/MediChain/contracts/MentalHealth.sol",
  "compiler": {
    "name": "solc",
    "version": "0.8.21+commit.d9974bed.Emscripten.clang"
  },
  "schemaVersion": "3.4.16",
  "updatedAt": "2024-06-16T23:05:40.984Z",
  "networkType": "ethereum",
  "devdoc": {
    "kind": "dev",
    "methods": {},
    "version": 1
  },
  "userdoc": {
    "kind": "user",
    "methods": {},
    "version": 1
  }
}