{
  "contractName": "Surgeries",
  "abi": [
    {
      "anonymous": false,
      "inputs": [
        {
          "indexed": true,
          "internalType": "address",
          "name": "providerAddress",
          "type": "address"
        },
        {
          "indexed": true,
          "internalType": "address",
          "name": "patientAddress",
          "type": "address"
        },
        {
          "indexed": false,
          "internalType": "string",
          "name": "surgery",
          "type": "string"
        }
      ],
      "name": "SurgeryAdded",
      "type": "event"
    },
    {
      "inputs": [
        {
          "internalType": "address",
          "name": "_patient",
          "type": "address"
        },
        {
          "internalType": "address",
          "name": "_provider",
          "type": "address"
        }
      ],
      "name": "grantReadAccess",
      "outputs": [],
      "stateMutability": "nonpayable",
      "type": "function"
    },
    {
      "inputs": [
        {
          "internalType": "address",
          "name": "_patient",
          "type": "address"
        },
        {
          "internalType": "address",
          "name": "_provider",
          "type": "address"
        }
      ],
      "name": "grantUpdateAccess",
      "outputs": [],
      "stateMutability": "nonpayable",
      "type": "function"
    },
    {
      "inputs": [
        {
          "internalType": "address",
          "name": "_patient",
          "type": "address"
        }
      ],
      "name": "hasAddPermission",
      "outputs": [
        {
          "internalType": "bool",
          "name": "",
          "type": "bool"
        }
      ],
      "stateMutability": "view",
      "type": "function",
      "constant": true
    },
    {
      "inputs": [
        {
          "internalType": "address",
          "name": "_patient",
          "type": "address"
        },
        {
          "internalType": "address",
          "name": "_provider",
          "type": "address"
        }
      ],
      "name": "hasReadPermission",
      "outputs": [
        {
          "internalType": "bool",
          "name": "",
          "type": "bool"
        }
      ],
      "stateMutability": "view",
      "type": "function",
      "constant": true
    },
    {
      "inputs": [
        {
          "internalType": "address",
          "name": "_patient",
          "type": "address"
        },
        {
          "internalType": "address",
          "name": "_provider",
          "type": "address"
        }
      ],
      "name": "revokeReadAccess",
      "outputs": [],
      "stateMutability": "nonpayable",
      "type": "function"
    },
    {
      "inputs": [
        {
          "internalType": "address",
          "name": "_patient",
          "type": "address"
        },
        {
          "internalType": "address",
          "name": "_provider",
          "type": "address"
        }
      ],
      "name": "revokeUpdateAccess",
      "outputs": [],
      "stateMutability": "nonpayable",
      "type": "function"
    },
    {
      "inputs": [
        {
          "internalType": "address",
          "name": "_patient",
          "type": "address"
        },
        {
          "internalType": "string",
          "name": "_surgeryType",
          "type": "string"
        },
        {
          "internalType": "string",
          "name": "_surgeryDate",
          "type": "string"
        }
      ],
      "name": "addSurgery",
      "outputs": [],
      "stateMutability": "nonpayable",
      "type": "function"
    },
    {
      "inputs": [
        {
          "internalType": "address",
          "name": "_patientAddress",
          "type": "address"
        }
      ],
      "name": "getSurgery",
      "outputs": [
        {
          "components": [
            {
              "internalType": "string",
              "name": "surgeryType",
              "type": "string"
            },
            {
              "internalType": "string",
              "name": "surgeryDate",
              "type": "string"
            }
          ],
          "internalType": "struct Surgeries.Surgery[]",
          "name": "",
          "type": "tuple[]"
        }
      ],
      "stateMutability": "view",
      "type": "function",
      "constant": true
    }
  ],
  "bytecode": "0x608060405234801561001057600080fd5b50611437806100206000396000f3fe608060405234801561001057600080fd5b50600436106100885760003560e01c806366ed55a51161005b57806366ed55a5146101255780636aea790d14610141578063b4fa492e1461015d578063ca80024d1461018d57610088565b8063272acd7f1461008d578063376b976e146100bd57806356096536146100d95780636448965a146100f5575b600080fd5b6100a760048036038101906100a29190610b02565b6101a9565b6040516100b49190610b4a565b60405180910390f35b6100d760048036038101906100d29190610cab565b61023b565b005b6100f360048036038101906100ee9190610d36565b61041c565b005b61010f600480360381019061010a9190610d36565b61049a565b60405161011c9190610b4a565b60405180910390f35b61013f600480360381019061013a9190610d36565b61052d565b005b61015b60048036038101906101569190610d36565b6105ab565b005b61017760048036038101906101729190610b02565b610629565b6040516101849190610efb565b60405180910390f35b6101a760048036038101906101a29190610d36565b6108eb565b005b60008060008373ffffffffffffffffffffffffffffffffffffffff1673ffffffffffffffffffffffffffffffffffffffff16815260200190815260200160002060003373ffffffffffffffffffffffffffffffffffffffff1673ffffffffffffffffffffffffffffffffffffffff16815260200190815260200160002060009054906101000a900460ff169050919050565b33836000808273ffffffffffffffffffffffffffffffffffffffff1673ffffffffffffffffffffffffffffffffffffffff16815260200190815260200160002060008373ffffffffffffffffffffffffffffffffffffffff1673ffffffffffffffffffffffffffffffffffffffff16815260200190815260200160002060009054906101000a900460ff16610305576040517f08c379a00000000000000000000000000000000000000000000000000000000081526004016102fc90610fa0565b60405180910390fd5b600160008673ffffffffffffffffffffffffffffffffffffffff1673ffffffffffffffffffffffffffffffffffffffff1681526020019081526020016000206040518060400160405280868152602001858152509080600181540180825580915050600190039060005260206000209060020201600090919091909150600082015181600001908161039791906111d6565b5060208201518160010190816103ad91906111d6565b5050508473ffffffffffffffffffffffffffffffffffffffff163373ffffffffffffffffffffffffffffffffffffffff167f59dbb49d56e090173437dee4576019b91ba76e2b4b04db4a870e48eae23a18498660405161040d91906112e1565b60405180910390a35050505050565b818073ffffffffffffffffffffffffffffffffffffffff163373ffffffffffffffffffffffffffffffffffffffff161461048b576040517f08c379a000000000000000000000000000000000000000000000000000000000815260040161048290611375565b60405180910390fd5b6104958383610969565b505050565b60008060008473ffffffffffffffffffffffffffffffffffffffff1673ffffffffffffffffffffffffffffffffffffffff16815260200190815260200160002060008373ffffffffffffffffffffffffffffffffffffffff1673ffffffffffffffffffffffffffffffffffffffff16815260200190815260200160002060009054906101000a900460ff16905092915050565b818073ffffffffffffffffffffffffffffffffffffffff163373ffffffffffffffffffffffffffffffffffffffff161461059c576040517f08c379a000000000000000000000000000000000000000000000000000000000815260040161059390611375565b60405180910390fd5b6105a68383610a01565b505050565b818073ffffffffffffffffffffffffffffffffffffffff163373ffffffffffffffffffffffffffffffffffffffff161461061a576040517f08c379a000000000000000000000000000000000000000000000000000000000815260040161061190611375565b60405180910390fd5b6106248383610a01565b505050565b6060818073ffffffffffffffffffffffffffffffffffffffff163373ffffffffffffffffffffffffffffffffffffffff1614806106eb57506000808273ffffffffffffffffffffffffffffffffffffffff1673ffffffffffffffffffffffffffffffffffffffff16815260200190815260200160002060003373ffffffffffffffffffffffffffffffffffffffff1673ffffffffffffffffffffffffffffffffffffffff16815260200190815260200160002060009054906101000a900460ff165b61072a576040517f08c379a0000000000000000000000000000000000000000000000000000000008152600401610721906113e1565b60405180910390fd5b600160008473ffffffffffffffffffffffffffffffffffffffff1673ffffffffffffffffffffffffffffffffffffffff168152602001908152602001600020805480602002602001604051908101604052809291908181526020016000905b828210156108df57838290600052602060002090600202016040518060400160405290816000820180546107bc90610fef565b80601f01602080910402602001604051908101604052809291908181526020018280546107e890610fef565b80156108355780601f1061080a57610100808354040283529160200191610835565b820191906000526020600020905b81548152906001019060200180831161081857829003601f168201915b5050505050815260200160018201805461084e90610fef565b80601f016020809104026020016040519081016040528092919081815260200182805461087a90610fef565b80156108c75780601f1061089c576101008083540402835291602001916108c7565b820191906000526020600020905b8154815290600101906020018083116108aa57829003601f168201915b50505050508152505081526020019060010190610789565b50505050915050919050565b818073ffffffffffffffffffffffffffffffffffffffff163373ffffffffffffffffffffffffffffffffffffffff161461095a576040517f08c379a000000000000000000000000000000000000000000000000000000000815260040161095190611375565b60405180910390fd5b6109648383610969565b505050565b60016000808473ffffffffffffffffffffffffffffffffffffffff1673ffffffffffffffffffffffffffffffffffffffff16815260200190815260200160002060008373ffffffffffffffffffffffffffffffffffffffff1673ffffffffffffffffffffffffffffffffffffffff16815260200190815260200160002060006101000a81548160ff0219169083151502179055505050565b6000808373ffffffffffffffffffffffffffffffffffffffff1673ffffffffffffffffffffffffffffffffffffffff16815260200190815260200160002060008273ffffffffffffffffffffffffffffffffffffffff1673ffffffffffffffffffffffffffffffffffffffff16815260200190815260200160002060006101000a81549060ff02191690555050565b6000604051905090565b600080fd5b600080fd5b600073ffffffffffffffffffffffffffffffffffffffff82169050919050565b6000610acf82610aa4565b9050919050565b610adf81610ac4565b8114610aea57600080fd5b50565b600081359050610afc81610ad6565b92915050565b600060208284031215610b1857610b17610a9a565b5b6000610b2684828501610aed565b91505092915050565b60008115159050919050565b610b4481610b2f565b82525050565b6000602082019050610b5f6000830184610b3b565b92915050565b600080fd5b600080fd5b6000601f19601f8301169050919050565b7f4e487b7100000000000000000000000000000000000000000000000000000000600052604160045260246000fd5b610bb882610b6f565b810181811067ffffffffffffffff82111715610bd757610bd6610b80565b5b80604052505050565b6000610bea610a90565b9050610bf68282610baf565b919050565b600067ffffffffffffffff821115610c1657610c15610b80565b5b610c1f82610b6f565b9050602081019050919050565b82818337600083830152505050565b6000610c4e610c4984610bfb565b610be0565b905082815260208101848484011115610c6a57610c69610b6a565b5b610c75848285610c2c565b509392505050565b600082601f830112610c9257610c91610b65565b5b8135610ca2848260208601610c3b565b91505092915050565b600080600060608486031215610cc457610cc3610a9a565b5b6000610cd286828701610aed565b935050602084013567ffffffffffffffff811115610cf357610cf2610a9f565b5b610cff86828701610c7d565b925050604084013567ffffffffffffffff811115610d2057610d1f610a9f565b5b610d2c86828701610c7d565b9150509250925092565b60008060408385031215610d4d57610d4c610a9a565b5b6000610d5b85828601610aed565b9250506020610d6c85828601610aed565b9150509250929050565b600081519050919050565b600082825260208201905092915050565b6000819050602082019050919050565b600081519050919050565b600082825260208201905092915050565b60005b83811015610ddc578082015181840152602081019050610dc1565b60008484015250505050565b6000610df382610da2565b610dfd8185610dad565b9350610e0d818560208601610dbe565b610e1681610b6f565b840191505092915050565b60006040830160008301518482036000860152610e3e8282610de8565b91505060208301518482036020860152610e588282610de8565b9150508091505092915050565b6000610e718383610e21565b905092915050565b6000602082019050919050565b6000610e9182610d76565b610e9b8185610d81565b935083602082028501610ead85610d92565b8060005b85811015610ee95784840389528151610eca8582610e65565b9450610ed583610e79565b925060208a01995050600181019050610eb1565b50829750879550505050505092915050565b60006020820190508181036000830152610f158184610e86565b905092915050565b600082825260208201905092915050565b7f4f6e6c7920617574686f72697a6564206865616c7468636172652070726f766960008201527f646572732063616e20706572666f726d207468697320616374696f6e00000000602082015250565b6000610f8a603c83610f1d565b9150610f9582610f2e565b604082019050919050565b60006020820190508181036000830152610fb981610f7d565b9050919050565b7f4e487b7100000000000000000000000000000000000000000000000000000000600052602260045260246000fd5b6000600282049050600182168061100757607f821691505b60208210810361101a57611019610fc0565b5b50919050565b60008190508160005260206000209050919050565b60006020601f8301049050919050565b600082821b905092915050565b6000600883026110827fffffffffffffffffffffffffffffffffffffffffffffffffffffffffffffffff82611045565b61108c8683611045565b95508019841693508086168417925050509392505050565b6000819050919050565b6000819050919050565b60006110d36110ce6110c9846110a4565b6110ae565b6110a4565b9050919050565b6000819050919050565b6110ed836110b8565b6111016110f9826110da565b848454611052565b825550505050565b600090565b611116611109565b6111218184846110e4565b505050565b5b818110156111455761113a60008261110e565b600181019050611127565b5050565b601f82111561118a5761115b81611020565b61116484611035565b81016020851015611173578190505b61118761117f85611035565b830182611126565b50505b505050565b600082821c905092915050565b60006111ad6000198460080261118f565b1980831691505092915050565b60006111c6838361119c565b9150826002028217905092915050565b6111df82610da2565b67ffffffffffffffff8111156111f8576111f7610b80565b5b6112028254610fef565b61120d828285611149565b600060209050601f831160018114611240576000841561122e578287015190505b61123885826111ba565b8655506112a0565b601f19841661124e86611020565b60005b8281101561127657848901518255600182019150602085019450602081019050611251565b86831015611293578489015161128f601f89168261119c565b8355505b6001600288020188555050505b505050505050565b60006112b382610da2565b6112bd8185610f1d565b93506112cd818560208601610dbe565b6112d681610b6f565b840191505092915050565b600060208201905081810360008301526112fb81846112a8565b905092915050565b7f4f6e6c79207468652070617469656e742063616e20706572666f726d2074686960008201527f7320616374696f6e000000000000000000000000000000000000000000000000602082015250565b600061135f602883610f1d565b915061136a82611303565b604082019050919050565b6000602082019050818103600083015261138e81611352565b9050919050565b7f4e6f2072656164207065726d697373696f6e0000000000000000000000000000600082015250565b60006113cb601283610f1d565b91506113d682611395565b602082019050919050565b600060208201905081810360008301526113fa816113be565b905091905056fea2646970667358221220fea2bb4c9abe6dca54bce3dde15db25e237823f17ecbd1891884da0a11da487c64736f6c63430008130033",
  "immutableReferences": {},
  "source": "// SPDX-License-Identifier: MIT\npragma solidity 0.8.19;\nimport \"./AccessControl.sol\";\n\ncontract Surgeries is AccessControl{\n    struct Surgery{\n        string surgeryType;\n        string surgeryDate;\n    }\n\n    mapping(address => Surgery[]) private surgeries;\n    event SurgeryAdded(address indexed providerAddress, address indexed patientAddress, string surgery);\n\n    function addSurgery(address _patient, string memory _surgeryType, string memory _surgeryDate) public onlyProvider(msg.sender, _patient){\n        surgeries[_patient].push(Surgery(_surgeryType, _surgeryDate));\n        emit SurgeryAdded(msg.sender, _patient,  _surgeryType);\n    }\n\n    function getSurgery(address _patientAddress) public view onlyProviderOrPatient(_patientAddress) returns (Surgery[] memory){\n        return surgeries[_patientAddress];\n    }\n\n}",
  "sourcePath": "/Users/ishanpathak/Desktop/Summer Projects/MediChain/contracts/Surgeries.sol",
  "compiler": {
    "name": "solc",
    "version": "0.8.19+commit.7dd6d404.Emscripten.clang"
  },
  "schemaVersion": "3.4.16",
  "updatedAt": "2024-06-16T23:50:15.310Z",
  "networkType": "ethereum",
  "devdoc": {
    "kind": "dev",
    "methods": {},
    "version": 1
  },
  "userdoc": {
    "kind": "user",
    "methods": {},
    "version": 1
  }
}